{
  "contractName": "Lottery",
  "abi": [
    {
      "inputs": [],
      "stateMutability": "nonpayable",
      "type": "constructor"
    },
    {
      "inputs": [],
      "name": "manager",
      "outputs": [
        {
          "internalType": "address",
          "name": "",
          "type": "address"
        }
      ],
      "stateMutability": "view",
      "type": "function",
      "constant": true
    },
    {
      "inputs": [
        {
          "internalType": "uint256",
          "name": "",
          "type": "uint256"
        }
      ],
      "name": "players",
      "outputs": [
        {
          "internalType": "address",
          "name": "",
          "type": "address"
        }
      ],
      "stateMutability": "view",
      "type": "function",
      "constant": true
    },
    {
      "inputs": [],
      "name": "price",
      "outputs": [
        {
          "internalType": "uint256",
          "name": "",
          "type": "uint256"
        }
      ],
      "stateMutability": "view",
      "type": "function",
      "constant": true
    },
    {
      "inputs": [],
      "name": "winner",
      "outputs": [
        {
          "internalType": "address payable",
          "name": "",
          "type": "address"
        }
      ],
      "stateMutability": "view",
      "type": "function",
      "constant": true
    },
    {
      "inputs": [],
      "name": "enter",
      "outputs": [],
      "stateMutability": "payable",
      "type": "function",
      "payable": true
    },
    {
      "inputs": [],
      "name": "pickWinner",
      "outputs": [],
      "stateMutability": "nonpayable",
      "type": "function"
    }
  ],
  "bytecode": "0x608060405267016345785d8a000060035534801561001c57600080fd5b50336000806101000a81548173ffffffffffffffffffffffffffffffffffffffff021916908373ffffffffffffffffffffffffffffffffffffffff1602179055506105bc8061006c6000396000f3fe6080604052600436106100555760003560e01c8063481c6a751461005a5780635d495aea1461009b578063a035b1fe146100b2578063dfbf53ae146100dd578063e97dcb621461011e578063f71d96cb14610128575b600080fd5b34801561006657600080fd5b5061006f61018d565b604051808273ffffffffffffffffffffffffffffffffffffffff16815260200191505060405180910390f35b3480156100a757600080fd5b506100b06101b1565b005b3480156100be57600080fd5b506100c761035e565b6040518082815260200191505060405180910390f35b3480156100e957600080fd5b506100f2610364565b604051808273ffffffffffffffffffffffffffffffffffffffff16815260200191505060405180910390f35b61012661038a565b005b34801561013457600080fd5b506101616004803603602081101561014b57600080fd5b81019080803590602001909291905050506103fe565b604051808273ffffffffffffffffffffffffffffffffffffffff16815260200191505060405180910390f35b60008054906101000a900473ffffffffffffffffffffffffffffffffffffffff1681565b60008054906101000a900473ffffffffffffffffffffffffffffffffffffffff1673ffffffffffffffffffffffffffffffffffffffff163373ffffffffffffffffffffffffffffffffffffffff161461020957600080fd5b6001808054905061021861043d565b8161021f57fe5b068154811061022a57fe5b9060005260206000200160009054906101000a900473ffffffffffffffffffffffffffffffffffffffff16600260006101000a81548173ffffffffffffffffffffffffffffffffffffffff021916908373ffffffffffffffffffffffffffffffffffffffff160217905550600260009054906101000a900473ffffffffffffffffffffffffffffffffffffffff1673ffffffffffffffffffffffffffffffffffffffff166108fc479081150290604051600060405180830381858888f193505050501580156102fd573d6000803e3d6000fd5b50600067ffffffffffffffff8111801561031657600080fd5b506040519080825280602002602001820160405280156103455781602001602082028036833780820191505090505b506001908051906020019061035b9291906104df565b50565b60035481565b600260009054906101000a900473ffffffffffffffffffffffffffffffffffffffff1681565b60035434101561039957600080fd5b6001339080600181540180825580915050600190039060005260206000200160009091909190916101000a81548173ffffffffffffffffffffffffffffffffffffffff021916908373ffffffffffffffffffffffffffffffffffffffff160217905550565b6001818154811061040e57600080fd5b906000526020600020016000915054906101000a900473ffffffffffffffffffffffffffffffffffffffff1681565b6000444260016040516020018084815260200183815260200182805480156104ba57602002820191906000526020600020905b8160009054906101000a900473ffffffffffffffffffffffffffffffffffffffff1673ffffffffffffffffffffffffffffffffffffffff1681526020019060010190808311610470575b505093505050506040516020818303038152906040528051906020012060001c905090565b828054828255906000526020600020908101928215610558579160200282015b828111156105575782518260006101000a81548173ffffffffffffffffffffffffffffffffffffffff021916908373ffffffffffffffffffffffffffffffffffffffff160217905550916020019190600101906104ff565b5b5090506105659190610569565b5090565b5b8082111561058257600081600090555060010161056a565b509056fea2646970667358221220444d6eebf7061cee67a775f12042f0522e535dbfdcdb1ac12064813b3b9c9a2464736f6c63430007060033",
  "immutableReferences": {},
  "source": "pragma solidity >=0.4.0 <0.8.0;\n\ncontract Lottery {\n    address public manager;\n    address[] public players;\n    address payable public winner;\n    uint public price = 0.1 ether;\n\n    // no need to write visibility(ex. public)\n    constructor() {\n        manager = msg.sender;\n    }\n\n    function enter() public payable {\n        require(msg.value >= price);\n        players.push(msg.sender);\n    }\n\n    function pickWinner() public {\n        require(msg.sender == manager);\n\n        // pick winner\n        // use payable keyword to change the type\n        // randomized pick by getting residue of random number divided by player list length\n        winner = payable(players[_random() % players.length]);\n\n        // send prize\n        winner.transfer(address(this).balance);\n\n        // initialize players list\n        players = new address[](0);\n    }\n\n    function _random() private view returns (uint) {\n        // get hash based on block difficulty, time stamp, players info\n        // Caution: miners can affect the block info.\n        return uint(keccak256(\n            abi.encodePacked(block.difficulty, block.timestamp, players)\n        ));\n    }\n}\n",
  "sourcePath": "/Users/mzc01-hjjung/smart_contract/solidity_and_smart_contract/project_lottery_v2/contracts/lottery.sol",
  "compiler": {
    "name": "solc",
    "version": "0.7.6+commit.7338295f.Emscripten.clang"
  },
  "schemaVersion": "3.4.7",
  "updatedAt": "2022-05-10T05:43:44.921Z",
  "networkType": "ethereum",
  "devdoc": {
    "kind": "dev",
    "methods": {},
    "version": 1
  },
  "userdoc": {
    "kind": "user",
    "methods": {},
    "version": 1
  }
}