{
	"project_ponzi/simpleponzi.sol": {
		"SimplePonzi": {
			"abi": [
				{
					"constant": true,
					"inputs": [],
					"name": "currentInvestor",
					"outputs": [
						{
							"name": "",
							"type": "address"
						}
					],
					"payable": false,
					"stateMutability": "view",
					"type": "function"
				},
				{
					"constant": true,
					"inputs": [],
					"name": "currentInvestmentAmount",
					"outputs": [
						{
							"name": "",
							"type": "uint256"
						}
					],
					"payable": false,
					"stateMutability": "view",
					"type": "function"
				},
				{
					"payable": true,
					"stateMutability": "payable",
					"type": "fallback"
				}
			],
			"devdoc": {
				"methods": {}
			},
			"evm": {
				"assembly": "    /* \"project_ponzi/simpleponzi.sol\":33:785  contract SimplePonzi {... */\n  mstore(0x40, 0x80)\n    /* \"project_ponzi/simpleponzi.sol\":157:158  0 */\n  0x0\n    /* \"project_ponzi/simpleponzi.sol\":119:158  uint public currentInvestmentAmount = 0 */\n  0x1\n  sstore\n    /* \"project_ponzi/simpleponzi.sol\":33:785  contract SimplePonzi {... */\n  callvalue\n    /* \"--CODEGEN--\":8:17   */\n  dup1\n    /* \"--CODEGEN--\":5:7   */\n  iszero\n  tag_1\n  jumpi\n    /* \"--CODEGEN--\":30:31   */\n  0x0\n    /* \"--CODEGEN--\":27:28   */\n  dup1\n    /* \"--CODEGEN--\":20:32   */\n  revert\n    /* \"--CODEGEN--\":5:7   */\ntag_1:\n    /* \"project_ponzi/simpleponzi.sol\":33:785  contract SimplePonzi {... */\n  pop\n  dataSize(sub_0)\n  dup1\n  dataOffset(sub_0)\n  0x0\n  codecopy\n  0x0\n  return\nstop\n\nsub_0: assembly {\n        /* \"project_ponzi/simpleponzi.sol\":33:785  contract SimplePonzi {... */\n      mstore(0x40, 0x80)\n      jumpi(tag_1, lt(calldatasize, 0x4))\n      calldataload(0x0)\n      0x100000000000000000000000000000000000000000000000000000000\n      swap1\n      div\n      0xffffffff\n      and\n      dup1\n      0x523e27d4\n      eq\n      tag_2\n      jumpi\n      dup1\n      0x5fa9397f\n      eq\n      tag_3\n      jumpi\n    tag_1:\n        /* \"project_ponzi/simpleponzi.sol\":268:296  uint minimumInvestmentAmount */\n      0x0\n        /* \"project_ponzi/simpleponzi.sol\":431:455  address previousInvestor */\n      dup1\n        /* \"project_ponzi/simpleponzi.sol\":330:332  10 */\n      0xa\n        /* \"project_ponzi/simpleponzi.sol\":325:327  11 */\n      0xb\n        /* \"project_ponzi/simpleponzi.sol\":299:322  currentInvestmentAmount */\n      sload(0x1)\n        /* \"project_ponzi/simpleponzi.sol\":299:327  currentInvestmentAmount * 11 */\n      mul\n        /* \"project_ponzi/simpleponzi.sol\":299:332  currentInvestmentAmount * 11 / 10 */\n      dup2\n      iszero\n      iszero\n      tag_6\n      jumpi\n      invalid\n    tag_6:\n      div\n        /* \"project_ponzi/simpleponzi.sol\":268:332  uint minimumInvestmentAmount = currentInvestmentAmount * 11 / 10 */\n      swap2\n      pop\n        /* \"project_ponzi/simpleponzi.sol\":362:385  minimumInvestmentAmount */\n      dup2\n        /* \"project_ponzi/simpleponzi.sol\":350:359  msg.value */\n      callvalue\n        /* \"project_ponzi/simpleponzi.sol\":350:385  msg.value > minimumInvestmentAmount */\n      gt\n        /* \"project_ponzi/simpleponzi.sol\":342:386  require(msg.value > minimumInvestmentAmount) */\n      iszero\n      iszero\n      tag_7\n      jumpi\n      0x0\n      dup1\n      revert\n    tag_7:\n        /* \"project_ponzi/simpleponzi.sol\":458:473  currentInvestor */\n      0x0\n      dup1\n      swap1\n      sload\n      swap1\n      0x100\n      exp\n      swap1\n      div\n      0xffffffffffffffffffffffffffffffffffffffff\n      and\n        /* \"project_ponzi/simpleponzi.sol\":431:473  address previousInvestor = currentInvestor */\n      swap1\n      pop\n        /* \"project_ponzi/simpleponzi.sol\":501:511  msg.sender */\n      caller\n        /* \"project_ponzi/simpleponzi.sol\":483:498  currentInvestor */\n      0x0\n      dup1\n        /* \"project_ponzi/simpleponzi.sol\":483:511  currentInvestor = msg.sender */\n      0x100\n      exp\n      dup2\n      sload\n      dup2\n      0xffffffffffffffffffffffffffffffffffffffff\n      mul\n      not\n      and\n      swap1\n      dup4\n      0xffffffffffffffffffffffffffffffffffffffff\n      and\n      mul\n      or\n      swap1\n      sstore\n      pop\n        /* \"project_ponzi/simpleponzi.sol\":547:556  msg.value */\n      callvalue\n        /* \"project_ponzi/simpleponzi.sol\":521:544  currentInvestmentAmount */\n      0x1\n        /* \"project_ponzi/simpleponzi.sol\":521:556  currentInvestmentAmount = msg.value */\n      dup2\n      swap1\n      sstore\n      pop\n        /* \"project_ponzi/simpleponzi.sol\":739:755  previousInvestor */\n      dup1\n        /* \"project_ponzi/simpleponzi.sol\":739:764  previousInvestor.transfer */\n      0xffffffffffffffffffffffffffffffffffffffff\n      and\n        /* \"project_ponzi/simpleponzi.sol\":739:775  previousInvestor.transfer(msg.value) */\n      0x8fc\n        /* \"project_ponzi/simpleponzi.sol\":765:774  msg.value */\n      callvalue\n        /* \"project_ponzi/simpleponzi.sol\":739:775  previousInvestor.transfer(msg.value) */\n      swap1\n      dup2\n      iszero\n      mul\n      swap1\n      mload(0x40)\n      0x0\n      mload(0x40)\n      dup1\n      dup4\n      sub\n      dup2\n      dup6\n      dup9\n      dup9\n      call\n      swap4\n      pop\n      pop\n      pop\n      pop\n      iszero\n        /* \"--CODEGEN--\":8:17   */\n      dup1\n        /* \"--CODEGEN--\":5:7   */\n      iszero\n      tag_8\n      jumpi\n        /* \"--CODEGEN--\":45:61   */\n      returndatasize\n        /* \"--CODEGEN--\":42:43   */\n      0x0\n        /* \"--CODEGEN--\":39:40   */\n      dup1\n        /* \"--CODEGEN--\":24:62   */\n      returndatacopy\n        /* \"--CODEGEN--\":77:93   */\n      returndatasize\n        /* \"--CODEGEN--\":74:75   */\n      0x0\n        /* \"--CODEGEN--\":67:94   */\n      revert\n        /* \"--CODEGEN--\":5:7   */\n    tag_8:\n        /* \"project_ponzi/simpleponzi.sol\":739:775  previousInvestor.transfer(msg.value) */\n      pop\n        /* \"project_ponzi/simpleponzi.sol\":165:783  function () external payable {... */\n      pop\n      pop\n        /* \"project_ponzi/simpleponzi.sol\":33:785  contract SimplePonzi {... */\n      stop\n        /* \"project_ponzi/simpleponzi.sol\":83:113  address public currentInvestor */\n    tag_2:\n      callvalue\n        /* \"--CODEGEN--\":8:17   */\n      dup1\n        /* \"--CODEGEN--\":5:7   */\n      iszero\n      tag_9\n      jumpi\n        /* \"--CODEGEN--\":30:31   */\n      0x0\n        /* \"--CODEGEN--\":27:28   */\n      dup1\n        /* \"--CODEGEN--\":20:32   */\n      revert\n        /* \"--CODEGEN--\":5:7   */\n    tag_9:\n        /* \"project_ponzi/simpleponzi.sol\":83:113  address public currentInvestor */\n      pop\n      tag_10\n      jump(tag_11)\n    tag_10:\n      mload(0x40)\n      dup1\n      dup3\n      0xffffffffffffffffffffffffffffffffffffffff\n      and\n      0xffffffffffffffffffffffffffffffffffffffff\n      and\n      dup2\n      mstore\n      0x20\n      add\n      swap2\n      pop\n      pop\n      mload(0x40)\n      dup1\n      swap2\n      sub\n      swap1\n      return\n        /* \"project_ponzi/simpleponzi.sol\":119:158  uint public currentInvestmentAmount = 0 */\n    tag_3:\n      callvalue\n        /* \"--CODEGEN--\":8:17   */\n      dup1\n        /* \"--CODEGEN--\":5:7   */\n      iszero\n      tag_12\n      jumpi\n        /* \"--CODEGEN--\":30:31   */\n      0x0\n        /* \"--CODEGEN--\":27:28   */\n      dup1\n        /* \"--CODEGEN--\":20:32   */\n      revert\n        /* \"--CODEGEN--\":5:7   */\n    tag_12:\n        /* \"project_ponzi/simpleponzi.sol\":119:158  uint public currentInvestmentAmount = 0 */\n      pop\n      tag_13\n      jump(tag_14)\n    tag_13:\n      mload(0x40)\n      dup1\n      dup3\n      dup2\n      mstore\n      0x20\n      add\n      swap2\n      pop\n      pop\n      mload(0x40)\n      dup1\n      swap2\n      sub\n      swap1\n      return\n        /* \"project_ponzi/simpleponzi.sol\":83:113  address public currentInvestor */\n    tag_11:\n      0x0\n      dup1\n      swap1\n      sload\n      swap1\n      0x100\n      exp\n      swap1\n      div\n      0xffffffffffffffffffffffffffffffffffffffff\n      and\n      dup2\n      jump\t// out\n        /* \"project_ponzi/simpleponzi.sol\":119:158  uint public currentInvestmentAmount = 0 */\n    tag_14:\n      sload(0x1)\n      dup2\n      jump\t// out\n\n    auxdata: 0xa165627a7a723058207a85768e023eee32ea4a2ee0dd7c5fde5a9c1e9af7abefbd2a3b91328762e1ad0029\n}\n",
				"bytecode": {
					"linkReferences": {},
					"object": "6080604052600060015534801561001557600080fd5b50610200806100256000396000f30060806040526004361061004c576000357c0100000000000000000000000000000000000000000000000000000000900463ffffffff168063523e27d4146101275780635fa9397f1461017e575b600080600a600b6001540281151561006057fe5b049150813411151561007157600080fd5b6000809054906101000a900473ffffffffffffffffffffffffffffffffffffffff169050336000806101000a81548173ffffffffffffffffffffffffffffffffffffffff021916908373ffffffffffffffffffffffffffffffffffffffff160217905550346001819055508073ffffffffffffffffffffffffffffffffffffffff166108fc349081150290604051600060405180830381858888f19350505050158015610122573d6000803e3d6000fd5b505050005b34801561013357600080fd5b5061013c6101a9565b604051808273ffffffffffffffffffffffffffffffffffffffff1673ffffffffffffffffffffffffffffffffffffffff16815260200191505060405180910390f35b34801561018a57600080fd5b506101936101ce565b6040518082815260200191505060405180910390f35b6000809054906101000a900473ffffffffffffffffffffffffffffffffffffffff1681565b600154815600a165627a7a723058207a85768e023eee32ea4a2ee0dd7c5fde5a9c1e9af7abefbd2a3b91328762e1ad0029",
					"opcodes": "PUSH1 0x80 PUSH1 0x40 MSTORE PUSH1 0x0 PUSH1 0x1 SSTORE CALLVALUE DUP1 ISZERO PUSH2 0x15 JUMPI PUSH1 0x0 DUP1 REVERT JUMPDEST POP PUSH2 0x200 DUP1 PUSH2 0x25 PUSH1 0x0 CODECOPY PUSH1 0x0 RETURN STOP PUSH1 0x80 PUSH1 0x40 MSTORE PUSH1 0x4 CALLDATASIZE LT PUSH2 0x4C JUMPI PUSH1 0x0 CALLDATALOAD PUSH29 0x100000000000000000000000000000000000000000000000000000000 SWAP1 DIV PUSH4 0xFFFFFFFF AND DUP1 PUSH4 0x523E27D4 EQ PUSH2 0x127 JUMPI DUP1 PUSH4 0x5FA9397F EQ PUSH2 0x17E JUMPI JUMPDEST PUSH1 0x0 DUP1 PUSH1 0xA PUSH1 0xB PUSH1 0x1 SLOAD MUL DUP2 ISZERO ISZERO PUSH2 0x60 JUMPI INVALID JUMPDEST DIV SWAP2 POP DUP2 CALLVALUE GT ISZERO ISZERO PUSH2 0x71 JUMPI PUSH1 0x0 DUP1 REVERT JUMPDEST PUSH1 0x0 DUP1 SWAP1 SLOAD SWAP1 PUSH2 0x100 EXP SWAP1 DIV PUSH20 0xFFFFFFFFFFFFFFFFFFFFFFFFFFFFFFFFFFFFFFFF AND SWAP1 POP CALLER PUSH1 0x0 DUP1 PUSH2 0x100 EXP DUP2 SLOAD DUP2 PUSH20 0xFFFFFFFFFFFFFFFFFFFFFFFFFFFFFFFFFFFFFFFF MUL NOT AND SWAP1 DUP4 PUSH20 0xFFFFFFFFFFFFFFFFFFFFFFFFFFFFFFFFFFFFFFFF AND MUL OR SWAP1 SSTORE POP CALLVALUE PUSH1 0x1 DUP2 SWAP1 SSTORE POP DUP1 PUSH20 0xFFFFFFFFFFFFFFFFFFFFFFFFFFFFFFFFFFFFFFFF AND PUSH2 0x8FC CALLVALUE SWAP1 DUP2 ISZERO MUL SWAP1 PUSH1 0x40 MLOAD PUSH1 0x0 PUSH1 0x40 MLOAD DUP1 DUP4 SUB DUP2 DUP6 DUP9 DUP9 CALL SWAP4 POP POP POP POP ISZERO DUP1 ISZERO PUSH2 0x122 JUMPI RETURNDATASIZE PUSH1 0x0 DUP1 RETURNDATACOPY RETURNDATASIZE PUSH1 0x0 REVERT JUMPDEST POP POP POP STOP JUMPDEST CALLVALUE DUP1 ISZERO PUSH2 0x133 JUMPI PUSH1 0x0 DUP1 REVERT JUMPDEST POP PUSH2 0x13C PUSH2 0x1A9 JUMP JUMPDEST PUSH1 0x40 MLOAD DUP1 DUP3 PUSH20 0xFFFFFFFFFFFFFFFFFFFFFFFFFFFFFFFFFFFFFFFF AND PUSH20 0xFFFFFFFFFFFFFFFFFFFFFFFFFFFFFFFFFFFFFFFF AND DUP2 MSTORE PUSH1 0x20 ADD SWAP2 POP POP PUSH1 0x40 MLOAD DUP1 SWAP2 SUB SWAP1 RETURN JUMPDEST CALLVALUE DUP1 ISZERO PUSH2 0x18A JUMPI PUSH1 0x0 DUP1 REVERT JUMPDEST POP PUSH2 0x193 PUSH2 0x1CE JUMP JUMPDEST PUSH1 0x40 MLOAD DUP1 DUP3 DUP2 MSTORE PUSH1 0x20 ADD SWAP2 POP POP PUSH1 0x40 MLOAD DUP1 SWAP2 SUB SWAP1 RETURN JUMPDEST PUSH1 0x0 DUP1 SWAP1 SLOAD SWAP1 PUSH2 0x100 EXP SWAP1 DIV PUSH20 0xFFFFFFFFFFFFFFFFFFFFFFFFFFFFFFFFFFFFFFFF AND DUP2 JUMP JUMPDEST PUSH1 0x1 SLOAD DUP2 JUMP STOP LOG1 PUSH6 0x627A7A723058 KECCAK256 PUSH27 0x85768E023EEE32EA4A2EE0DD7C5FDE5A9C1E9AF7ABEFBD2A3B9132 DUP8 PUSH3 0xE1AD00 0x29 "
				},
				"gasEstimates": {
					"creation": {
						"codeDepositCost": "102400",
						"executionCost": "5153",
						"totalCost": "107553"
					},
					"external": {
						"": "infinite",
						"currentInvestmentAmount()": "416",
						"currentInvestor()": "442"
					}
				},
				"methodIdentifiers": {
					"currentInvestmentAmount()": "5fa9397f",
					"currentInvestor()": "523e27d4"
				}
			},
			"userdoc": {
				"methods": {}
			}
		}
	}
}