{
	"project_ponzi/simpleponzi.sol": {
		"SimplePonzi": {
			"abi": [
				{
					"constant": true,
					"inputs": [],
					"name": "currentInvestor",
					"outputs": [
						{
							"name": "",
							"type": "address"
						}
					],
					"payable": false,
					"stateMutability": "view",
					"type": "function"
				},
				{
					"constant": true,
					"inputs": [],
					"name": "currentInvestmentAmount",
					"outputs": [
						{
							"name": "",
							"type": "uint256"
						}
					],
					"payable": false,
					"stateMutability": "view",
					"type": "function"
				},
				{
					"payable": true,
					"stateMutability": "payable",
					"type": "fallback"
				}
			],
			"devdoc": {
				"methods": {}
			},
			"evm": {
				"assembly": "    /* \"project_ponzi/simpleponzi.sol\":33:651  contract SimplePonzi {... */\n  mstore(0x40, 0x80)\n    /* \"project_ponzi/simpleponzi.sol\":157:158  0 */\n  0x0\n    /* \"project_ponzi/simpleponzi.sol\":119:158  uint public currentInvestmentAmount = 0 */\n  0x1\n  sstore\n    /* \"project_ponzi/simpleponzi.sol\":33:651  contract SimplePonzi {... */\n  callvalue\n    /* \"--CODEGEN--\":8:17   */\n  dup1\n    /* \"--CODEGEN--\":5:7   */\n  iszero\n  tag_1\n  jumpi\n    /* \"--CODEGEN--\":30:31   */\n  0x0\n    /* \"--CODEGEN--\":27:28   */\n  dup1\n    /* \"--CODEGEN--\":20:32   */\n  revert\n    /* \"--CODEGEN--\":5:7   */\ntag_1:\n    /* \"project_ponzi/simpleponzi.sol\":33:651  contract SimplePonzi {... */\n  pop\n  dataSize(sub_0)\n  dup1\n  dataOffset(sub_0)\n  0x0\n  codecopy\n  0x0\n  return\nstop\n\nsub_0: assembly {\n        /* \"project_ponzi/simpleponzi.sol\":33:651  contract SimplePonzi {... */\n      mstore(0x40, 0x80)\n      jumpi(tag_1, lt(calldatasize, 0x4))\n      calldataload(0x0)\n      0x100000000000000000000000000000000000000000000000000000000\n      swap1\n      div\n      0xffffffff\n      and\n      dup1\n      0x523e27d4\n      eq\n      tag_2\n      jumpi\n      dup1\n      0x5fa9397f\n      eq\n      tag_3\n      jumpi\n    tag_1:\n        /* \"project_ponzi/simpleponzi.sol\":268:296  uint minimumInvestmentAmount */\n      0x0\n        /* \"project_ponzi/simpleponzi.sol\":431:455  address previousInvestor */\n      dup1\n        /* \"project_ponzi/simpleponzi.sol\":330:332  10 */\n      0xa\n        /* \"project_ponzi/simpleponzi.sol\":325:327  11 */\n      0xb\n        /* \"project_ponzi/simpleponzi.sol\":299:322  currentInvestmentAmount */\n      sload(0x1)\n        /* \"project_ponzi/simpleponzi.sol\":299:327  currentInvestmentAmount * 11 */\n      mul\n        /* \"project_ponzi/simpleponzi.sol\":299:332  currentInvestmentAmount * 11 / 10 */\n      dup2\n      iszero\n      iszero\n      tag_6\n      jumpi\n      invalid\n    tag_6:\n      div\n        /* \"project_ponzi/simpleponzi.sol\":268:332  uint minimumInvestmentAmount = currentInvestmentAmount * 11 / 10 */\n      swap2\n      pop\n        /* \"project_ponzi/simpleponzi.sol\":362:385  minimumInvestmentAmount */\n      dup2\n        /* \"project_ponzi/simpleponzi.sol\":350:359  msg.value */\n      callvalue\n        /* \"project_ponzi/simpleponzi.sol\":350:385  msg.value > minimumInvestmentAmount */\n      gt\n        /* \"project_ponzi/simpleponzi.sol\":342:386  require(msg.value > minimumInvestmentAmount) */\n      iszero\n      iszero\n      tag_7\n      jumpi\n      0x0\n      dup1\n      revert\n    tag_7:\n        /* \"project_ponzi/simpleponzi.sol\":458:473  currentInvestor */\n      0x0\n      dup1\n      swap1\n      sload\n      swap1\n      0x100\n      exp\n      swap1\n      div\n      0xffffffffffffffffffffffffffffffffffffffff\n      and\n        /* \"project_ponzi/simpleponzi.sol\":431:473  address previousInvestor = currentInvestor */\n      swap1\n      pop\n        /* \"project_ponzi/simpleponzi.sol\":501:511  msg.sender */\n      caller\n        /* \"project_ponzi/simpleponzi.sol\":483:498  currentInvestor */\n      0x0\n      dup1\n        /* \"project_ponzi/simpleponzi.sol\":483:511  currentInvestor = msg.sender */\n      0x100\n      exp\n      dup2\n      sload\n      dup2\n      0xffffffffffffffffffffffffffffffffffffffff\n      mul\n      not\n      and\n      swap1\n      dup4\n      0xffffffffffffffffffffffffffffffffffffffff\n      and\n      mul\n      or\n      swap1\n      sstore\n      pop\n        /* \"project_ponzi/simpleponzi.sol\":547:556  msg.value */\n      callvalue\n        /* \"project_ponzi/simpleponzi.sol\":521:544  currentInvestmentAmount */\n      0x1\n        /* \"project_ponzi/simpleponzi.sol\":521:556  currentInvestmentAmount = msg.value */\n      dup2\n      swap1\n      sstore\n      pop\n        /* \"project_ponzi/simpleponzi.sol\":609:625  previousInvestor */\n      dup1\n        /* \"project_ponzi/simpleponzi.sol\":609:630  previousInvestor.send */\n      0xffffffffffffffffffffffffffffffffffffffff\n      and\n        /* \"project_ponzi/simpleponzi.sol\":609:641  previousInvestor.send(msg.value) */\n      0x8fc\n        /* \"project_ponzi/simpleponzi.sol\":631:640  msg.value */\n      callvalue\n        /* \"project_ponzi/simpleponzi.sol\":609:641  previousInvestor.send(msg.value) */\n      swap1\n      dup2\n      iszero\n      mul\n      swap1\n      mload(0x40)\n      0x0\n      mload(0x40)\n      dup1\n      dup4\n      sub\n      dup2\n      dup6\n      dup9\n      dup9\n      call\n      swap4\n      pop\n      pop\n      pop\n      pop\n      pop\n        /* \"project_ponzi/simpleponzi.sol\":165:649  function () external payable {... */\n      pop\n      pop\n        /* \"project_ponzi/simpleponzi.sol\":33:651  contract SimplePonzi {... */\n      stop\n        /* \"project_ponzi/simpleponzi.sol\":83:113  address public currentInvestor */\n    tag_2:\n      callvalue\n        /* \"--CODEGEN--\":8:17   */\n      dup1\n        /* \"--CODEGEN--\":5:7   */\n      iszero\n      tag_8\n      jumpi\n        /* \"--CODEGEN--\":30:31   */\n      0x0\n        /* \"--CODEGEN--\":27:28   */\n      dup1\n        /* \"--CODEGEN--\":20:32   */\n      revert\n        /* \"--CODEGEN--\":5:7   */\n    tag_8:\n        /* \"project_ponzi/simpleponzi.sol\":83:113  address public currentInvestor */\n      pop\n      tag_9\n      jump(tag_10)\n    tag_9:\n      mload(0x40)\n      dup1\n      dup3\n      0xffffffffffffffffffffffffffffffffffffffff\n      and\n      0xffffffffffffffffffffffffffffffffffffffff\n      and\n      dup2\n      mstore\n      0x20\n      add\n      swap2\n      pop\n      pop\n      mload(0x40)\n      dup1\n      swap2\n      sub\n      swap1\n      return\n        /* \"project_ponzi/simpleponzi.sol\":119:158  uint public currentInvestmentAmount = 0 */\n    tag_3:\n      callvalue\n        /* \"--CODEGEN--\":8:17   */\n      dup1\n        /* \"--CODEGEN--\":5:7   */\n      iszero\n      tag_11\n      jumpi\n        /* \"--CODEGEN--\":30:31   */\n      0x0\n        /* \"--CODEGEN--\":27:28   */\n      dup1\n        /* \"--CODEGEN--\":20:32   */\n      revert\n        /* \"--CODEGEN--\":5:7   */\n    tag_11:\n        /* \"project_ponzi/simpleponzi.sol\":119:158  uint public currentInvestmentAmount = 0 */\n      pop\n      tag_12\n      jump(tag_13)\n    tag_12:\n      mload(0x40)\n      dup1\n      dup3\n      dup2\n      mstore\n      0x20\n      add\n      swap2\n      pop\n      pop\n      mload(0x40)\n      dup1\n      swap2\n      sub\n      swap1\n      return\n        /* \"project_ponzi/simpleponzi.sol\":83:113  address public currentInvestor */\n    tag_10:\n      0x0\n      dup1\n      swap1\n      sload\n      swap1\n      0x100\n      exp\n      swap1\n      div\n      0xffffffffffffffffffffffffffffffffffffffff\n      and\n      dup2\n      jump\t// out\n        /* \"project_ponzi/simpleponzi.sol\":119:158  uint public currentInvestmentAmount = 0 */\n    tag_13:\n      sload(0x1)\n      dup2\n      jump\t// out\n\n    auxdata: 0xa165627a7a72305820fa3b2d8e86ebd6d7ae497eb134b3ab5f94f7923006dd9e825035d64343496dcd0029\n}\n",
				"bytecode": {
					"linkReferences": {},
					"object": "6080604052600060015534801561001557600080fd5b506101ef806100256000396000f30060806040526004361061004c576000357c0100000000000000000000000000000000000000000000000000000000900463ffffffff168063523e27d4146101165780635fa9397f1461016d575b600080600a600b6001540281151561006057fe5b049150813411151561007157600080fd5b6000809054906101000a900473ffffffffffffffffffffffffffffffffffffffff169050336000806101000a81548173ffffffffffffffffffffffffffffffffffffffff021916908373ffffffffffffffffffffffffffffffffffffffff160217905550346001819055508073ffffffffffffffffffffffffffffffffffffffff166108fc349081150290604051600060405180830381858888f19350505050505050005b34801561012257600080fd5b5061012b610198565b604051808273ffffffffffffffffffffffffffffffffffffffff1673ffffffffffffffffffffffffffffffffffffffff16815260200191505060405180910390f35b34801561017957600080fd5b506101826101bd565b6040518082815260200191505060405180910390f35b6000809054906101000a900473ffffffffffffffffffffffffffffffffffffffff1681565b600154815600a165627a7a72305820fa3b2d8e86ebd6d7ae497eb134b3ab5f94f7923006dd9e825035d64343496dcd0029",
					"opcodes": "PUSH1 0x80 PUSH1 0x40 MSTORE PUSH1 0x0 PUSH1 0x1 SSTORE CALLVALUE DUP1 ISZERO PUSH2 0x15 JUMPI PUSH1 0x0 DUP1 REVERT JUMPDEST POP PUSH2 0x1EF DUP1 PUSH2 0x25 PUSH1 0x0 CODECOPY PUSH1 0x0 RETURN STOP PUSH1 0x80 PUSH1 0x40 MSTORE PUSH1 0x4 CALLDATASIZE LT PUSH2 0x4C JUMPI PUSH1 0x0 CALLDATALOAD PUSH29 0x100000000000000000000000000000000000000000000000000000000 SWAP1 DIV PUSH4 0xFFFFFFFF AND DUP1 PUSH4 0x523E27D4 EQ PUSH2 0x116 JUMPI DUP1 PUSH4 0x5FA9397F EQ PUSH2 0x16D JUMPI JUMPDEST PUSH1 0x0 DUP1 PUSH1 0xA PUSH1 0xB PUSH1 0x1 SLOAD MUL DUP2 ISZERO ISZERO PUSH2 0x60 JUMPI INVALID JUMPDEST DIV SWAP2 POP DUP2 CALLVALUE GT ISZERO ISZERO PUSH2 0x71 JUMPI PUSH1 0x0 DUP1 REVERT JUMPDEST PUSH1 0x0 DUP1 SWAP1 SLOAD SWAP1 PUSH2 0x100 EXP SWAP1 DIV PUSH20 0xFFFFFFFFFFFFFFFFFFFFFFFFFFFFFFFFFFFFFFFF AND SWAP1 POP CALLER PUSH1 0x0 DUP1 PUSH2 0x100 EXP DUP2 SLOAD DUP2 PUSH20 0xFFFFFFFFFFFFFFFFFFFFFFFFFFFFFFFFFFFFFFFF MUL NOT AND SWAP1 DUP4 PUSH20 0xFFFFFFFFFFFFFFFFFFFFFFFFFFFFFFFFFFFFFFFF AND MUL OR SWAP1 SSTORE POP CALLVALUE PUSH1 0x1 DUP2 SWAP1 SSTORE POP DUP1 PUSH20 0xFFFFFFFFFFFFFFFFFFFFFFFFFFFFFFFFFFFFFFFF AND PUSH2 0x8FC CALLVALUE SWAP1 DUP2 ISZERO MUL SWAP1 PUSH1 0x40 MLOAD PUSH1 0x0 PUSH1 0x40 MLOAD DUP1 DUP4 SUB DUP2 DUP6 DUP9 DUP9 CALL SWAP4 POP POP POP POP POP POP POP STOP JUMPDEST CALLVALUE DUP1 ISZERO PUSH2 0x122 JUMPI PUSH1 0x0 DUP1 REVERT JUMPDEST POP PUSH2 0x12B PUSH2 0x198 JUMP JUMPDEST PUSH1 0x40 MLOAD DUP1 DUP3 PUSH20 0xFFFFFFFFFFFFFFFFFFFFFFFFFFFFFFFFFFFFFFFF AND PUSH20 0xFFFFFFFFFFFFFFFFFFFFFFFFFFFFFFFFFFFFFFFF AND DUP2 MSTORE PUSH1 0x20 ADD SWAP2 POP POP PUSH1 0x40 MLOAD DUP1 SWAP2 SUB SWAP1 RETURN JUMPDEST CALLVALUE DUP1 ISZERO PUSH2 0x179 JUMPI PUSH1 0x0 DUP1 REVERT JUMPDEST POP PUSH2 0x182 PUSH2 0x1BD JUMP JUMPDEST PUSH1 0x40 MLOAD DUP1 DUP3 DUP2 MSTORE PUSH1 0x20 ADD SWAP2 POP POP PUSH1 0x40 MLOAD DUP1 SWAP2 SUB SWAP1 RETURN JUMPDEST PUSH1 0x0 DUP1 SWAP1 SLOAD SWAP1 PUSH2 0x100 EXP SWAP1 DIV PUSH20 0xFFFFFFFFFFFFFFFFFFFFFFFFFFFFFFFFFFFFFFFF AND DUP2 JUMP JUMPDEST PUSH1 0x1 SLOAD DUP2 JUMP STOP LOG1 PUSH6 0x627A7A723058 KECCAK256 STATICCALL EXTCODESIZE 0x2d DUP15 DUP7 0xeb 0xd6 0xd7 0xae 0x49 PUSH31 0xB134B3AB5F94F7923006DD9E825035D64343496DCD00290000000000000000 "
				},
				"gasEstimates": {
					"creation": {
						"codeDepositCost": "99000",
						"executionCost": "5153",
						"totalCost": "104153"
					},
					"external": {
						"": "infinite",
						"currentInvestmentAmount()": "416",
						"currentInvestor()": "442"
					}
				},
				"methodIdentifiers": {
					"currentInvestmentAmount()": "5fa9397f",
					"currentInvestor()": "523e27d4"
				}
			},
			"userdoc": {
				"methods": {}
			}
		}
	}
}