{
	"project_vote/vote.sol": {
		"Vote": {
			"abi": [
				{
					"constant": false,
					"inputs": [
						{
							"name": "proposalID",
							"type": "uint256"
						}
					],
					"name": "vote",
					"outputs": [],
					"payable": false,
					"stateMutability": "nonpayable",
					"type": "function"
				},
				{
					"constant": true,
					"inputs": [
						{
							"name": "",
							"type": "uint256"
						}
					],
					"name": "proposals",
					"outputs": [
						{
							"name": "description",
							"type": "string"
						},
						{
							"name": "voteCount",
							"type": "uint256"
						}
					],
					"payable": false,
					"stateMutability": "view",
					"type": "function"
				},
				{
					"constant": true,
					"inputs": [],
					"name": "currentState",
					"outputs": [
						{
							"name": "",
							"type": "uint8"
						}
					],
					"payable": false,
					"stateMutability": "view",
					"type": "function"
				},
				{
					"constant": false,
					"inputs": [],
					"name": "countVote",
					"outputs": [],
					"payable": false,
					"stateMutability": "nonpayable",
					"type": "function"
				},
				{
					"constant": false,
					"inputs": [],
					"name": "endProposalSubmission",
					"outputs": [],
					"payable": false,
					"stateMutability": "nonpayable",
					"type": "function"
				},
				{
					"constant": false,
					"inputs": [],
					"name": "endVoteSubmission",
					"outputs": [],
					"payable": false,
					"stateMutability": "nonpayable",
					"type": "function"
				},
				{
					"constant": true,
					"inputs": [
						{
							"name": "",
							"type": "address"
						}
					],
					"name": "voters",
					"outputs": [
						{
							"name": "isRegistered",
							"type": "bool"
						},
						{
							"name": "hasVoted",
							"type": "bool"
						},
						{
							"name": "votedProposalID",
							"type": "uint256"
						}
					],
					"payable": false,
					"stateMutability": "view",
					"type": "function"
				},
				{
					"constant": false,
					"inputs": [],
					"name": "endVote",
					"outputs": [],
					"payable": false,
					"stateMutability": "nonpayable",
					"type": "function"
				},
				{
					"constant": false,
					"inputs": [],
					"name": "startProposalSubmission",
					"outputs": [],
					"payable": false,
					"stateMutability": "nonpayable",
					"type": "function"
				},
				{
					"constant": false,
					"inputs": [],
					"name": "startVoteSubmission",
					"outputs": [],
					"payable": false,
					"stateMutability": "nonpayable",
					"type": "function"
				},
				{
					"constant": false,
					"inputs": [
						{
							"name": "proposalDescription",
							"type": "string"
						}
					],
					"name": "registerProposals",
					"outputs": [],
					"payable": false,
					"stateMutability": "nonpayable",
					"type": "function"
				},
				{
					"constant": false,
					"inputs": [
						{
							"name": "voterAddress",
							"type": "address"
						}
					],
					"name": "registerVoters",
					"outputs": [],
					"payable": false,
					"stateMutability": "nonpayable",
					"type": "function"
				},
				{
					"constant": true,
					"inputs": [],
					"name": "admin",
					"outputs": [
						{
							"name": "",
							"type": "address"
						}
					],
					"payable": false,
					"stateMutability": "view",
					"type": "function"
				},
				{
					"inputs": [],
					"payable": false,
					"stateMutability": "nonpayable",
					"type": "constructor"
				}
			],
			"devdoc": {
				"methods": {}
			},
			"evm": {
				"assembly": "    /* \"project_vote/vote.sol\":33:4371  contract Vote {... */\n  mstore(0x40, 0x80)\n    /* \"project_vote/vote.sol\":721:825  constructor() public {... */\n  callvalue\n    /* \"--CODEGEN--\":8:17   */\n  dup1\n    /* \"--CODEGEN--\":5:7   */\n  iszero\n  tag_1\n  jumpi\n    /* \"--CODEGEN--\":30:31   */\n  0x0\n    /* \"--CODEGEN--\":27:28   */\n  dup1\n    /* \"--CODEGEN--\":20:32   */\n  revert\n    /* \"--CODEGEN--\":5:7   */\ntag_1:\n    /* \"project_vote/vote.sol\":721:825  constructor() public {... */\n  pop\n    /* \"project_vote/vote.sol\":760:770  msg.sender */\n  caller\n    /* \"project_vote/vote.sol\":752:757  admin */\n  0x0\n  dup1\n    /* \"project_vote/vote.sol\":752:770  admin = msg.sender */\n  0x100\n  exp\n  dup2\n  sload\n  dup2\n  0xffffffffffffffffffffffffffffffffffffffff\n  mul\n  not\n  and\n  swap1\n  dup4\n  0xffffffffffffffffffffffffffffffffffffffff\n  and\n  mul\n  or\n  swap1\n  sstore\n  pop\n    /* \"project_vote/vote.sol\":795:818  State.VoterRegistration */\n  0x0\n    /* \"project_vote/vote.sol\":780:792  currentState */\n  dup1\n  0x14\n    /* \"project_vote/vote.sol\":780:818  currentState = State.VoterRegistration */\n  0x100\n  exp\n  dup2\n  sload\n  dup2\n  0xff\n  mul\n  not\n  and\n  swap1\n  dup4\n  0x5\n  dup2\n  gt\n  iszero\n  tag_4\n  jumpi\n  invalid\ntag_4:\n  mul\n  or\n  swap1\n  sstore\n  pop\n    /* \"project_vote/vote.sol\":33:4371  contract Vote {... */\n  dataSize(sub_0)\n  dup1\n  dataOffset(sub_0)\n  0x0\n  codecopy\n  0x0\n  return\nstop\n\nsub_0: assembly {\n        /* \"project_vote/vote.sol\":33:4371  contract Vote {... */\n      mstore(0x40, 0x80)\n      jumpi(tag_1, lt(calldatasize, 0x4))\n      calldataload(0x0)\n      0x100000000000000000000000000000000000000000000000000000000\n      swap1\n      div\n      0xffffffff\n      and\n      dup1\n      0x121b93f\n      eq\n      tag_2\n      jumpi\n      dup1\n      0x13cf08b\n      eq\n      tag_3\n      jumpi\n      dup1\n      0xc3f6acf\n      eq\n      tag_4\n      jumpi\n      dup1\n      0x1a6cd2fd\n      eq\n      tag_5\n      jumpi\n      dup1\n      0x280d0e73\n      eq\n      tag_6\n      jumpi\n      dup1\n      0x6ca4f20f\n      eq\n      tag_7\n      jumpi\n      dup1\n      0xa3ec138d\n      eq\n      tag_8\n      jumpi\n      dup1\n      0xb9223946\n      eq\n      tag_9\n      jumpi\n      dup1\n      0xc0828a8e\n      eq\n      tag_10\n      jumpi\n      dup1\n      0xe25cd83f\n      eq\n      tag_11\n      jumpi\n      dup1\n      0xe2dd58c6\n      eq\n      tag_12\n      jumpi\n      dup1\n      0xed8a1608\n      eq\n      tag_13\n      jumpi\n      dup1\n      0xf851a440\n      eq\n      tag_14\n      jumpi\n    tag_1:\n      0x0\n      dup1\n      revert\n        /* \"project_vote/vote.sol\":3456:3767  function vote(uint proposalID) public onlyRegisteredVoters duringVoteSubmission {... */\n    tag_2:\n      callvalue\n        /* \"--CODEGEN--\":8:17   */\n      dup1\n        /* \"--CODEGEN--\":5:7   */\n      iszero\n      tag_15\n      jumpi\n        /* \"--CODEGEN--\":30:31   */\n      0x0\n        /* \"--CODEGEN--\":27:28   */\n      dup1\n        /* \"--CODEGEN--\":20:32   */\n      revert\n        /* \"--CODEGEN--\":5:7   */\n    tag_15:\n        /* \"project_vote/vote.sol\":3456:3767  function vote(uint proposalID) public onlyRegisteredVoters duringVoteSubmission {... */\n      pop\n      tag_16\n      0x4\n      dup1\n      calldatasize\n      sub\n      dup2\n      add\n      swap1\n      dup1\n      dup1\n      calldataload\n      swap1\n      0x20\n      add\n      swap1\n      swap3\n      swap2\n      swap1\n      pop\n      pop\n      pop\n      jump(tag_17)\n    tag_16:\n      stop\n        /* \"project_vote/vote.sol\":613:640  Proposal[] public proposals */\n    tag_3:\n      callvalue\n        /* \"--CODEGEN--\":8:17   */\n      dup1\n        /* \"--CODEGEN--\":5:7   */\n      iszero\n      tag_18\n      jumpi\n        /* \"--CODEGEN--\":30:31   */\n      0x0\n        /* \"--CODEGEN--\":27:28   */\n      dup1\n        /* \"--CODEGEN--\":20:32   */\n      revert\n        /* \"--CODEGEN--\":5:7   */\n    tag_18:\n        /* \"project_vote/vote.sol\":613:640  Proposal[] public proposals */\n      pop\n      tag_19\n      0x4\n      dup1\n      calldatasize\n      sub\n      dup2\n      add\n      swap1\n      dup1\n      dup1\n      calldataload\n      swap1\n      0x20\n      add\n      swap1\n      swap3\n      swap2\n      swap1\n      pop\n      pop\n      pop\n      jump(tag_20)\n    tag_19:\n      mload(0x40)\n      dup1\n      dup1\n      0x20\n      add\n      dup4\n      dup2\n      mstore\n      0x20\n      add\n      dup3\n      dup2\n      sub\n      dup3\n      mstore\n      dup5\n      dup2\n      dup2\n      mload\n      dup2\n      mstore\n      0x20\n      add\n      swap2\n      pop\n      dup1\n      mload\n      swap1\n      0x20\n      add\n      swap1\n      dup1\n      dup4\n      dup4\n        /* \"--CODEGEN--\":23:24   */\n      0x0\n        /* \"--CODEGEN--\":8:108   */\n    tag_21:\n        /* \"--CODEGEN--\":33:36   */\n      dup4\n        /* \"--CODEGEN--\":30:31   */\n      dup2\n        /* \"--CODEGEN--\":27:37   */\n      lt\n        /* \"--CODEGEN--\":8:108   */\n      iszero\n      tag_22\n      jumpi\n        /* \"--CODEGEN--\":99:100   */\n      dup1\n        /* \"--CODEGEN--\":94:97   */\n      dup3\n        /* \"--CODEGEN--\":90:101   */\n      add\n        /* \"--CODEGEN--\":84:102   */\n      mload\n        /* \"--CODEGEN--\":80:81   */\n      dup2\n        /* \"--CODEGEN--\":75:78   */\n      dup5\n        /* \"--CODEGEN--\":71:82   */\n      add\n        /* \"--CODEGEN--\":64:103   */\n      mstore\n        /* \"--CODEGEN--\":52:54   */\n      0x20\n        /* \"--CODEGEN--\":49:50   */\n      dup2\n        /* \"--CODEGEN--\":45:55   */\n      add\n        /* \"--CODEGEN--\":40:55   */\n      swap1\n      pop\n        /* \"--CODEGEN--\":8:108   */\n      jump(tag_21)\n    tag_22:\n        /* \"--CODEGEN--\":12:26   */\n      pop\n        /* \"project_vote/vote.sol\":613:640  Proposal[] public proposals */\n      pop\n      pop\n      pop\n      swap1\n      pop\n      swap1\n      dup2\n      add\n      swap1\n      0x1f\n      and\n      dup1\n      iszero\n      tag_24\n      jumpi\n      dup1\n      dup3\n      sub\n      dup1\n      mload\n      0x1\n      dup4\n      0x20\n      sub\n      0x100\n      exp\n      sub\n      not\n      and\n      dup2\n      mstore\n      0x20\n      add\n      swap2\n      pop\n    tag_24:\n      pop\n      swap4\n      pop\n      pop\n      pop\n      pop\n      mload(0x40)\n      dup1\n      swap2\n      sub\n      swap1\n      return\n        /* \"project_vote/vote.sol\":536:561  State public currentState */\n    tag_4:\n      callvalue\n        /* \"--CODEGEN--\":8:17   */\n      dup1\n        /* \"--CODEGEN--\":5:7   */\n      iszero\n      tag_25\n      jumpi\n        /* \"--CODEGEN--\":30:31   */\n      0x0\n        /* \"--CODEGEN--\":27:28   */\n      dup1\n        /* \"--CODEGEN--\":20:32   */\n      revert\n        /* \"--CODEGEN--\":5:7   */\n    tag_25:\n        /* \"project_vote/vote.sol\":536:561  State public currentState */\n      pop\n      tag_26\n      jump(tag_27)\n    tag_26:\n      mload(0x40)\n      dup1\n      dup3\n      0x5\n      dup2\n      gt\n      iszero\n      tag_28\n      jumpi\n      invalid\n    tag_28:\n      0xff\n      and\n      dup2\n      mstore\n      0x20\n      add\n      swap2\n      pop\n      pop\n      mload(0x40)\n      dup1\n      swap2\n      sub\n      swap1\n      return\n        /* \"project_vote/vote.sol\":3773:4369  function countVote() public onlyAdmin afterVoteSubmission {... */\n    tag_5:\n      callvalue\n        /* \"--CODEGEN--\":8:17   */\n      dup1\n        /* \"--CODEGEN--\":5:7   */\n      iszero\n      tag_29\n      jumpi\n        /* \"--CODEGEN--\":30:31   */\n      0x0\n        /* \"--CODEGEN--\":27:28   */\n      dup1\n        /* \"--CODEGEN--\":20:32   */\n      revert\n        /* \"--CODEGEN--\":5:7   */\n    tag_29:\n        /* \"project_vote/vote.sol\":3773:4369  function countVote() public onlyAdmin afterVoteSubmission {... */\n      pop\n      tag_30\n      jump(tag_31)\n    tag_30:\n      stop\n        /* \"project_vote/vote.sol\":2256:2390  function endProposalSubmission() public onlyAdmin duringProposalSubmission {... */\n    tag_6:\n      callvalue\n        /* \"--CODEGEN--\":8:17   */\n      dup1\n        /* \"--CODEGEN--\":5:7   */\n      iszero\n      tag_32\n      jumpi\n        /* \"--CODEGEN--\":30:31   */\n      0x0\n        /* \"--CODEGEN--\":27:28   */\n      dup1\n        /* \"--CODEGEN--\":20:32   */\n      revert\n        /* \"--CODEGEN--\":5:7   */\n    tag_32:\n        /* \"project_vote/vote.sol\":2256:2390  function endProposalSubmission() public onlyAdmin duringProposalSubmission {... */\n      pop\n      tag_33\n      jump(tag_34)\n    tag_33:\n      stop\n        /* \"project_vote/vote.sol\":2539:2661  function endVoteSubmission() public onlyAdmin duringVoteSubmission {... */\n    tag_7:\n      callvalue\n        /* \"--CODEGEN--\":8:17   */\n      dup1\n        /* \"--CODEGEN--\":5:7   */\n      iszero\n      tag_35\n      jumpi\n        /* \"--CODEGEN--\":30:31   */\n      0x0\n        /* \"--CODEGEN--\":27:28   */\n      dup1\n        /* \"--CODEGEN--\":20:32   */\n      revert\n        /* \"--CODEGEN--\":5:7   */\n    tag_35:\n        /* \"project_vote/vote.sol\":2539:2661  function endVoteSubmission() public onlyAdmin duringVoteSubmission {... */\n      pop\n      tag_36\n      jump(tag_37)\n    tag_36:\n      stop\n        /* \"project_vote/vote.sol\":567:607  mapping (address => Voter) public voters */\n    tag_8:\n      callvalue\n        /* \"--CODEGEN--\":8:17   */\n      dup1\n        /* \"--CODEGEN--\":5:7   */\n      iszero\n      tag_38\n      jumpi\n        /* \"--CODEGEN--\":30:31   */\n      0x0\n        /* \"--CODEGEN--\":27:28   */\n      dup1\n        /* \"--CODEGEN--\":20:32   */\n      revert\n        /* \"--CODEGEN--\":5:7   */\n    tag_38:\n        /* \"project_vote/vote.sol\":567:607  mapping (address => Voter) public voters */\n      pop\n      tag_39\n      0x4\n      dup1\n      calldatasize\n      sub\n      dup2\n      add\n      swap1\n      dup1\n      dup1\n      calldataload\n      0xffffffffffffffffffffffffffffffffffffffff\n      and\n      swap1\n      0x20\n      add\n      swap1\n      swap3\n      swap2\n      swap1\n      pop\n      pop\n      pop\n      jump(tag_40)\n    tag_39:\n      mload(0x40)\n      dup1\n      dup5\n      iszero\n      iszero\n      iszero\n      iszero\n      dup2\n      mstore\n      0x20\n      add\n      dup4\n      iszero\n      iszero\n      iszero\n      iszero\n      dup2\n      mstore\n      0x20\n      add\n      dup3\n      dup2\n      mstore\n      0x20\n      add\n      swap4\n      pop\n      pop\n      pop\n      pop\n      mload(0x40)\n      dup1\n      swap2\n      sub\n      swap1\n      return\n        /* \"project_vote/vote.sol\":2671:2772  function endVote() public onlyAdmin afterVoteSubmission {... */\n    tag_9:\n      callvalue\n        /* \"--CODEGEN--\":8:17   */\n      dup1\n        /* \"--CODEGEN--\":5:7   */\n      iszero\n      tag_41\n      jumpi\n        /* \"--CODEGEN--\":30:31   */\n      0x0\n        /* \"--CODEGEN--\":27:28   */\n      dup1\n        /* \"--CODEGEN--\":20:32   */\n      revert\n        /* \"--CODEGEN--\":5:7   */\n    tag_41:\n        /* \"project_vote/vote.sol\":2671:2772  function endVote() public onlyAdmin afterVoteSubmission {... */\n      pop\n      tag_42\n      jump(tag_43)\n    tag_42:\n      stop\n        /* \"project_vote/vote.sol\":2113:2250  function startProposalSubmission() public onlyAdmin duringVoterRegistration {... */\n    tag_10:\n      callvalue\n        /* \"--CODEGEN--\":8:17   */\n      dup1\n        /* \"--CODEGEN--\":5:7   */\n      iszero\n      tag_44\n      jumpi\n        /* \"--CODEGEN--\":30:31   */\n      0x0\n        /* \"--CODEGEN--\":27:28   */\n      dup1\n        /* \"--CODEGEN--\":20:32   */\n      revert\n        /* \"--CODEGEN--\":5:7   */\n    tag_44:\n        /* \"project_vote/vote.sol\":2113:2250  function startProposalSubmission() public onlyAdmin duringVoterRegistration {... */\n      pop\n      tag_45\n      jump(tag_46)\n    tag_45:\n      stop\n        /* \"project_vote/vote.sol\":2400:2529  function startVoteSubmission() public onlyAdmin afterProposalSubmission {... */\n    tag_11:\n      callvalue\n        /* \"--CODEGEN--\":8:17   */\n      dup1\n        /* \"--CODEGEN--\":5:7   */\n      iszero\n      tag_47\n      jumpi\n        /* \"--CODEGEN--\":30:31   */\n      0x0\n        /* \"--CODEGEN--\":27:28   */\n      dup1\n        /* \"--CODEGEN--\":20:32   */\n      revert\n        /* \"--CODEGEN--\":5:7   */\n    tag_47:\n        /* \"project_vote/vote.sol\":2400:2529  function startVoteSubmission() public onlyAdmin afterProposalSubmission {... */\n      pop\n      tag_48\n      jump(tag_49)\n    tag_48:\n      stop\n        /* \"project_vote/vote.sol\":3185:3450  function registerProposals(string memory proposalDescription) public onlyRegisteredVoters duringProposalSubmission {... */\n    tag_12:\n      callvalue\n        /* \"--CODEGEN--\":8:17   */\n      dup1\n        /* \"--CODEGEN--\":5:7   */\n      iszero\n      tag_50\n      jumpi\n        /* \"--CODEGEN--\":30:31   */\n      0x0\n        /* \"--CODEGEN--\":27:28   */\n      dup1\n        /* \"--CODEGEN--\":20:32   */\n      revert\n        /* \"--CODEGEN--\":5:7   */\n    tag_50:\n        /* \"project_vote/vote.sol\":3185:3450  function registerProposals(string memory proposalDescription) public onlyRegisteredVoters duringProposalSubmission {... */\n      pop\n      tag_51\n      0x4\n      dup1\n      calldatasize\n      sub\n      dup2\n      add\n      swap1\n      dup1\n      dup1\n      calldataload\n      swap1\n      0x20\n      add\n      swap1\n      dup3\n      add\n      dup1\n      calldataload\n      swap1\n      0x20\n      add\n      swap1\n      dup1\n      dup1\n      0x1f\n      add\n      0x20\n      dup1\n      swap2\n      div\n      mul\n      0x20\n      add\n      mload(0x40)\n      swap1\n      dup2\n      add\n      0x40\n      mstore\n      dup1\n      swap4\n      swap3\n      swap2\n      swap1\n      dup2\n      dup2\n      mstore\n      0x20\n      add\n      dup4\n      dup4\n      dup1\n      dup3\n      dup5\n      calldatacopy\n      dup3\n      add\n      swap2\n      pop\n      pop\n      pop\n      pop\n      pop\n      pop\n      swap2\n      swap3\n      swap2\n      swap3\n      swap1\n      pop\n      pop\n      pop\n      jump(tag_52)\n    tag_51:\n      stop\n        /* \"project_vote/vote.sol\":2818:3179  function registerVoters(address voterAddress) public onlyAdmin duringVoterRegistration {... */\n    tag_13:\n      callvalue\n        /* \"--CODEGEN--\":8:17   */\n      dup1\n        /* \"--CODEGEN--\":5:7   */\n      iszero\n      tag_53\n      jumpi\n        /* \"--CODEGEN--\":30:31   */\n      0x0\n        /* \"--CODEGEN--\":27:28   */\n      dup1\n        /* \"--CODEGEN--\":20:32   */\n      revert\n        /* \"--CODEGEN--\":5:7   */\n    tag_53:\n        /* \"project_vote/vote.sol\":2818:3179  function registerVoters(address voterAddress) public onlyAdmin duringVoterRegistration {... */\n      pop\n      tag_54\n      0x4\n      dup1\n      calldatasize\n      sub\n      dup2\n      add\n      swap1\n      dup1\n      dup1\n      calldataload\n      0xffffffffffffffffffffffffffffffffffffffff\n      and\n      swap1\n      0x20\n      add\n      swap1\n      swap3\n      swap2\n      swap1\n      pop\n      pop\n      pop\n      jump(tag_55)\n    tag_54:\n      stop\n        /* \"project_vote/vote.sol\":510:530  address public admin */\n    tag_14:\n      callvalue\n        /* \"--CODEGEN--\":8:17   */\n      dup1\n        /* \"--CODEGEN--\":5:7   */\n      iszero\n      tag_56\n      jumpi\n        /* \"--CODEGEN--\":30:31   */\n      0x0\n        /* \"--CODEGEN--\":27:28   */\n      dup1\n        /* \"--CODEGEN--\":20:32   */\n      revert\n        /* \"--CODEGEN--\":5:7   */\n    tag_56:\n        /* \"project_vote/vote.sol\":510:530  address public admin */\n      pop\n      tag_57\n      jump(tag_58)\n    tag_57:\n      mload(0x40)\n      dup1\n      dup3\n      0xffffffffffffffffffffffffffffffffffffffff\n      and\n      0xffffffffffffffffffffffffffffffffffffffff\n      and\n      dup2\n      mstore\n      0x20\n      add\n      swap2\n      pop\n      pop\n      mload(0x40)\n      dup1\n      swap2\n      sub\n      swap1\n      return\n        /* \"project_vote/vote.sol\":3456:3767  function vote(uint proposalID) public onlyRegisteredVoters duringVoteSubmission {... */\n    tag_17:\n        /* \"project_vote/vote.sol\":1028:1034  voters */\n      0x1\n        /* \"project_vote/vote.sol\":1028:1046  voters[msg.sender] */\n      0x0\n        /* \"project_vote/vote.sol\":1035:1045  msg.sender */\n      caller\n        /* \"project_vote/vote.sol\":1028:1046  voters[msg.sender] */\n      0xffffffffffffffffffffffffffffffffffffffff\n      and\n      0xffffffffffffffffffffffffffffffffffffffff\n      and\n      dup2\n      mstore\n      0x20\n      add\n      swap1\n      dup2\n      mstore\n      0x20\n      add\n      0x0\n      keccak256\n        /* \"project_vote/vote.sol\":1028:1059  voters[msg.sender].isRegistered */\n      0x0\n      add\n      0x0\n      swap1\n      sload\n      swap1\n      0x100\n      exp\n      swap1\n      div\n      0xff\n      and\n        /* \"project_vote/vote.sol\":1020:1096  require(voters[msg.sender].isRegistered, \"Called only by registered voters\") */\n      iszero\n      iszero\n      tag_60\n      jumpi\n      mload(0x40)\n      0x8c379a000000000000000000000000000000000000000000000000000000000\n      dup2\n      mstore\n      0x4\n      add\n      dup1\n      dup1\n      0x20\n      add\n      dup3\n      dup2\n      sub\n      dup3\n      mstore\n      0x20\n      dup2\n      mstore\n      0x20\n      add\n      dup1\n      0x43616c6c6564206f6e6c79206279207265676973746572656420766f74657273\n      dup2\n      mstore\n      pop\n      0x20\n      add\n      swap2\n      pop\n      pop\n      mload(0x40)\n      dup1\n      swap2\n      sub\n      swap1\n      revert\n    tag_60:\n        /* \"project_vote/vote.sol\":1720:1745  State.VoteSubmissionStart */\n      0x3\n        /* \"project_vote/vote.sol\":1704:1745  currentState == State.VoteSubmissionStart */\n      0x5\n      dup2\n      gt\n      iszero\n      tag_62\n      jumpi\n      invalid\n    tag_62:\n        /* \"project_vote/vote.sol\":1704:1716  currentState */\n      0x0\n      0x14\n      swap1\n      sload\n      swap1\n      0x100\n      exp\n      swap1\n      div\n      0xff\n      and\n        /* \"project_vote/vote.sol\":1704:1745  currentState == State.VoteSubmissionStart */\n      0x5\n      dup2\n      gt\n      iszero\n      tag_63\n      jumpi\n      invalid\n    tag_63:\n      eq\n        /* \"project_vote/vote.sol\":1696:1783  require(currentState == State.VoteSubmissionStart, \"Call only during vote submission.\") */\n      iszero\n      iszero\n      tag_64\n      jumpi\n      mload(0x40)\n      0x8c379a000000000000000000000000000000000000000000000000000000000\n      dup2\n      mstore\n      0x4\n      add\n      dup1\n      dup1\n      0x20\n      add\n      dup3\n      dup2\n      sub\n      dup3\n      mstore\n      0x21\n      dup2\n      mstore\n      0x20\n      add\n      dup1\n      0x43616c6c206f6e6c7920647572696e6720766f7465207375626d697373696f6e\n      dup2\n      mstore\n      0x20\n      add\n      0x2e00000000000000000000000000000000000000000000000000000000000000\n      dup2\n      mstore\n      pop\n      0x40\n      add\n      swap2\n      pop\n      pop\n      mload(0x40)\n      dup1\n      swap2\n      sub\n      swap1\n      revert\n    tag_64:\n        /* \"project_vote/vote.sol\":3555:3561  voters */\n      0x1\n        /* \"project_vote/vote.sol\":3555:3573  voters[msg.sender] */\n      0x0\n        /* \"project_vote/vote.sol\":3562:3572  msg.sender */\n      caller\n        /* \"project_vote/vote.sol\":3555:3573  voters[msg.sender] */\n      0xffffffffffffffffffffffffffffffffffffffff\n      and\n      0xffffffffffffffffffffffffffffffffffffffff\n      and\n      dup2\n      mstore\n      0x20\n      add\n      swap1\n      dup2\n      mstore\n      0x20\n      add\n      0x0\n      keccak256\n        /* \"project_vote/vote.sol\":3555:3582  voters[msg.sender].hasVoted */\n      0x0\n      add\n      0x1\n      swap1\n      sload\n      swap1\n      0x100\n      exp\n      swap1\n      div\n      0xff\n      and\n        /* \"project_vote/vote.sol\":3554:3582  !voters[msg.sender].hasVoted */\n      iszero\n        /* \"project_vote/vote.sol\":3546:3612  require(!voters[msg.sender].hasVoted, \"Caller has already voted.\") */\n      iszero\n      iszero\n      tag_66\n      jumpi\n      mload(0x40)\n      0x8c379a000000000000000000000000000000000000000000000000000000000\n      dup2\n      mstore\n      0x4\n      add\n      dup1\n      dup1\n      0x20\n      add\n      dup3\n      dup2\n      sub\n      dup3\n      mstore\n      0x19\n      dup2\n      mstore\n      0x20\n      add\n      dup1\n      0x43616c6c65722068617320616c726561647920766f7465642e00000000000000\n      dup2\n      mstore\n      pop\n      0x20\n      add\n      swap2\n      pop\n      pop\n      mload(0x40)\n      dup1\n      swap2\n      sub\n      swap1\n      revert\n    tag_66:\n        /* \"project_vote/vote.sol\":3653:3657  true */\n      0x1\n        /* \"project_vote/vote.sol\":3623:3629  voters */\n      dup1\n        /* \"project_vote/vote.sol\":3623:3641  voters[msg.sender] */\n      0x0\n        /* \"project_vote/vote.sol\":3630:3640  msg.sender */\n      caller\n        /* \"project_vote/vote.sol\":3623:3641  voters[msg.sender] */\n      0xffffffffffffffffffffffffffffffffffffffff\n      and\n      0xffffffffffffffffffffffffffffffffffffffff\n      and\n      dup2\n      mstore\n      0x20\n      add\n      swap1\n      dup2\n      mstore\n      0x20\n      add\n      0x0\n      keccak256\n        /* \"project_vote/vote.sol\":3623:3650  voters[msg.sender].hasVoted */\n      0x0\n      add\n      0x1\n        /* \"project_vote/vote.sol\":3623:3657  voters[msg.sender].hasVoted = true */\n      0x100\n      exp\n      dup2\n      sload\n      dup2\n      0xff\n      mul\n      not\n      and\n      swap1\n      dup4\n      iszero\n      iszero\n      mul\n      or\n      swap1\n      sstore\n      pop\n        /* \"project_vote/vote.sol\":3704:3714  proposalID */\n      dup1\n        /* \"project_vote/vote.sol\":3667:3673  voters */\n      0x1\n        /* \"project_vote/vote.sol\":3667:3685  voters[msg.sender] */\n      0x0\n        /* \"project_vote/vote.sol\":3674:3684  msg.sender */\n      caller\n        /* \"project_vote/vote.sol\":3667:3685  voters[msg.sender] */\n      0xffffffffffffffffffffffffffffffffffffffff\n      and\n      0xffffffffffffffffffffffffffffffffffffffff\n      and\n      dup2\n      mstore\n      0x20\n      add\n      swap1\n      dup2\n      mstore\n      0x20\n      add\n      0x0\n      keccak256\n        /* \"project_vote/vote.sol\":3667:3701  voters[msg.sender].votedProposalID */\n      0x1\n      add\n        /* \"project_vote/vote.sol\":3667:3714  voters[msg.sender].votedProposalID = proposalID */\n      dup2\n      swap1\n      sstore\n      pop\n        /* \"project_vote/vote.sol\":3759:3760  1 */\n      0x1\n        /* \"project_vote/vote.sol\":3724:3733  proposals */\n      0x2\n        /* \"project_vote/vote.sol\":3734:3744  proposalID */\n      dup3\n        /* \"project_vote/vote.sol\":3724:3745  proposals[proposalID] */\n      dup2\n      sload\n      dup2\n      lt\n      iszero\n      iszero\n      tag_67\n      jumpi\n      invalid\n    tag_67:\n      swap1\n      0x0\n      mstore\n      keccak256(0x0, 0x20)\n      swap1\n      0x2\n      mul\n      add\n        /* \"project_vote/vote.sol\":3724:3755  proposals[proposalID].voteCount */\n      0x1\n      add\n      0x0\n        /* \"project_vote/vote.sol\":3724:3760  proposals[proposalID].voteCount += 1 */\n      dup3\n      dup3\n      sload\n      add\n      swap3\n      pop\n      pop\n      dup2\n      swap1\n      sstore\n      pop\n        /* \"project_vote/vote.sol\":3456:3767  function vote(uint proposalID) public onlyRegisteredVoters duringVoteSubmission {... */\n      pop\n      jump\t// out\n        /* \"project_vote/vote.sol\":613:640  Proposal[] public proposals */\n    tag_20:\n      0x2\n      dup2\n      dup2\n      sload\n      dup2\n      lt\n      iszero\n      iszero\n      tag_69\n      jumpi\n      invalid\n    tag_69:\n      swap1\n      0x0\n      mstore\n      keccak256(0x0, 0x20)\n      swap1\n      0x2\n      mul\n      add\n      0x0\n      swap2\n      pop\n      swap1\n      pop\n      dup1\n      0x0\n      add\n      dup1\n      sload\n      0x1\n      dup2\n      0x1\n      and\n      iszero\n      0x100\n      mul\n      sub\n      and\n      0x2\n      swap1\n      div\n      dup1\n      0x1f\n      add\n      0x20\n      dup1\n      swap2\n      div\n      mul\n      0x20\n      add\n      mload(0x40)\n      swap1\n      dup2\n      add\n      0x40\n      mstore\n      dup1\n      swap3\n      swap2\n      swap1\n      dup2\n      dup2\n      mstore\n      0x20\n      add\n      dup3\n      dup1\n      sload\n      0x1\n      dup2\n      0x1\n      and\n      iszero\n      0x100\n      mul\n      sub\n      and\n      0x2\n      swap1\n      div\n      dup1\n      iszero\n      tag_71\n      jumpi\n      dup1\n      0x1f\n      lt\n      tag_72\n      jumpi\n      0x100\n      dup1\n      dup4\n      sload\n      div\n      mul\n      dup4\n      mstore\n      swap2\n      0x20\n      add\n      swap2\n      jump(tag_71)\n    tag_72:\n      dup3\n      add\n      swap2\n      swap1\n      0x0\n      mstore\n      keccak256(0x0, 0x20)\n      swap1\n    tag_73:\n      dup2\n      sload\n      dup2\n      mstore\n      swap1\n      0x1\n      add\n      swap1\n      0x20\n      add\n      dup1\n      dup4\n      gt\n      tag_73\n      jumpi\n      dup3\n      swap1\n      sub\n      0x1f\n      and\n      dup3\n      add\n      swap2\n    tag_71:\n      pop\n      pop\n      pop\n      pop\n      pop\n      swap1\n      dup1\n      0x1\n      add\n      sload\n      swap1\n      pop\n      dup3\n      jump\t// out\n        /* \"project_vote/vote.sol\":536:561  State public currentState */\n    tag_27:\n      0x0\n      0x14\n      swap1\n      sload\n      swap1\n      0x100\n      exp\n      swap1\n      div\n      0xff\n      and\n      dup2\n      jump\t// out\n        /* \"project_vote/vote.sol\":3773:4369  function countVote() public onlyAdmin afterVoteSubmission {... */\n    tag_31:\n        /* \"project_vote/vote.sol\":3841:3857  uint _countToWin */\n      0x0\n        /* \"project_vote/vote.sol\":3871:3889  uint _winningIndex */\n      dup1\n        /* \"project_vote/vote.sol\":3903:3937  string _winningProposalDescription */\n      0x0\n        /* \"project_vote/vote.sol\":3953:3959  uint i */\n      dup1\n        /* \"project_vote/vote.sol\":923:928  admin */\n      0x0\n      dup1\n      swap1\n      sload\n      swap1\n      0x100\n      exp\n      swap1\n      div\n      0xffffffffffffffffffffffffffffffffffffffff\n      and\n        /* \"project_vote/vote.sol\":909:928  msg.sender == admin */\n      0xffffffffffffffffffffffffffffffffffffffff\n      and\n        /* \"project_vote/vote.sol\":909:919  msg.sender */\n      caller\n        /* \"project_vote/vote.sol\":909:928  msg.sender == admin */\n      0xffffffffffffffffffffffffffffffffffffffff\n      and\n      eq\n        /* \"project_vote/vote.sol\":901:954  require(msg.sender == admin, \"Called only by admin.\") */\n      iszero\n      iszero\n      tag_75\n      jumpi\n      mload(0x40)\n      0x8c379a000000000000000000000000000000000000000000000000000000000\n      dup2\n      mstore\n      0x4\n      add\n      dup1\n      dup1\n      0x20\n      add\n      dup3\n      dup2\n      sub\n      dup3\n      mstore\n      0x15\n      dup2\n      mstore\n      0x20\n      add\n      dup1\n      0x43616c6c6564206f6e6c792062792061646d696e2e0000000000000000000000\n      dup2\n      mstore\n      pop\n      0x20\n      add\n      swap2\n      pop\n      pop\n      mload(0x40)\n      dup1\n      swap2\n      sub\n      swap1\n      revert\n    tag_75:\n        /* \"project_vote/vote.sol\":1872:1895  State.VoteSubmissionEnd */\n      0x4\n        /* \"project_vote/vote.sol\":1856:1895  currentState == State.VoteSubmissionEnd */\n      0x5\n      dup2\n      gt\n      iszero\n      tag_77\n      jumpi\n      invalid\n    tag_77:\n        /* \"project_vote/vote.sol\":1856:1868  currentState */\n      0x0\n      0x14\n      swap1\n      sload\n      swap1\n      0x100\n      exp\n      swap1\n      div\n      0xff\n      and\n        /* \"project_vote/vote.sol\":1856:1895  currentState == State.VoteSubmissionEnd */\n      0x5\n      dup2\n      gt\n      iszero\n      tag_78\n      jumpi\n      invalid\n    tag_78:\n      eq\n        /* \"project_vote/vote.sol\":1848:1932  require(currentState == State.VoteSubmissionEnd, \"Call only after vote submission.\") */\n      iszero\n      iszero\n      tag_79\n      jumpi\n      mload(0x40)\n      0x8c379a000000000000000000000000000000000000000000000000000000000\n      dup2\n      mstore\n      0x4\n      add\n      dup1\n      dup1\n      0x20\n      add\n      dup3\n      dup2\n      sub\n      dup3\n      mstore\n      0x20\n      dup2\n      mstore\n      0x20\n      add\n      dup1\n      0x43616c6c206f6e6c7920616674657220766f7465207375626d697373696f6e2e\n      dup2\n      mstore\n      pop\n      0x20\n      add\n      swap2\n      pop\n      pop\n      mload(0x40)\n      dup1\n      swap2\n      sub\n      swap1\n      revert\n    tag_79:\n        /* \"project_vote/vote.sol\":3860:3861  0 */\n      0x0\n        /* \"project_vote/vote.sol\":3841:3861  uint _countToWin = 0 */\n      swap4\n      pop\n        /* \"project_vote/vote.sol\":3892:3893  0 */\n      0x0\n        /* \"project_vote/vote.sol\":3871:3893  uint _winningIndex = 0 */\n      swap3\n      pop\n        /* \"project_vote/vote.sol\":3962:3963  0 */\n      0x0\n        /* \"project_vote/vote.sol\":3953:3963  uint i = 0 */\n      swap1\n      pop\n        /* \"project_vote/vote.sol\":3948:4234  for (uint i = 0; i < proposals.length; i++) {... */\n    tag_81:\n        /* \"project_vote/vote.sol\":3969:3978  proposals */\n      0x2\n        /* \"project_vote/vote.sol\":3969:3985  proposals.length */\n      dup1\n      sload\n      swap1\n      pop\n        /* \"project_vote/vote.sol\":3965:3966  i */\n      dup2\n        /* \"project_vote/vote.sol\":3965:3985  i < proposals.length */\n      lt\n        /* \"project_vote/vote.sol\":3948:4234  for (uint i = 0; i < proposals.length; i++) {... */\n      iszero\n      tag_82\n      jumpi\n        /* \"project_vote/vote.sol\":4035:4046  _countToWin */\n      dup4\n        /* \"project_vote/vote.sol\":4010:4019  proposals */\n      0x2\n        /* \"project_vote/vote.sol\":4020:4021  i */\n      dup3\n        /* \"project_vote/vote.sol\":4010:4022  proposals[i] */\n      dup2\n      sload\n      dup2\n      lt\n      iszero\n      iszero\n      tag_84\n      jumpi\n      invalid\n    tag_84:\n      swap1\n      0x0\n      mstore\n      keccak256(0x0, 0x20)\n      swap1\n      0x2\n      mul\n      add\n        /* \"project_vote/vote.sol\":4010:4032  proposals[i].voteCount */\n      0x1\n      add\n      sload\n        /* \"project_vote/vote.sol\":4010:4046  proposals[i].voteCount > _countToWin */\n      gt\n        /* \"project_vote/vote.sol\":4006:4224  if (proposals[i].voteCount > _countToWin) {... */\n      iszero\n      tag_86\n      jumpi\n        /* \"project_vote/vote.sol\":4080:4089  proposals */\n      0x2\n        /* \"project_vote/vote.sol\":4090:4091  i */\n      dup2\n        /* \"project_vote/vote.sol\":4080:4092  proposals[i] */\n      dup2\n      sload\n      dup2\n      lt\n      iszero\n      iszero\n      tag_87\n      jumpi\n      invalid\n    tag_87:\n      swap1\n      0x0\n      mstore\n      keccak256(0x0, 0x20)\n      swap1\n      0x2\n      mul\n      add\n        /* \"project_vote/vote.sol\":4080:4102  proposals[i].voteCount */\n      0x1\n      add\n      sload\n        /* \"project_vote/vote.sol\":4066:4102  _countToWin = proposals[i].voteCount */\n      swap4\n      pop\n        /* \"project_vote/vote.sol\":4136:4137  i */\n      dup1\n        /* \"project_vote/vote.sol\":4120:4137  _winningIndex = i */\n      swap3\n      pop\n        /* \"project_vote/vote.sol\":4185:4194  proposals */\n      0x2\n        /* \"project_vote/vote.sol\":4195:4196  i */\n      dup2\n        /* \"project_vote/vote.sol\":4185:4197  proposals[i] */\n      dup2\n      sload\n      dup2\n      lt\n      iszero\n      iszero\n      tag_89\n      jumpi\n      invalid\n    tag_89:\n      swap1\n      0x0\n      mstore\n      keccak256(0x0, 0x20)\n      swap1\n      0x2\n      mul\n      add\n        /* \"project_vote/vote.sol\":4185:4209  proposals[i].description */\n      0x0\n      add\n        /* \"project_vote/vote.sol\":4155:4209  _winningProposalDescription = proposals[i].description */\n      swap2\n      pop\n        /* \"project_vote/vote.sol\":4006:4224  if (proposals[i].voteCount > _countToWin) {... */\n    tag_86:\n        /* \"project_vote/vote.sol\":3987:3990  i++ */\n      dup1\n      dup1\n      0x1\n      add\n      swap2\n      pop\n      pop\n        /* \"project_vote/vote.sol\":3948:4234  for (uint i = 0; i < proposals.length; i++) {... */\n      jump(tag_81)\n    tag_82:\n        /* \"project_vote/vote.sol\":4264:4277  _winningIndex */\n      dup3\n        /* \"project_vote/vote.sol\":4244:4261  winningProposalID */\n      0x3\n        /* \"project_vote/vote.sol\":4244:4277  winningProposalID = _winningIndex */\n      dup2\n      swap1\n      sstore\n      pop\n        /* \"project_vote/vote.sol\":4316:4343  _winningProposalDescription */\n      dup2\n        /* \"project_vote/vote.sol\":4287:4313  winningProposalDescription */\n      0x4\n        /* \"project_vote/vote.sol\":4287:4343  winningProposalDescription = _winningProposalDescription */\n      swap1\n      dup1\n      sload\n      0x1\n      dup2\n      0x1\n      and\n      iszero\n      0x100\n      mul\n      sub\n      and\n      0x2\n      swap1\n      div\n      tag_91\n      swap3\n      swap2\n      swap1\n      jump\t// in(tag_92)\n    tag_91:\n      pop\n        /* \"project_vote/vote.sol\":4353:4362  endVote() */\n      tag_93\n        /* \"project_vote/vote.sol\":4353:4360  endVote */\n      tag_43\n        /* \"project_vote/vote.sol\":4353:4362  endVote() */\n      jump\t// in\n    tag_93:\n        /* \"project_vote/vote.sol\":3773:4369  function countVote() public onlyAdmin afterVoteSubmission {... */\n      pop\n      pop\n      pop\n      pop\n      jump\t// out\n        /* \"project_vote/vote.sol\":2256:2390  function endProposalSubmission() public onlyAdmin duringProposalSubmission {... */\n    tag_34:\n        /* \"project_vote/vote.sol\":923:928  admin */\n      0x0\n      dup1\n      swap1\n      sload\n      swap1\n      0x100\n      exp\n      swap1\n      div\n      0xffffffffffffffffffffffffffffffffffffffff\n      and\n        /* \"project_vote/vote.sol\":909:928  msg.sender == admin */\n      0xffffffffffffffffffffffffffffffffffffffff\n      and\n        /* \"project_vote/vote.sol\":909:919  msg.sender */\n      caller\n        /* \"project_vote/vote.sol\":909:928  msg.sender == admin */\n      0xffffffffffffffffffffffffffffffffffffffff\n      and\n      eq\n        /* \"project_vote/vote.sol\":901:954  require(msg.sender == admin, \"Called only by admin.\") */\n      iszero\n      iszero\n      tag_95\n      jumpi\n      mload(0x40)\n      0x8c379a000000000000000000000000000000000000000000000000000000000\n      dup2\n      mstore\n      0x4\n      add\n      dup1\n      dup1\n      0x20\n      add\n      dup3\n      dup2\n      sub\n      dup3\n      mstore\n      0x15\n      dup2\n      mstore\n      0x20\n      add\n      dup1\n      0x43616c6c6564206f6e6c792062792061646d696e2e0000000000000000000000\n      dup2\n      mstore\n      pop\n      0x20\n      add\n      swap2\n      pop\n      pop\n      mload(0x40)\n      dup1\n      swap2\n      sub\n      swap1\n      revert\n    tag_95:\n        /* \"project_vote/vote.sol\":1398:1427  State.ProposalSubmissionStart */\n      0x1\n        /* \"project_vote/vote.sol\":1382:1427  currentState == State.ProposalSubmissionStart */\n      0x5\n      dup2\n      gt\n      iszero\n      tag_97\n      jumpi\n      invalid\n    tag_97:\n        /* \"project_vote/vote.sol\":1382:1394  currentState */\n      0x0\n      0x14\n      swap1\n      sload\n      swap1\n      0x100\n      exp\n      swap1\n      div\n      0xff\n      and\n        /* \"project_vote/vote.sol\":1382:1427  currentState == State.ProposalSubmissionStart */\n      0x5\n      dup2\n      gt\n      iszero\n      tag_98\n      jumpi\n      invalid\n    tag_98:\n      eq\n        /* \"project_vote/vote.sol\":1374:1469  require(currentState == State.ProposalSubmissionStart, \"Call only during proposal submission.\") */\n      iszero\n      iszero\n      tag_99\n      jumpi\n      mload(0x40)\n      0x8c379a000000000000000000000000000000000000000000000000000000000\n      dup2\n      mstore\n      0x4\n      add\n      dup1\n      dup1\n      0x20\n      add\n      dup3\n      dup2\n      sub\n      dup3\n      mstore\n      0x25\n      dup2\n      mstore\n      0x20\n      add\n      dup1\n      0x43616c6c206f6e6c7920647572696e672070726f706f73616c207375626d6973\n      dup2\n      mstore\n      0x20\n      add\n      0x73696f6e2e000000000000000000000000000000000000000000000000000000\n      dup2\n      mstore\n      pop\n      0x40\n      add\n      swap2\n      pop\n      pop\n      mload(0x40)\n      dup1\n      swap2\n      sub\n      swap1\n      revert\n    tag_99:\n        /* \"project_vote/vote.sol\":2356:2383  State.ProposalSubmissionEnd */\n      0x2\n        /* \"project_vote/vote.sol\":2341:2353  currentState */\n      0x0\n      0x14\n        /* \"project_vote/vote.sol\":2341:2383  currentState = State.ProposalSubmissionEnd */\n      0x100\n      exp\n      dup2\n      sload\n      dup2\n      0xff\n      mul\n      not\n      and\n      swap1\n      dup4\n      0x5\n      dup2\n      gt\n      iszero\n      tag_101\n      jumpi\n      invalid\n    tag_101:\n      mul\n      or\n      swap1\n      sstore\n      pop\n        /* \"project_vote/vote.sol\":2256:2390  function endProposalSubmission() public onlyAdmin duringProposalSubmission {... */\n      jump\t// out\n        /* \"project_vote/vote.sol\":2539:2661  function endVoteSubmission() public onlyAdmin duringVoteSubmission {... */\n    tag_37:\n        /* \"project_vote/vote.sol\":923:928  admin */\n      0x0\n      dup1\n      swap1\n      sload\n      swap1\n      0x100\n      exp\n      swap1\n      div\n      0xffffffffffffffffffffffffffffffffffffffff\n      and\n        /* \"project_vote/vote.sol\":909:928  msg.sender == admin */\n      0xffffffffffffffffffffffffffffffffffffffff\n      and\n        /* \"project_vote/vote.sol\":909:919  msg.sender */\n      caller\n        /* \"project_vote/vote.sol\":909:928  msg.sender == admin */\n      0xffffffffffffffffffffffffffffffffffffffff\n      and\n      eq\n        /* \"project_vote/vote.sol\":901:954  require(msg.sender == admin, \"Called only by admin.\") */\n      iszero\n      iszero\n      tag_103\n      jumpi\n      mload(0x40)\n      0x8c379a000000000000000000000000000000000000000000000000000000000\n      dup2\n      mstore\n      0x4\n      add\n      dup1\n      dup1\n      0x20\n      add\n      dup3\n      dup2\n      sub\n      dup3\n      mstore\n      0x15\n      dup2\n      mstore\n      0x20\n      add\n      dup1\n      0x43616c6c6564206f6e6c792062792061646d696e2e0000000000000000000000\n      dup2\n      mstore\n      pop\n      0x20\n      add\n      swap2\n      pop\n      pop\n      mload(0x40)\n      dup1\n      swap2\n      sub\n      swap1\n      revert\n    tag_103:\n        /* \"project_vote/vote.sol\":1720:1745  State.VoteSubmissionStart */\n      0x3\n        /* \"project_vote/vote.sol\":1704:1745  currentState == State.VoteSubmissionStart */\n      0x5\n      dup2\n      gt\n      iszero\n      tag_105\n      jumpi\n      invalid\n    tag_105:\n        /* \"project_vote/vote.sol\":1704:1716  currentState */\n      0x0\n      0x14\n      swap1\n      sload\n      swap1\n      0x100\n      exp\n      swap1\n      div\n      0xff\n      and\n        /* \"project_vote/vote.sol\":1704:1745  currentState == State.VoteSubmissionStart */\n      0x5\n      dup2\n      gt\n      iszero\n      tag_106\n      jumpi\n      invalid\n    tag_106:\n      eq\n        /* \"project_vote/vote.sol\":1696:1783  require(currentState == State.VoteSubmissionStart, \"Call only during vote submission.\") */\n      iszero\n      iszero\n      tag_107\n      jumpi\n      mload(0x40)\n      0x8c379a000000000000000000000000000000000000000000000000000000000\n      dup2\n      mstore\n      0x4\n      add\n      dup1\n      dup1\n      0x20\n      add\n      dup3\n      dup2\n      sub\n      dup3\n      mstore\n      0x21\n      dup2\n      mstore\n      0x20\n      add\n      dup1\n      0x43616c6c206f6e6c7920647572696e6720766f7465207375626d697373696f6e\n      dup2\n      mstore\n      0x20\n      add\n      0x2e00000000000000000000000000000000000000000000000000000000000000\n      dup2\n      mstore\n      pop\n      0x40\n      add\n      swap2\n      pop\n      pop\n      mload(0x40)\n      dup1\n      swap2\n      sub\n      swap1\n      revert\n    tag_107:\n        /* \"project_vote/vote.sol\":2631:2654  State.VoteSubmissionEnd */\n      0x4\n        /* \"project_vote/vote.sol\":2616:2628  currentState */\n      0x0\n      0x14\n        /* \"project_vote/vote.sol\":2616:2654  currentState = State.VoteSubmissionEnd */\n      0x100\n      exp\n      dup2\n      sload\n      dup2\n      0xff\n      mul\n      not\n      and\n      swap1\n      dup4\n      0x5\n      dup2\n      gt\n      iszero\n      tag_109\n      jumpi\n      invalid\n    tag_109:\n      mul\n      or\n      swap1\n      sstore\n      pop\n        /* \"project_vote/vote.sol\":2539:2661  function endVoteSubmission() public onlyAdmin duringVoteSubmission {... */\n      jump\t// out\n        /* \"project_vote/vote.sol\":567:607  mapping (address => Voter) public voters */\n    tag_40:\n      mstore(0x20, 0x1)\n      dup1\n      0x0\n      mstore\n      keccak256(0x0, 0x40)\n      0x0\n      swap2\n      pop\n      swap1\n      pop\n      dup1\n      0x0\n      add\n      0x0\n      swap1\n      sload\n      swap1\n      0x100\n      exp\n      swap1\n      div\n      0xff\n      and\n      swap1\n      dup1\n      0x0\n      add\n      0x1\n      swap1\n      sload\n      swap1\n      0x100\n      exp\n      swap1\n      div\n      0xff\n      and\n      swap1\n      dup1\n      0x1\n      add\n      sload\n      swap1\n      pop\n      dup4\n      jump\t// out\n        /* \"project_vote/vote.sol\":2671:2772  function endVote() public onlyAdmin afterVoteSubmission {... */\n    tag_43:\n        /* \"project_vote/vote.sol\":923:928  admin */\n      0x0\n      dup1\n      swap1\n      sload\n      swap1\n      0x100\n      exp\n      swap1\n      div\n      0xffffffffffffffffffffffffffffffffffffffff\n      and\n        /* \"project_vote/vote.sol\":909:928  msg.sender == admin */\n      0xffffffffffffffffffffffffffffffffffffffff\n      and\n        /* \"project_vote/vote.sol\":909:919  msg.sender */\n      caller\n        /* \"project_vote/vote.sol\":909:928  msg.sender == admin */\n      0xffffffffffffffffffffffffffffffffffffffff\n      and\n      eq\n        /* \"project_vote/vote.sol\":901:954  require(msg.sender == admin, \"Called only by admin.\") */\n      iszero\n      iszero\n      tag_111\n      jumpi\n      mload(0x40)\n      0x8c379a000000000000000000000000000000000000000000000000000000000\n      dup2\n      mstore\n      0x4\n      add\n      dup1\n      dup1\n      0x20\n      add\n      dup3\n      dup2\n      sub\n      dup3\n      mstore\n      0x15\n      dup2\n      mstore\n      0x20\n      add\n      dup1\n      0x43616c6c6564206f6e6c792062792061646d696e2e0000000000000000000000\n      dup2\n      mstore\n      pop\n      0x20\n      add\n      swap2\n      pop\n      pop\n      mload(0x40)\n      dup1\n      swap2\n      sub\n      swap1\n      revert\n    tag_111:\n        /* \"project_vote/vote.sol\":1872:1895  State.VoteSubmissionEnd */\n      0x4\n        /* \"project_vote/vote.sol\":1856:1895  currentState == State.VoteSubmissionEnd */\n      0x5\n      dup2\n      gt\n      iszero\n      tag_113\n      jumpi\n      invalid\n    tag_113:\n        /* \"project_vote/vote.sol\":1856:1868  currentState */\n      0x0\n      0x14\n      swap1\n      sload\n      swap1\n      0x100\n      exp\n      swap1\n      div\n      0xff\n      and\n        /* \"project_vote/vote.sol\":1856:1895  currentState == State.VoteSubmissionEnd */\n      0x5\n      dup2\n      gt\n      iszero\n      tag_114\n      jumpi\n      invalid\n    tag_114:\n      eq\n        /* \"project_vote/vote.sol\":1848:1932  require(currentState == State.VoteSubmissionEnd, \"Call only after vote submission.\") */\n      iszero\n      iszero\n      tag_115\n      jumpi\n      mload(0x40)\n      0x8c379a000000000000000000000000000000000000000000000000000000000\n      dup2\n      mstore\n      0x4\n      add\n      dup1\n      dup1\n      0x20\n      add\n      dup3\n      dup2\n      sub\n      dup3\n      mstore\n      0x20\n      dup2\n      mstore\n      0x20\n      add\n      dup1\n      0x43616c6c206f6e6c7920616674657220766f7465207375626d697373696f6e2e\n      dup2\n      mstore\n      pop\n      0x20\n      add\n      swap2\n      pop\n      pop\n      mload(0x40)\n      dup1\n      swap2\n      sub\n      swap1\n      revert\n    tag_115:\n        /* \"project_vote/vote.sol\":2752:2765  State.VoteEnd */\n      0x5\n        /* \"project_vote/vote.sol\":2737:2749  currentState */\n      0x0\n      0x14\n        /* \"project_vote/vote.sol\":2737:2765  currentState = State.VoteEnd */\n      0x100\n      exp\n      dup2\n      sload\n      dup2\n      0xff\n      mul\n      not\n      and\n      swap1\n      dup4\n      0x5\n      dup2\n      gt\n      iszero\n      tag_117\n      jumpi\n      invalid\n    tag_117:\n      mul\n      or\n      swap1\n      sstore\n      pop\n        /* \"project_vote/vote.sol\":2671:2772  function endVote() public onlyAdmin afterVoteSubmission {... */\n      jump\t// out\n        /* \"project_vote/vote.sol\":2113:2250  function startProposalSubmission() public onlyAdmin duringVoterRegistration {... */\n    tag_46:\n        /* \"project_vote/vote.sol\":923:928  admin */\n      0x0\n      dup1\n      swap1\n      sload\n      swap1\n      0x100\n      exp\n      swap1\n      div\n      0xffffffffffffffffffffffffffffffffffffffff\n      and\n        /* \"project_vote/vote.sol\":909:928  msg.sender == admin */\n      0xffffffffffffffffffffffffffffffffffffffff\n      and\n        /* \"project_vote/vote.sol\":909:919  msg.sender */\n      caller\n        /* \"project_vote/vote.sol\":909:928  msg.sender == admin */\n      0xffffffffffffffffffffffffffffffffffffffff\n      and\n      eq\n        /* \"project_vote/vote.sol\":901:954  require(msg.sender == admin, \"Called only by admin.\") */\n      iszero\n      iszero\n      tag_119\n      jumpi\n      mload(0x40)\n      0x8c379a000000000000000000000000000000000000000000000000000000000\n      dup2\n      mstore\n      0x4\n      add\n      dup1\n      dup1\n      0x20\n      add\n      dup3\n      dup2\n      sub\n      dup3\n      mstore\n      0x15\n      dup2\n      mstore\n      0x20\n      add\n      dup1\n      0x43616c6c6564206f6e6c792062792061646d696e2e0000000000000000000000\n      dup2\n      mstore\n      pop\n      0x20\n      add\n      swap2\n      pop\n      pop\n      mload(0x40)\n      dup1\n      swap2\n      sub\n      swap1\n      revert\n    tag_119:\n        /* \"project_vote/vote.sol\":1240:1263  State.VoterRegistration */\n      0x0\n        /* \"project_vote/vote.sol\":1224:1263  currentState == State.VoterRegistration */\n      0x5\n      dup2\n      gt\n      iszero\n      tag_121\n      jumpi\n      invalid\n    tag_121:\n        /* \"project_vote/vote.sol\":1224:1236  currentState */\n      0x0\n      0x14\n      swap1\n      sload\n      swap1\n      0x100\n      exp\n      swap1\n      div\n      0xff\n      and\n        /* \"project_vote/vote.sol\":1224:1263  currentState == State.VoterRegistration */\n      0x5\n      dup2\n      gt\n      iszero\n      tag_122\n      jumpi\n      invalid\n    tag_122:\n      eq\n        /* \"project_vote/vote.sol\":1216:1304  require(currentState == State.VoterRegistration, \"Call only during voter registration.\") */\n      iszero\n      iszero\n      tag_123\n      jumpi\n      mload(0x40)\n      0x8c379a000000000000000000000000000000000000000000000000000000000\n      dup2\n      mstore\n      0x4\n      add\n      dup1\n      dup1\n      0x20\n      add\n      dup3\n      dup2\n      sub\n      dup3\n      mstore\n      0x24\n      dup2\n      mstore\n      0x20\n      add\n      dup1\n      0x43616c6c206f6e6c7920647572696e6720766f74657220726567697374726174\n      dup2\n      mstore\n      0x20\n      add\n      0x696f6e2e00000000000000000000000000000000000000000000000000000000\n      dup2\n      mstore\n      pop\n      0x40\n      add\n      swap2\n      pop\n      pop\n      mload(0x40)\n      dup1\n      swap2\n      sub\n      swap1\n      revert\n    tag_123:\n        /* \"project_vote/vote.sol\":2214:2243  State.ProposalSubmissionStart */\n      0x1\n        /* \"project_vote/vote.sol\":2199:2211  currentState */\n      0x0\n      0x14\n        /* \"project_vote/vote.sol\":2199:2243  currentState = State.ProposalSubmissionStart */\n      0x100\n      exp\n      dup2\n      sload\n      dup2\n      0xff\n      mul\n      not\n      and\n      swap1\n      dup4\n      0x5\n      dup2\n      gt\n      iszero\n      tag_125\n      jumpi\n      invalid\n    tag_125:\n      mul\n      or\n      swap1\n      sstore\n      pop\n        /* \"project_vote/vote.sol\":2113:2250  function startProposalSubmission() public onlyAdmin duringVoterRegistration {... */\n      jump\t// out\n        /* \"project_vote/vote.sol\":2400:2529  function startVoteSubmission() public onlyAdmin afterProposalSubmission {... */\n    tag_49:\n        /* \"project_vote/vote.sol\":923:928  admin */\n      0x0\n      dup1\n      swap1\n      sload\n      swap1\n      0x100\n      exp\n      swap1\n      div\n      0xffffffffffffffffffffffffffffffffffffffff\n      and\n        /* \"project_vote/vote.sol\":909:928  msg.sender == admin */\n      0xffffffffffffffffffffffffffffffffffffffff\n      and\n        /* \"project_vote/vote.sol\":909:919  msg.sender */\n      caller\n        /* \"project_vote/vote.sol\":909:928  msg.sender == admin */\n      0xffffffffffffffffffffffffffffffffffffffff\n      and\n      eq\n        /* \"project_vote/vote.sol\":901:954  require(msg.sender == admin, \"Called only by admin.\") */\n      iszero\n      iszero\n      tag_127\n      jumpi\n      mload(0x40)\n      0x8c379a000000000000000000000000000000000000000000000000000000000\n      dup2\n      mstore\n      0x4\n      add\n      dup1\n      dup1\n      0x20\n      add\n      dup3\n      dup2\n      sub\n      dup3\n      mstore\n      0x15\n      dup2\n      mstore\n      0x20\n      add\n      dup1\n      0x43616c6c6564206f6e6c792062792061646d696e2e0000000000000000000000\n      dup2\n      mstore\n      pop\n      0x20\n      add\n      swap2\n      pop\n      pop\n      mload(0x40)\n      dup1\n      swap2\n      sub\n      swap1\n      revert\n    tag_127:\n        /* \"project_vote/vote.sol\":1562:1589  State.ProposalSubmissionEnd */\n      0x2\n        /* \"project_vote/vote.sol\":1546:1589  currentState == State.ProposalSubmissionEnd */\n      0x5\n      dup2\n      gt\n      iszero\n      tag_129\n      jumpi\n      invalid\n    tag_129:\n        /* \"project_vote/vote.sol\":1546:1558  currentState */\n      0x0\n      0x14\n      swap1\n      sload\n      swap1\n      0x100\n      exp\n      swap1\n      div\n      0xff\n      and\n        /* \"project_vote/vote.sol\":1546:1589  currentState == State.ProposalSubmissionEnd */\n      0x5\n      dup2\n      gt\n      iszero\n      tag_130\n      jumpi\n      invalid\n    tag_130:\n      eq\n        /* \"project_vote/vote.sol\":1538:1630  require(currentState == State.ProposalSubmissionEnd, \"Call only after proposal submission.\") */\n      iszero\n      iszero\n      tag_131\n      jumpi\n      mload(0x40)\n      0x8c379a000000000000000000000000000000000000000000000000000000000\n      dup2\n      mstore\n      0x4\n      add\n      dup1\n      dup1\n      0x20\n      add\n      dup3\n      dup2\n      sub\n      dup3\n      mstore\n      0x24\n      dup2\n      mstore\n      0x20\n      add\n      dup1\n      0x43616c6c206f6e6c792061667465722070726f706f73616c207375626d697373\n      dup2\n      mstore\n      0x20\n      add\n      0x696f6e2e00000000000000000000000000000000000000000000000000000000\n      dup2\n      mstore\n      pop\n      0x40\n      add\n      swap2\n      pop\n      pop\n      mload(0x40)\n      dup1\n      swap2\n      sub\n      swap1\n      revert\n    tag_131:\n        /* \"project_vote/vote.sol\":2497:2522  State.VoteSubmissionStart */\n      0x3\n        /* \"project_vote/vote.sol\":2482:2494  currentState */\n      0x0\n      0x14\n        /* \"project_vote/vote.sol\":2482:2522  currentState = State.VoteSubmissionStart */\n      0x100\n      exp\n      dup2\n      sload\n      dup2\n      0xff\n      mul\n      not\n      and\n      swap1\n      dup4\n      0x5\n      dup2\n      gt\n      iszero\n      tag_133\n      jumpi\n      invalid\n    tag_133:\n      mul\n      or\n      swap1\n      sstore\n      pop\n        /* \"project_vote/vote.sol\":2400:2529  function startVoteSubmission() public onlyAdmin afterProposalSubmission {... */\n      jump\t// out\n        /* \"project_vote/vote.sol\":3185:3450  function registerProposals(string memory proposalDescription) public onlyRegisteredVoters duringProposalSubmission {... */\n    tag_52:\n        /* \"project_vote/vote.sol\":1028:1034  voters */\n      0x1\n        /* \"project_vote/vote.sol\":1028:1046  voters[msg.sender] */\n      0x0\n        /* \"project_vote/vote.sol\":1035:1045  msg.sender */\n      caller\n        /* \"project_vote/vote.sol\":1028:1046  voters[msg.sender] */\n      0xffffffffffffffffffffffffffffffffffffffff\n      and\n      0xffffffffffffffffffffffffffffffffffffffff\n      and\n      dup2\n      mstore\n      0x20\n      add\n      swap1\n      dup2\n      mstore\n      0x20\n      add\n      0x0\n      keccak256\n        /* \"project_vote/vote.sol\":1028:1059  voters[msg.sender].isRegistered */\n      0x0\n      add\n      0x0\n      swap1\n      sload\n      swap1\n      0x100\n      exp\n      swap1\n      div\n      0xff\n      and\n        /* \"project_vote/vote.sol\":1020:1096  require(voters[msg.sender].isRegistered, \"Called only by registered voters\") */\n      iszero\n      iszero\n      tag_135\n      jumpi\n      mload(0x40)\n      0x8c379a000000000000000000000000000000000000000000000000000000000\n      dup2\n      mstore\n      0x4\n      add\n      dup1\n      dup1\n      0x20\n      add\n      dup3\n      dup2\n      sub\n      dup3\n      mstore\n      0x20\n      dup2\n      mstore\n      0x20\n      add\n      dup1\n      0x43616c6c6564206f6e6c79206279207265676973746572656420766f74657273\n      dup2\n      mstore\n      pop\n      0x20\n      add\n      swap2\n      pop\n      pop\n      mload(0x40)\n      dup1\n      swap2\n      sub\n      swap1\n      revert\n    tag_135:\n        /* \"project_vote/vote.sol\":1398:1427  State.ProposalSubmissionStart */\n      0x1\n        /* \"project_vote/vote.sol\":1382:1427  currentState == State.ProposalSubmissionStart */\n      0x5\n      dup2\n      gt\n      iszero\n      tag_137\n      jumpi\n      invalid\n    tag_137:\n        /* \"project_vote/vote.sol\":1382:1394  currentState */\n      0x0\n      0x14\n      swap1\n      sload\n      swap1\n      0x100\n      exp\n      swap1\n      div\n      0xff\n      and\n        /* \"project_vote/vote.sol\":1382:1427  currentState == State.ProposalSubmissionStart */\n      0x5\n      dup2\n      gt\n      iszero\n      tag_138\n      jumpi\n      invalid\n    tag_138:\n      eq\n        /* \"project_vote/vote.sol\":1374:1469  require(currentState == State.ProposalSubmissionStart, \"Call only during proposal submission.\") */\n      iszero\n      iszero\n      tag_139\n      jumpi\n      mload(0x40)\n      0x8c379a000000000000000000000000000000000000000000000000000000000\n      dup2\n      mstore\n      0x4\n      add\n      dup1\n      dup1\n      0x20\n      add\n      dup3\n      dup2\n      sub\n      dup3\n      mstore\n      0x25\n      dup2\n      mstore\n      0x20\n      add\n      dup1\n      0x43616c6c206f6e6c7920647572696e672070726f706f73616c207375626d6973\n      dup2\n      mstore\n      0x20\n      add\n      0x73696f6e2e000000000000000000000000000000000000000000000000000000\n      dup2\n      mstore\n      pop\n      0x40\n      add\n      swap2\n      pop\n      pop\n      mload(0x40)\n      dup1\n      swap2\n      sub\n      swap1\n      revert\n    tag_139:\n        /* \"project_vote/vote.sol\":3310:3319  proposals */\n      0x2\n        /* \"project_vote/vote.sol\":3338:3442  Proposal({... */\n      0x40\n      dup1\n      mload\n      swap1\n      dup2\n      add\n      0x40\n      mstore\n      dup1\n        /* \"project_vote/vote.sol\":3378:3397  proposalDescription */\n      dup4\n        /* \"project_vote/vote.sol\":3338:3442  Proposal({... */\n      dup2\n      mstore\n      0x20\n      add\n        /* \"project_vote/vote.sol\":3426:3427  0 */\n      0x0\n        /* \"project_vote/vote.sol\":3338:3442  Proposal({... */\n      dup2\n      mstore\n      pop\n        /* \"project_vote/vote.sol\":3310:3443  proposals.push(... */\n      swap1\n      dup1\n        /* \"--CODEGEN--\":39:40   */\n      0x1\n        /* \"--CODEGEN--\":33:36   */\n      dup2\n        /* \"--CODEGEN--\":27:37   */\n      sload\n        /* \"--CODEGEN--\":23:41   */\n      add\n        /* \"--CODEGEN--\":57:67   */\n      dup1\n        /* \"--CODEGEN--\":52:55   */\n      dup3\n        /* \"--CODEGEN--\":45:68   */\n      sstore\n        /* \"--CODEGEN--\":79:89   */\n      dup1\n        /* \"--CODEGEN--\":72:89   */\n      swap2\n      pop\n        /* \"--CODEGEN--\":0:93   */\n      pop\n        /* \"project_vote/vote.sol\":3310:3443  proposals.push(... */\n      swap1\n      0x1\n      dup3\n      sub\n      swap1\n      0x0\n      mstore\n      keccak256(0x0, 0x20)\n      swap1\n      0x2\n      mul\n      add\n      0x0\n      swap1\n      swap2\n      swap3\n      swap1\n      swap2\n      swap1\n      swap2\n      pop\n      0x0\n      dup3\n      add\n      mload\n      dup2\n      0x0\n      add\n      swap1\n      dup1\n      mload\n      swap1\n      0x20\n      add\n      swap1\n      tag_142\n      swap3\n      swap2\n      swap1\n      jump\t// in(tag_143)\n    tag_142:\n      pop\n      0x20\n      dup3\n      add\n      mload\n      dup2\n      0x1\n      add\n      sstore\n      pop\n      pop\n      pop\n        /* \"project_vote/vote.sol\":3185:3450  function registerProposals(string memory proposalDescription) public onlyRegisteredVoters duringProposalSubmission {... */\n      pop\n      jump\t// out\n        /* \"project_vote/vote.sol\":2818:3179  function registerVoters(address voterAddress) public onlyAdmin duringVoterRegistration {... */\n    tag_55:\n        /* \"project_vote/vote.sol\":923:928  admin */\n      0x0\n      dup1\n      swap1\n      sload\n      swap1\n      0x100\n      exp\n      swap1\n      div\n      0xffffffffffffffffffffffffffffffffffffffff\n      and\n        /* \"project_vote/vote.sol\":909:928  msg.sender == admin */\n      0xffffffffffffffffffffffffffffffffffffffff\n      and\n        /* \"project_vote/vote.sol\":909:919  msg.sender */\n      caller\n        /* \"project_vote/vote.sol\":909:928  msg.sender == admin */\n      0xffffffffffffffffffffffffffffffffffffffff\n      and\n      eq\n        /* \"project_vote/vote.sol\":901:954  require(msg.sender == admin, \"Called only by admin.\") */\n      iszero\n      iszero\n      tag_145\n      jumpi\n      mload(0x40)\n      0x8c379a000000000000000000000000000000000000000000000000000000000\n      dup2\n      mstore\n      0x4\n      add\n      dup1\n      dup1\n      0x20\n      add\n      dup3\n      dup2\n      sub\n      dup3\n      mstore\n      0x15\n      dup2\n      mstore\n      0x20\n      add\n      dup1\n      0x43616c6c6564206f6e6c792062792061646d696e2e0000000000000000000000\n      dup2\n      mstore\n      pop\n      0x20\n      add\n      swap2\n      pop\n      pop\n      mload(0x40)\n      dup1\n      swap2\n      sub\n      swap1\n      revert\n    tag_145:\n        /* \"project_vote/vote.sol\":1240:1263  State.VoterRegistration */\n      0x0\n        /* \"project_vote/vote.sol\":1224:1263  currentState == State.VoterRegistration */\n      0x5\n      dup2\n      gt\n      iszero\n      tag_147\n      jumpi\n      invalid\n    tag_147:\n        /* \"project_vote/vote.sol\":1224:1236  currentState */\n      0x0\n      0x14\n      swap1\n      sload\n      swap1\n      0x100\n      exp\n      swap1\n      div\n      0xff\n      and\n        /* \"project_vote/vote.sol\":1224:1263  currentState == State.VoterRegistration */\n      0x5\n      dup2\n      gt\n      iszero\n      tag_148\n      jumpi\n      invalid\n    tag_148:\n      eq\n        /* \"project_vote/vote.sol\":1216:1304  require(currentState == State.VoterRegistration, \"Call only during voter registration.\") */\n      iszero\n      iszero\n      tag_149\n      jumpi\n      mload(0x40)\n      0x8c379a000000000000000000000000000000000000000000000000000000000\n      dup2\n      mstore\n      0x4\n      add\n      dup1\n      dup1\n      0x20\n      add\n      dup3\n      dup2\n      sub\n      dup3\n      mstore\n      0x24\n      dup2\n      mstore\n      0x20\n      add\n      dup1\n      0x43616c6c206f6e6c7920647572696e6720766f74657220726567697374726174\n      dup2\n      mstore\n      0x20\n      add\n      0x696f6e2e00000000000000000000000000000000000000000000000000000000\n      dup2\n      mstore\n      pop\n      0x40\n      add\n      swap2\n      pop\n      pop\n      mload(0x40)\n      dup1\n      swap2\n      sub\n      swap1\n      revert\n    tag_149:\n        /* \"project_vote/vote.sol\":2925:2931  voters */\n      0x1\n        /* \"project_vote/vote.sol\":2925:2945  voters[voterAddress] */\n      0x0\n        /* \"project_vote/vote.sol\":2932:2944  voterAddress */\n      dup3\n        /* \"project_vote/vote.sol\":2925:2945  voters[voterAddress] */\n      0xffffffffffffffffffffffffffffffffffffffff\n      and\n      0xffffffffffffffffffffffffffffffffffffffff\n      and\n      dup2\n      mstore\n      0x20\n      add\n      swap1\n      dup2\n      mstore\n      0x20\n      add\n      0x0\n      keccak256\n        /* \"project_vote/vote.sol\":2925:2958  voters[voterAddress].isRegistered */\n      0x0\n      add\n      0x0\n      swap1\n      sload\n      swap1\n      0x100\n      exp\n      swap1\n      div\n      0xff\n      and\n        /* \"project_vote/vote.sol\":2924:2958  !voters[voterAddress].isRegistered */\n      iszero\n        /* \"project_vote/vote.sol\":2915:2995  require (!voters[voterAddress].isRegistered, \"The voter is already registered.\") */\n      iszero\n      iszero\n      tag_151\n      jumpi\n      mload(0x40)\n      0x8c379a000000000000000000000000000000000000000000000000000000000\n      dup2\n      mstore\n      0x4\n      add\n      dup1\n      dup1\n      0x20\n      add\n      dup3\n      dup2\n      sub\n      dup3\n      mstore\n      0x20\n      dup2\n      mstore\n      0x20\n      add\n      dup1\n      0x54686520766f74657220697320616c726561647920726567697374657265642e\n      dup2\n      mstore\n      pop\n      0x20\n      add\n      swap2\n      pop\n      pop\n      mload(0x40)\n      dup1\n      swap2\n      sub\n      swap1\n      revert\n    tag_151:\n        /* \"project_vote/vote.sol\":3071:3075  true */\n      0x1\n        /* \"project_vote/vote.sol\":3035:3041  voters */\n      dup1\n        /* \"project_vote/vote.sol\":3035:3055  voters[voterAddress] */\n      0x0\n        /* \"project_vote/vote.sol\":3042:3054  voterAddress */\n      dup4\n        /* \"project_vote/vote.sol\":3035:3055  voters[voterAddress] */\n      0xffffffffffffffffffffffffffffffffffffffff\n      and\n      0xffffffffffffffffffffffffffffffffffffffff\n      and\n      dup2\n      mstore\n      0x20\n      add\n      swap1\n      dup2\n      mstore\n      0x20\n      add\n      0x0\n      keccak256\n        /* \"project_vote/vote.sol\":3035:3068  voters[voterAddress].isRegistered */\n      0x0\n      add\n      0x0\n        /* \"project_vote/vote.sol\":3035:3075  voters[voterAddress].isRegistered = true */\n      0x100\n      exp\n      dup2\n      sload\n      dup2\n      0xff\n      mul\n      not\n      and\n      swap1\n      dup4\n      iszero\n      iszero\n      mul\n      or\n      swap1\n      sstore\n      pop\n        /* \"project_vote/vote.sol\":3117:3122  false */\n      0x0\n        /* \"project_vote/vote.sol\":3085:3091  voters */\n      0x1\n        /* \"project_vote/vote.sol\":3085:3105  voters[voterAddress] */\n      0x0\n        /* \"project_vote/vote.sol\":3092:3104  voterAddress */\n      dup4\n        /* \"project_vote/vote.sol\":3085:3105  voters[voterAddress] */\n      0xffffffffffffffffffffffffffffffffffffffff\n      and\n      0xffffffffffffffffffffffffffffffffffffffff\n      and\n      dup2\n      mstore\n      0x20\n      add\n      swap1\n      dup2\n      mstore\n      0x20\n      add\n      0x0\n      keccak256\n        /* \"project_vote/vote.sol\":3085:3114  voters[voterAddress].hasVoted */\n      0x0\n      add\n      0x1\n        /* \"project_vote/vote.sol\":3085:3122  voters[voterAddress].hasVoted = false */\n      0x100\n      exp\n      dup2\n      sload\n      dup2\n      0xff\n      mul\n      not\n      and\n      swap1\n      dup4\n      iszero\n      iszero\n      mul\n      or\n      swap1\n      sstore\n      pop\n        /* \"project_vote/vote.sol\":3171:3172  0 */\n      0x0\n        /* \"project_vote/vote.sol\":3132:3138  voters */\n      0x1\n        /* \"project_vote/vote.sol\":3132:3152  voters[voterAddress] */\n      0x0\n        /* \"project_vote/vote.sol\":3139:3151  voterAddress */\n      dup4\n        /* \"project_vote/vote.sol\":3132:3152  voters[voterAddress] */\n      0xffffffffffffffffffffffffffffffffffffffff\n      and\n      0xffffffffffffffffffffffffffffffffffffffff\n      and\n      dup2\n      mstore\n      0x20\n      add\n      swap1\n      dup2\n      mstore\n      0x20\n      add\n      0x0\n      keccak256\n        /* \"project_vote/vote.sol\":3132:3168  voters[voterAddress].votedProposalID */\n      0x1\n      add\n        /* \"project_vote/vote.sol\":3132:3172  voters[voterAddress].votedProposalID = 0 */\n      dup2\n      swap1\n      sstore\n      pop\n        /* \"project_vote/vote.sol\":2818:3179  function registerVoters(address voterAddress) public onlyAdmin duringVoterRegistration {... */\n      pop\n      jump\t// out\n        /* \"project_vote/vote.sol\":510:530  address public admin */\n    tag_58:\n      0x0\n      dup1\n      swap1\n      sload\n      swap1\n      0x100\n      exp\n      swap1\n      div\n      0xffffffffffffffffffffffffffffffffffffffff\n      and\n      dup2\n      jump\t// out\n        /* \"project_vote/vote.sol\":33:4371  contract Vote {... */\n    tag_92:\n      dup3\n      dup1\n      sload\n      0x1\n      dup2\n      0x1\n      and\n      iszero\n      0x100\n      mul\n      sub\n      and\n      0x2\n      swap1\n      div\n      swap1\n      0x0\n      mstore\n      keccak256(0x0, 0x20)\n      swap1\n      0x1f\n      add\n      0x20\n      swap1\n      div\n      dup2\n      add\n      swap3\n      dup3\n      0x1f\n      lt\n      tag_153\n      jumpi\n      dup1\n      sload\n      dup6\n      sstore\n      jump(tag_152)\n    tag_153:\n      dup3\n      dup1\n      add\n      0x1\n      add\n      dup6\n      sstore\n      dup3\n      iszero\n      tag_152\n      jumpi\n      0x0\n      mstore\n      keccak256(0x0, 0x20)\n      swap2\n      0x1f\n      add\n      0x20\n      swap1\n      div\n      dup3\n      add\n    tag_154:\n      dup3\n      dup2\n      gt\n      iszero\n      tag_155\n      jumpi\n      dup3\n      sload\n      dup3\n      sstore\n      swap2\n      0x1\n      add\n      swap2\n      swap1\n      0x1\n      add\n      swap1\n      jump(tag_154)\n    tag_155:\n    tag_152:\n      pop\n      swap1\n      pop\n      tag_156\n      swap2\n      swap1\n      jump\t// in(tag_157)\n    tag_156:\n      pop\n      swap1\n      jump\t// out\n    tag_143:\n      dup3\n      dup1\n      sload\n      0x1\n      dup2\n      0x1\n      and\n      iszero\n      0x100\n      mul\n      sub\n      and\n      0x2\n      swap1\n      div\n      swap1\n      0x0\n      mstore\n      keccak256(0x0, 0x20)\n      swap1\n      0x1f\n      add\n      0x20\n      swap1\n      div\n      dup2\n      add\n      swap3\n      dup3\n      0x1f\n      lt\n      tag_159\n      jumpi\n      dup1\n      mload\n      not(0xff)\n      and\n      dup4\n      dup1\n      add\n      or\n      dup6\n      sstore\n      jump(tag_158)\n    tag_159:\n      dup3\n      dup1\n      add\n      0x1\n      add\n      dup6\n      sstore\n      dup3\n      iszero\n      tag_158\n      jumpi\n      swap2\n      dup3\n      add\n    tag_160:\n      dup3\n      dup2\n      gt\n      iszero\n      tag_161\n      jumpi\n      dup3\n      mload\n      dup3\n      sstore\n      swap2\n      0x20\n      add\n      swap2\n      swap1\n      0x1\n      add\n      swap1\n      jump(tag_160)\n    tag_161:\n    tag_158:\n      pop\n      swap1\n      pop\n      tag_162\n      swap2\n      swap1\n      jump\t// in(tag_157)\n    tag_162:\n      pop\n      swap1\n      jump\t// out\n    tag_157:\n      tag_163\n      swap2\n      swap1\n    tag_164:\n      dup1\n      dup3\n      gt\n      iszero\n      tag_165\n      jumpi\n      0x0\n      dup2\n      0x0\n      swap1\n      sstore\n      pop\n      0x1\n      add\n      jump(tag_164)\n    tag_165:\n      pop\n      swap1\n      jump\n    tag_163:\n      swap1\n      jump\t// out\n\n    auxdata: 0xa165627a7a723058208fa9ab7e118d67dc12a87a9351ab82b3267304130da9f662bdb7075694ea6e6d0029\n}\n",
				"bytecode": {
					"linkReferences": {},
					"object": "608060405234801561001057600080fd5b50336000806101000a81548173ffffffffffffffffffffffffffffffffffffffff021916908373ffffffffffffffffffffffffffffffffffffffff16021790555060008060146101000a81548160ff0219169083600581111561006f57fe5b021790555061194a806100836000396000f3006080604052600436106100c5576000357c0100000000000000000000000000000000000000000000000000000000900463ffffffff1680630121b93f146100ca578063013cf08b146100f75780630c3f6acf146101a45780631a6cd2fd146101dd578063280d0e73146101f45780636ca4f20f1461020b578063a3ec138d14610222578063b92239461461028f578063c0828a8e146102a6578063e25cd83f146102bd578063e2dd58c6146102d4578063ed8a16081461033d578063f851a44014610380575b600080fd5b3480156100d657600080fd5b506100f5600480360381019080803590602001909291905050506103d7565b005b34801561010357600080fd5b50610122600480360381019080803590602001909291905050506106f6565b6040518080602001838152602001828103825284818151815260200191508051906020019080838360005b8381101561016857808201518184015260208101905061014d565b50505050905090810190601f1680156101955780820380516001836020036101000a031916815260200191505b50935050505060405180910390f35b3480156101b057600080fd5b506101b96107c1565b604051808260058111156101c957fe5b60ff16815260200191505060405180910390f35b3480156101e957600080fd5b506101f26107d4565b005b34801561020057600080fd5b50610209610a0b565b005b34801561021757600080fd5b50610220610bb8565b005b34801561022e57600080fd5b50610263600480360381019080803573ffffffffffffffffffffffffffffffffffffffff169060200190929190505050610d65565b604051808415151515815260200183151515158152602001828152602001935050505060405180910390f35b34801561029b57600080fd5b506102a4610da9565b005b3480156102b257600080fd5b506102bb610f30565b005b3480156102c957600080fd5b506102d26110dd565b005b3480156102e057600080fd5b5061033b600480360381019080803590602001908201803590602001908080601f016020809104026020016040519081016040528093929190818152602001838380828437820191505050505050919291929050505061128a565b005b34801561034957600080fd5b5061037e600480360381019080803573ffffffffffffffffffffffffffffffffffffffff169060200190929190505050611481565b005b34801561038c57600080fd5b506103956117cd565b604051808273ffffffffffffffffffffffffffffffffffffffff1673ffffffffffffffffffffffffffffffffffffffff16815260200191505060405180910390f35b600160003373ffffffffffffffffffffffffffffffffffffffff1673ffffffffffffffffffffffffffffffffffffffff16815260200190815260200160002060000160009054906101000a900460ff16151561049b576040517f08c379a00000000000000000000000000000000000000000000000000000000081526004018080602001828103825260208152602001807f43616c6c6564206f6e6c79206279207265676973746572656420766f7465727381525060200191505060405180910390fd5b600360058111156104a857fe5b600060149054906101000a900460ff1660058111156104c357fe5b14151561055e576040517f08c379a00000000000000000000000000000000000000000000000000000000081526004018080602001828103825260218152602001807f43616c6c206f6e6c7920647572696e6720766f7465207375626d697373696f6e81526020017f2e0000000000000000000000000000000000000000000000000000000000000081525060400191505060405180910390fd5b600160003373ffffffffffffffffffffffffffffffffffffffff1673ffffffffffffffffffffffffffffffffffffffff16815260200190815260200160002060000160019054906101000a900460ff16151515610623576040517f08c379a00000000000000000000000000000000000000000000000000000000081526004018080602001828103825260198152602001807f43616c6c65722068617320616c726561647920766f7465642e0000000000000081525060200191505060405180910390fd5b60018060003373ffffffffffffffffffffffffffffffffffffffff1673ffffffffffffffffffffffffffffffffffffffff16815260200190815260200160002060000160016101000a81548160ff02191690831515021790555080600160003373ffffffffffffffffffffffffffffffffffffffff1673ffffffffffffffffffffffffffffffffffffffff1681526020019081526020016000206001018190555060016002828154811015156106d557fe5b90600052602060002090600202016001016000828254019250508190555050565b60028181548110151561070557fe5b9060005260206000209060020201600091509050806000018054600181600116156101000203166002900480601f0160208091040260200160405190810160405280929190818152602001828054600181600116156101000203166002900480156107b15780601f10610786576101008083540402835291602001916107b1565b820191906000526020600020905b81548152906001019060200180831161079457829003601f168201915b5050505050908060010154905082565b600060149054906101000a900460ff1681565b6000806000806000809054906101000a900473ffffffffffffffffffffffffffffffffffffffff1673ffffffffffffffffffffffffffffffffffffffff163373ffffffffffffffffffffffffffffffffffffffff1614151561089e576040517f08c379a00000000000000000000000000000000000000000000000000000000081526004018080602001828103825260158152602001807f43616c6c6564206f6e6c792062792061646d696e2e000000000000000000000081525060200191505060405180910390fd5b600460058111156108ab57fe5b600060149054906101000a900460ff1660058111156108c657fe5b14151561093b576040517f08c379a00000000000000000000000000000000000000000000000000000000081526004018080602001828103825260208152602001807f43616c6c206f6e6c7920616674657220766f7465207375626d697373696f6e2e81525060200191505060405180910390fd5b6000935060009250600090505b6002805490508110156109d3578360028281548110151561096557fe5b90600052602060002090600202016001015411156109c65760028181548110151561098c57fe5b90600052602060002090600202016001015493508092506002818154811015156109b257fe5b906000526020600020906002020160000191505b8080600101915050610948565b8260038190555081600490805460018160011615610100020316600290046109fc9291906117f2565b50610a05610da9565b50505050565b6000809054906101000a900473ffffffffffffffffffffffffffffffffffffffff1673ffffffffffffffffffffffffffffffffffffffff163373ffffffffffffffffffffffffffffffffffffffff16141515610acf576040517f08c379a00000000000000000000000000000000000000000000000000000000081526004018080602001828103825260158152602001807f43616c6c6564206f6e6c792062792061646d696e2e000000000000000000000081525060200191505060405180910390fd5b60016005811115610adc57fe5b600060149054906101000a900460ff166005811115610af757fe5b141515610b92576040517f08c379a00000000000000000000000000000000000000000000000000000000081526004018080602001828103825260258152602001807f43616c6c206f6e6c7920647572696e672070726f706f73616c207375626d697381526020017f73696f6e2e00000000000000000000000000000000000000000000000000000081525060400191505060405180910390fd5b6002600060146101000a81548160ff02191690836005811115610bb157fe5b0217905550565b6000809054906101000a900473ffffffffffffffffffffffffffffffffffffffff1673ffffffffffffffffffffffffffffffffffffffff163373ffffffffffffffffffffffffffffffffffffffff16141515610c7c576040517f08c379a00000000000000000000000000000000000000000000000000000000081526004018080602001828103825260158152602001807f43616c6c6564206f6e6c792062792061646d696e2e000000000000000000000081525060200191505060405180910390fd5b60036005811115610c8957fe5b600060149054906101000a900460ff166005811115610ca457fe5b141515610d3f576040517f08c379a00000000000000000000000000000000000000000000000000000000081526004018080602001828103825260218152602001807f43616c6c206f6e6c7920647572696e6720766f7465207375626d697373696f6e81526020017f2e0000000000000000000000000000000000000000000000000000000000000081525060400191505060405180910390fd5b6004600060146101000a81548160ff02191690836005811115610d5e57fe5b0217905550565b60016020528060005260406000206000915090508060000160009054906101000a900460ff16908060000160019054906101000a900460ff16908060010154905083565b6000809054906101000a900473ffffffffffffffffffffffffffffffffffffffff1673ffffffffffffffffffffffffffffffffffffffff163373ffffffffffffffffffffffffffffffffffffffff16141515610e6d576040517f08c379a00000000000000000000000000000000000000000000000000000000081526004018080602001828103825260158152602001807f43616c6c6564206f6e6c792062792061646d696e2e000000000000000000000081525060200191505060405180910390fd5b60046005811115610e7a57fe5b600060149054906101000a900460ff166005811115610e9557fe5b141515610f0a576040517f08c379a00000000000000000000000000000000000000000000000000000000081526004018080602001828103825260208152602001807f43616c6c206f6e6c7920616674657220766f7465207375626d697373696f6e2e81525060200191505060405180910390fd5b6005600060146101000a81548160ff02191690836005811115610f2957fe5b0217905550565b6000809054906101000a900473ffffffffffffffffffffffffffffffffffffffff1673ffffffffffffffffffffffffffffffffffffffff163373ffffffffffffffffffffffffffffffffffffffff16141515610ff4576040517f08c379a00000000000000000000000000000000000000000000000000000000081526004018080602001828103825260158152602001807f43616c6c6564206f6e6c792062792061646d696e2e000000000000000000000081525060200191505060405180910390fd5b6000600581111561100157fe5b600060149054906101000a900460ff16600581111561101c57fe5b1415156110b7576040517f08c379a00000000000000000000000000000000000000000000000000000000081526004018080602001828103825260248152602001807f43616c6c206f6e6c7920647572696e6720766f7465722072656769737472617481526020017f696f6e2e0000000000000000000000000000000000000000000000000000000081525060400191505060405180910390fd5b6001600060146101000a81548160ff021916908360058111156110d657fe5b0217905550565b6000809054906101000a900473ffffffffffffffffffffffffffffffffffffffff1673ffffffffffffffffffffffffffffffffffffffff163373ffffffffffffffffffffffffffffffffffffffff161415156111a1576040517f08c379a00000000000000000000000000000000000000000000000000000000081526004018080602001828103825260158152602001807f43616c6c6564206f6e6c792062792061646d696e2e000000000000000000000081525060200191505060405180910390fd5b600260058111156111ae57fe5b600060149054906101000a900460ff1660058111156111c957fe5b141515611264576040517f08c379a00000000000000000000000000000000000000000000000000000000081526004018080602001828103825260248152602001807f43616c6c206f6e6c792061667465722070726f706f73616c207375626d69737381526020017f696f6e2e0000000000000000000000000000000000000000000000000000000081525060400191505060405180910390fd5b6003600060146101000a81548160ff0219169083600581111561128357fe5b0217905550565b600160003373ffffffffffffffffffffffffffffffffffffffff1673ffffffffffffffffffffffffffffffffffffffff16815260200190815260200160002060000160009054906101000a900460ff16151561134e576040517f08c379a00000000000000000000000000000000000000000000000000000000081526004018080602001828103825260208152602001807f43616c6c6564206f6e6c79206279207265676973746572656420766f7465727381525060200191505060405180910390fd5b6001600581111561135b57fe5b600060149054906101000a900460ff16600581111561137657fe5b141515611411576040517f08c379a00000000000000000000000000000000000000000000000000000000081526004018080602001828103825260258152602001807f43616c6c206f6e6c7920647572696e672070726f706f73616c207375626d697381526020017f73696f6e2e00000000000000000000000000000000000000000000000000000081525060400191505060405180910390fd5b600260408051908101604052808381526020016000815250908060018154018082558091505090600182039060005260206000209060020201600090919290919091506000820151816000019080519060200190611470929190611879565b506020820151816001015550505050565b6000809054906101000a900473ffffffffffffffffffffffffffffffffffffffff1673ffffffffffffffffffffffffffffffffffffffff163373ffffffffffffffffffffffffffffffffffffffff16141515611545576040517f08c379a00000000000000000000000000000000000000000000000000000000081526004018080602001828103825260158152602001807f43616c6c6564206f6e6c792062792061646d696e2e000000000000000000000081525060200191505060405180910390fd5b6000600581111561155257fe5b600060149054906101000a900460ff16600581111561156d57fe5b141515611608576040517f08c379a00000000000000000000000000000000000000000000000000000000081526004018080602001828103825260248152602001807f43616c6c206f6e6c7920647572696e6720766f7465722072656769737472617481526020017f696f6e2e0000000000000000000000000000000000000000000000000000000081525060400191505060405180910390fd5b600160008273ffffffffffffffffffffffffffffffffffffffff1673ffffffffffffffffffffffffffffffffffffffff16815260200190815260200160002060000160009054906101000a900460ff161515156116cd576040517f08c379a00000000000000000000000000000000000000000000000000000000081526004018080602001828103825260208152602001807f54686520766f74657220697320616c726561647920726567697374657265642e81525060200191505060405180910390fd5b60018060008373ffffffffffffffffffffffffffffffffffffffff1673ffffffffffffffffffffffffffffffffffffffff16815260200190815260200160002060000160006101000a81548160ff0219169083151502179055506000600160008373ffffffffffffffffffffffffffffffffffffffff1673ffffffffffffffffffffffffffffffffffffffff16815260200190815260200160002060000160016101000a81548160ff0219169083151502179055506000600160008373ffffffffffffffffffffffffffffffffffffffff1673ffffffffffffffffffffffffffffffffffffffff1681526020019081526020016000206001018190555050565b6000809054906101000a900473ffffffffffffffffffffffffffffffffffffffff1681565b828054600181600116156101000203166002900490600052602060002090601f016020900481019282601f1061182b5780548555611868565b8280016001018555821561186857600052602060002091601f016020900482015b8281111561186757825482559160010191906001019061184c565b5b50905061187591906118f9565b5090565b828054600181600116156101000203166002900490600052602060002090601f016020900481019282601f106118ba57805160ff19168380011785556118e8565b828001600101855582156118e8579182015b828111156118e75782518255916020019190600101906118cc565b5b5090506118f591906118f9565b5090565b61191b91905b808211156119175760008160009055506001016118ff565b5090565b905600a165627a7a723058208fa9ab7e118d67dc12a87a9351ab82b3267304130da9f662bdb7075694ea6e6d0029",
					"opcodes": "PUSH1 0x80 PUSH1 0x40 MSTORE CALLVALUE DUP1 ISZERO PUSH2 0x10 JUMPI PUSH1 0x0 DUP1 REVERT JUMPDEST POP CALLER PUSH1 0x0 DUP1 PUSH2 0x100 EXP DUP2 SLOAD DUP2 PUSH20 0xFFFFFFFFFFFFFFFFFFFFFFFFFFFFFFFFFFFFFFFF MUL NOT AND SWAP1 DUP4 PUSH20 0xFFFFFFFFFFFFFFFFFFFFFFFFFFFFFFFFFFFFFFFF AND MUL OR SWAP1 SSTORE POP PUSH1 0x0 DUP1 PUSH1 0x14 PUSH2 0x100 EXP DUP2 SLOAD DUP2 PUSH1 0xFF MUL NOT AND SWAP1 DUP4 PUSH1 0x5 DUP2 GT ISZERO PUSH2 0x6F JUMPI INVALID JUMPDEST MUL OR SWAP1 SSTORE POP PUSH2 0x194A DUP1 PUSH2 0x83 PUSH1 0x0 CODECOPY PUSH1 0x0 RETURN STOP PUSH1 0x80 PUSH1 0x40 MSTORE PUSH1 0x4 CALLDATASIZE LT PUSH2 0xC5 JUMPI PUSH1 0x0 CALLDATALOAD PUSH29 0x100000000000000000000000000000000000000000000000000000000 SWAP1 DIV PUSH4 0xFFFFFFFF AND DUP1 PUSH4 0x121B93F EQ PUSH2 0xCA JUMPI DUP1 PUSH4 0x13CF08B EQ PUSH2 0xF7 JUMPI DUP1 PUSH4 0xC3F6ACF EQ PUSH2 0x1A4 JUMPI DUP1 PUSH4 0x1A6CD2FD EQ PUSH2 0x1DD JUMPI DUP1 PUSH4 0x280D0E73 EQ PUSH2 0x1F4 JUMPI DUP1 PUSH4 0x6CA4F20F EQ PUSH2 0x20B JUMPI DUP1 PUSH4 0xA3EC138D EQ PUSH2 0x222 JUMPI DUP1 PUSH4 0xB9223946 EQ PUSH2 0x28F JUMPI DUP1 PUSH4 0xC0828A8E EQ PUSH2 0x2A6 JUMPI DUP1 PUSH4 0xE25CD83F EQ PUSH2 0x2BD JUMPI DUP1 PUSH4 0xE2DD58C6 EQ PUSH2 0x2D4 JUMPI DUP1 PUSH4 0xED8A1608 EQ PUSH2 0x33D JUMPI DUP1 PUSH4 0xF851A440 EQ PUSH2 0x380 JUMPI JUMPDEST PUSH1 0x0 DUP1 REVERT JUMPDEST CALLVALUE DUP1 ISZERO PUSH2 0xD6 JUMPI PUSH1 0x0 DUP1 REVERT JUMPDEST POP PUSH2 0xF5 PUSH1 0x4 DUP1 CALLDATASIZE SUB DUP2 ADD SWAP1 DUP1 DUP1 CALLDATALOAD SWAP1 PUSH1 0x20 ADD SWAP1 SWAP3 SWAP2 SWAP1 POP POP POP PUSH2 0x3D7 JUMP JUMPDEST STOP JUMPDEST CALLVALUE DUP1 ISZERO PUSH2 0x103 JUMPI PUSH1 0x0 DUP1 REVERT JUMPDEST POP PUSH2 0x122 PUSH1 0x4 DUP1 CALLDATASIZE SUB DUP2 ADD SWAP1 DUP1 DUP1 CALLDATALOAD SWAP1 PUSH1 0x20 ADD SWAP1 SWAP3 SWAP2 SWAP1 POP POP POP PUSH2 0x6F6 JUMP JUMPDEST PUSH1 0x40 MLOAD DUP1 DUP1 PUSH1 0x20 ADD DUP4 DUP2 MSTORE PUSH1 0x20 ADD DUP3 DUP2 SUB DUP3 MSTORE DUP5 DUP2 DUP2 MLOAD DUP2 MSTORE PUSH1 0x20 ADD SWAP2 POP DUP1 MLOAD SWAP1 PUSH1 0x20 ADD SWAP1 DUP1 DUP4 DUP4 PUSH1 0x0 JUMPDEST DUP4 DUP2 LT ISZERO PUSH2 0x168 JUMPI DUP1 DUP3 ADD MLOAD DUP2 DUP5 ADD MSTORE PUSH1 0x20 DUP2 ADD SWAP1 POP PUSH2 0x14D JUMP JUMPDEST POP POP POP POP SWAP1 POP SWAP1 DUP2 ADD SWAP1 PUSH1 0x1F AND DUP1 ISZERO PUSH2 0x195 JUMPI DUP1 DUP3 SUB DUP1 MLOAD PUSH1 0x1 DUP4 PUSH1 0x20 SUB PUSH2 0x100 EXP SUB NOT AND DUP2 MSTORE PUSH1 0x20 ADD SWAP2 POP JUMPDEST POP SWAP4 POP POP POP POP PUSH1 0x40 MLOAD DUP1 SWAP2 SUB SWAP1 RETURN JUMPDEST CALLVALUE DUP1 ISZERO PUSH2 0x1B0 JUMPI PUSH1 0x0 DUP1 REVERT JUMPDEST POP PUSH2 0x1B9 PUSH2 0x7C1 JUMP JUMPDEST PUSH1 0x40 MLOAD DUP1 DUP3 PUSH1 0x5 DUP2 GT ISZERO PUSH2 0x1C9 JUMPI INVALID JUMPDEST PUSH1 0xFF AND DUP2 MSTORE PUSH1 0x20 ADD SWAP2 POP POP PUSH1 0x40 MLOAD DUP1 SWAP2 SUB SWAP1 RETURN JUMPDEST CALLVALUE DUP1 ISZERO PUSH2 0x1E9 JUMPI PUSH1 0x0 DUP1 REVERT JUMPDEST POP PUSH2 0x1F2 PUSH2 0x7D4 JUMP JUMPDEST STOP JUMPDEST CALLVALUE DUP1 ISZERO PUSH2 0x200 JUMPI PUSH1 0x0 DUP1 REVERT JUMPDEST POP PUSH2 0x209 PUSH2 0xA0B JUMP JUMPDEST STOP JUMPDEST CALLVALUE DUP1 ISZERO PUSH2 0x217 JUMPI PUSH1 0x0 DUP1 REVERT JUMPDEST POP PUSH2 0x220 PUSH2 0xBB8 JUMP JUMPDEST STOP JUMPDEST CALLVALUE DUP1 ISZERO PUSH2 0x22E JUMPI PUSH1 0x0 DUP1 REVERT JUMPDEST POP PUSH2 0x263 PUSH1 0x4 DUP1 CALLDATASIZE SUB DUP2 ADD SWAP1 DUP1 DUP1 CALLDATALOAD PUSH20 0xFFFFFFFFFFFFFFFFFFFFFFFFFFFFFFFFFFFFFFFF AND SWAP1 PUSH1 0x20 ADD SWAP1 SWAP3 SWAP2 SWAP1 POP POP POP PUSH2 0xD65 JUMP JUMPDEST PUSH1 0x40 MLOAD DUP1 DUP5 ISZERO ISZERO ISZERO ISZERO DUP2 MSTORE PUSH1 0x20 ADD DUP4 ISZERO ISZERO ISZERO ISZERO DUP2 MSTORE PUSH1 0x20 ADD DUP3 DUP2 MSTORE PUSH1 0x20 ADD SWAP4 POP POP POP POP PUSH1 0x40 MLOAD DUP1 SWAP2 SUB SWAP1 RETURN JUMPDEST CALLVALUE DUP1 ISZERO PUSH2 0x29B JUMPI PUSH1 0x0 DUP1 REVERT JUMPDEST POP PUSH2 0x2A4 PUSH2 0xDA9 JUMP JUMPDEST STOP JUMPDEST CALLVALUE DUP1 ISZERO PUSH2 0x2B2 JUMPI PUSH1 0x0 DUP1 REVERT JUMPDEST POP PUSH2 0x2BB PUSH2 0xF30 JUMP JUMPDEST STOP JUMPDEST CALLVALUE DUP1 ISZERO PUSH2 0x2C9 JUMPI PUSH1 0x0 DUP1 REVERT JUMPDEST POP PUSH2 0x2D2 PUSH2 0x10DD JUMP JUMPDEST STOP JUMPDEST CALLVALUE DUP1 ISZERO PUSH2 0x2E0 JUMPI PUSH1 0x0 DUP1 REVERT JUMPDEST POP PUSH2 0x33B PUSH1 0x4 DUP1 CALLDATASIZE SUB DUP2 ADD SWAP1 DUP1 DUP1 CALLDATALOAD SWAP1 PUSH1 0x20 ADD SWAP1 DUP3 ADD DUP1 CALLDATALOAD SWAP1 PUSH1 0x20 ADD SWAP1 DUP1 DUP1 PUSH1 0x1F ADD PUSH1 0x20 DUP1 SWAP2 DIV MUL PUSH1 0x20 ADD PUSH1 0x40 MLOAD SWAP1 DUP2 ADD PUSH1 0x40 MSTORE DUP1 SWAP4 SWAP3 SWAP2 SWAP1 DUP2 DUP2 MSTORE PUSH1 0x20 ADD DUP4 DUP4 DUP1 DUP3 DUP5 CALLDATACOPY DUP3 ADD SWAP2 POP POP POP POP POP POP SWAP2 SWAP3 SWAP2 SWAP3 SWAP1 POP POP POP PUSH2 0x128A JUMP JUMPDEST STOP JUMPDEST CALLVALUE DUP1 ISZERO PUSH2 0x349 JUMPI PUSH1 0x0 DUP1 REVERT JUMPDEST POP PUSH2 0x37E PUSH1 0x4 DUP1 CALLDATASIZE SUB DUP2 ADD SWAP1 DUP1 DUP1 CALLDATALOAD PUSH20 0xFFFFFFFFFFFFFFFFFFFFFFFFFFFFFFFFFFFFFFFF AND SWAP1 PUSH1 0x20 ADD SWAP1 SWAP3 SWAP2 SWAP1 POP POP POP PUSH2 0x1481 JUMP JUMPDEST STOP JUMPDEST CALLVALUE DUP1 ISZERO PUSH2 0x38C JUMPI PUSH1 0x0 DUP1 REVERT JUMPDEST POP PUSH2 0x395 PUSH2 0x17CD JUMP JUMPDEST PUSH1 0x40 MLOAD DUP1 DUP3 PUSH20 0xFFFFFFFFFFFFFFFFFFFFFFFFFFFFFFFFFFFFFFFF AND PUSH20 0xFFFFFFFFFFFFFFFFFFFFFFFFFFFFFFFFFFFFFFFF AND DUP2 MSTORE PUSH1 0x20 ADD SWAP2 POP POP PUSH1 0x40 MLOAD DUP1 SWAP2 SUB SWAP1 RETURN JUMPDEST PUSH1 0x1 PUSH1 0x0 CALLER PUSH20 0xFFFFFFFFFFFFFFFFFFFFFFFFFFFFFFFFFFFFFFFF AND PUSH20 0xFFFFFFFFFFFFFFFFFFFFFFFFFFFFFFFFFFFFFFFF AND DUP2 MSTORE PUSH1 0x20 ADD SWAP1 DUP2 MSTORE PUSH1 0x20 ADD PUSH1 0x0 KECCAK256 PUSH1 0x0 ADD PUSH1 0x0 SWAP1 SLOAD SWAP1 PUSH2 0x100 EXP SWAP1 DIV PUSH1 0xFF AND ISZERO ISZERO PUSH2 0x49B JUMPI PUSH1 0x40 MLOAD PUSH32 0x8C379A000000000000000000000000000000000000000000000000000000000 DUP2 MSTORE PUSH1 0x4 ADD DUP1 DUP1 PUSH1 0x20 ADD DUP3 DUP2 SUB DUP3 MSTORE PUSH1 0x20 DUP2 MSTORE PUSH1 0x20 ADD DUP1 PUSH32 0x43616C6C6564206F6E6C79206279207265676973746572656420766F74657273 DUP2 MSTORE POP PUSH1 0x20 ADD SWAP2 POP POP PUSH1 0x40 MLOAD DUP1 SWAP2 SUB SWAP1 REVERT JUMPDEST PUSH1 0x3 PUSH1 0x5 DUP2 GT ISZERO PUSH2 0x4A8 JUMPI INVALID JUMPDEST PUSH1 0x0 PUSH1 0x14 SWAP1 SLOAD SWAP1 PUSH2 0x100 EXP SWAP1 DIV PUSH1 0xFF AND PUSH1 0x5 DUP2 GT ISZERO PUSH2 0x4C3 JUMPI INVALID JUMPDEST EQ ISZERO ISZERO PUSH2 0x55E JUMPI PUSH1 0x40 MLOAD PUSH32 0x8C379A000000000000000000000000000000000000000000000000000000000 DUP2 MSTORE PUSH1 0x4 ADD DUP1 DUP1 PUSH1 0x20 ADD DUP3 DUP2 SUB DUP3 MSTORE PUSH1 0x21 DUP2 MSTORE PUSH1 0x20 ADD DUP1 PUSH32 0x43616C6C206F6E6C7920647572696E6720766F7465207375626D697373696F6E DUP2 MSTORE PUSH1 0x20 ADD PUSH32 0x2E00000000000000000000000000000000000000000000000000000000000000 DUP2 MSTORE POP PUSH1 0x40 ADD SWAP2 POP POP PUSH1 0x40 MLOAD DUP1 SWAP2 SUB SWAP1 REVERT JUMPDEST PUSH1 0x1 PUSH1 0x0 CALLER PUSH20 0xFFFFFFFFFFFFFFFFFFFFFFFFFFFFFFFFFFFFFFFF AND PUSH20 0xFFFFFFFFFFFFFFFFFFFFFFFFFFFFFFFFFFFFFFFF AND DUP2 MSTORE PUSH1 0x20 ADD SWAP1 DUP2 MSTORE PUSH1 0x20 ADD PUSH1 0x0 KECCAK256 PUSH1 0x0 ADD PUSH1 0x1 SWAP1 SLOAD SWAP1 PUSH2 0x100 EXP SWAP1 DIV PUSH1 0xFF AND ISZERO ISZERO ISZERO PUSH2 0x623 JUMPI PUSH1 0x40 MLOAD PUSH32 0x8C379A000000000000000000000000000000000000000000000000000000000 DUP2 MSTORE PUSH1 0x4 ADD DUP1 DUP1 PUSH1 0x20 ADD DUP3 DUP2 SUB DUP3 MSTORE PUSH1 0x19 DUP2 MSTORE PUSH1 0x20 ADD DUP1 PUSH32 0x43616C6C65722068617320616C726561647920766F7465642E00000000000000 DUP2 MSTORE POP PUSH1 0x20 ADD SWAP2 POP POP PUSH1 0x40 MLOAD DUP1 SWAP2 SUB SWAP1 REVERT JUMPDEST PUSH1 0x1 DUP1 PUSH1 0x0 CALLER PUSH20 0xFFFFFFFFFFFFFFFFFFFFFFFFFFFFFFFFFFFFFFFF AND PUSH20 0xFFFFFFFFFFFFFFFFFFFFFFFFFFFFFFFFFFFFFFFF AND DUP2 MSTORE PUSH1 0x20 ADD SWAP1 DUP2 MSTORE PUSH1 0x20 ADD PUSH1 0x0 KECCAK256 PUSH1 0x0 ADD PUSH1 0x1 PUSH2 0x100 EXP DUP2 SLOAD DUP2 PUSH1 0xFF MUL NOT AND SWAP1 DUP4 ISZERO ISZERO MUL OR SWAP1 SSTORE POP DUP1 PUSH1 0x1 PUSH1 0x0 CALLER PUSH20 0xFFFFFFFFFFFFFFFFFFFFFFFFFFFFFFFFFFFFFFFF AND PUSH20 0xFFFFFFFFFFFFFFFFFFFFFFFFFFFFFFFFFFFFFFFF AND DUP2 MSTORE PUSH1 0x20 ADD SWAP1 DUP2 MSTORE PUSH1 0x20 ADD PUSH1 0x0 KECCAK256 PUSH1 0x1 ADD DUP2 SWAP1 SSTORE POP PUSH1 0x1 PUSH1 0x2 DUP3 DUP2 SLOAD DUP2 LT ISZERO ISZERO PUSH2 0x6D5 JUMPI INVALID JUMPDEST SWAP1 PUSH1 0x0 MSTORE PUSH1 0x20 PUSH1 0x0 KECCAK256 SWAP1 PUSH1 0x2 MUL ADD PUSH1 0x1 ADD PUSH1 0x0 DUP3 DUP3 SLOAD ADD SWAP3 POP POP DUP2 SWAP1 SSTORE POP POP JUMP JUMPDEST PUSH1 0x2 DUP2 DUP2 SLOAD DUP2 LT ISZERO ISZERO PUSH2 0x705 JUMPI INVALID JUMPDEST SWAP1 PUSH1 0x0 MSTORE PUSH1 0x20 PUSH1 0x0 KECCAK256 SWAP1 PUSH1 0x2 MUL ADD PUSH1 0x0 SWAP2 POP SWAP1 POP DUP1 PUSH1 0x0 ADD DUP1 SLOAD PUSH1 0x1 DUP2 PUSH1 0x1 AND ISZERO PUSH2 0x100 MUL SUB AND PUSH1 0x2 SWAP1 DIV DUP1 PUSH1 0x1F ADD PUSH1 0x20 DUP1 SWAP2 DIV MUL PUSH1 0x20 ADD PUSH1 0x40 MLOAD SWAP1 DUP2 ADD PUSH1 0x40 MSTORE DUP1 SWAP3 SWAP2 SWAP1 DUP2 DUP2 MSTORE PUSH1 0x20 ADD DUP3 DUP1 SLOAD PUSH1 0x1 DUP2 PUSH1 0x1 AND ISZERO PUSH2 0x100 MUL SUB AND PUSH1 0x2 SWAP1 DIV DUP1 ISZERO PUSH2 0x7B1 JUMPI DUP1 PUSH1 0x1F LT PUSH2 0x786 JUMPI PUSH2 0x100 DUP1 DUP4 SLOAD DIV MUL DUP4 MSTORE SWAP2 PUSH1 0x20 ADD SWAP2 PUSH2 0x7B1 JUMP JUMPDEST DUP3 ADD SWAP2 SWAP1 PUSH1 0x0 MSTORE PUSH1 0x20 PUSH1 0x0 KECCAK256 SWAP1 JUMPDEST DUP2 SLOAD DUP2 MSTORE SWAP1 PUSH1 0x1 ADD SWAP1 PUSH1 0x20 ADD DUP1 DUP4 GT PUSH2 0x794 JUMPI DUP3 SWAP1 SUB PUSH1 0x1F AND DUP3 ADD SWAP2 JUMPDEST POP POP POP POP POP SWAP1 DUP1 PUSH1 0x1 ADD SLOAD SWAP1 POP DUP3 JUMP JUMPDEST PUSH1 0x0 PUSH1 0x14 SWAP1 SLOAD SWAP1 PUSH2 0x100 EXP SWAP1 DIV PUSH1 0xFF AND DUP2 JUMP JUMPDEST PUSH1 0x0 DUP1 PUSH1 0x0 DUP1 PUSH1 0x0 DUP1 SWAP1 SLOAD SWAP1 PUSH2 0x100 EXP SWAP1 DIV PUSH20 0xFFFFFFFFFFFFFFFFFFFFFFFFFFFFFFFFFFFFFFFF AND PUSH20 0xFFFFFFFFFFFFFFFFFFFFFFFFFFFFFFFFFFFFFFFF AND CALLER PUSH20 0xFFFFFFFFFFFFFFFFFFFFFFFFFFFFFFFFFFFFFFFF AND EQ ISZERO ISZERO PUSH2 0x89E JUMPI PUSH1 0x40 MLOAD PUSH32 0x8C379A000000000000000000000000000000000000000000000000000000000 DUP2 MSTORE PUSH1 0x4 ADD DUP1 DUP1 PUSH1 0x20 ADD DUP3 DUP2 SUB DUP3 MSTORE PUSH1 0x15 DUP2 MSTORE PUSH1 0x20 ADD DUP1 PUSH32 0x43616C6C6564206F6E6C792062792061646D696E2E0000000000000000000000 DUP2 MSTORE POP PUSH1 0x20 ADD SWAP2 POP POP PUSH1 0x40 MLOAD DUP1 SWAP2 SUB SWAP1 REVERT JUMPDEST PUSH1 0x4 PUSH1 0x5 DUP2 GT ISZERO PUSH2 0x8AB JUMPI INVALID JUMPDEST PUSH1 0x0 PUSH1 0x14 SWAP1 SLOAD SWAP1 PUSH2 0x100 EXP SWAP1 DIV PUSH1 0xFF AND PUSH1 0x5 DUP2 GT ISZERO PUSH2 0x8C6 JUMPI INVALID JUMPDEST EQ ISZERO ISZERO PUSH2 0x93B JUMPI PUSH1 0x40 MLOAD PUSH32 0x8C379A000000000000000000000000000000000000000000000000000000000 DUP2 MSTORE PUSH1 0x4 ADD DUP1 DUP1 PUSH1 0x20 ADD DUP3 DUP2 SUB DUP3 MSTORE PUSH1 0x20 DUP2 MSTORE PUSH1 0x20 ADD DUP1 PUSH32 0x43616C6C206F6E6C7920616674657220766F7465207375626D697373696F6E2E DUP2 MSTORE POP PUSH1 0x20 ADD SWAP2 POP POP PUSH1 0x40 MLOAD DUP1 SWAP2 SUB SWAP1 REVERT JUMPDEST PUSH1 0x0 SWAP4 POP PUSH1 0x0 SWAP3 POP PUSH1 0x0 SWAP1 POP JUMPDEST PUSH1 0x2 DUP1 SLOAD SWAP1 POP DUP2 LT ISZERO PUSH2 0x9D3 JUMPI DUP4 PUSH1 0x2 DUP3 DUP2 SLOAD DUP2 LT ISZERO ISZERO PUSH2 0x965 JUMPI INVALID JUMPDEST SWAP1 PUSH1 0x0 MSTORE PUSH1 0x20 PUSH1 0x0 KECCAK256 SWAP1 PUSH1 0x2 MUL ADD PUSH1 0x1 ADD SLOAD GT ISZERO PUSH2 0x9C6 JUMPI PUSH1 0x2 DUP2 DUP2 SLOAD DUP2 LT ISZERO ISZERO PUSH2 0x98C JUMPI INVALID JUMPDEST SWAP1 PUSH1 0x0 MSTORE PUSH1 0x20 PUSH1 0x0 KECCAK256 SWAP1 PUSH1 0x2 MUL ADD PUSH1 0x1 ADD SLOAD SWAP4 POP DUP1 SWAP3 POP PUSH1 0x2 DUP2 DUP2 SLOAD DUP2 LT ISZERO ISZERO PUSH2 0x9B2 JUMPI INVALID JUMPDEST SWAP1 PUSH1 0x0 MSTORE PUSH1 0x20 PUSH1 0x0 KECCAK256 SWAP1 PUSH1 0x2 MUL ADD PUSH1 0x0 ADD SWAP2 POP JUMPDEST DUP1 DUP1 PUSH1 0x1 ADD SWAP2 POP POP PUSH2 0x948 JUMP JUMPDEST DUP3 PUSH1 0x3 DUP2 SWAP1 SSTORE POP DUP2 PUSH1 0x4 SWAP1 DUP1 SLOAD PUSH1 0x1 DUP2 PUSH1 0x1 AND ISZERO PUSH2 0x100 MUL SUB AND PUSH1 0x2 SWAP1 DIV PUSH2 0x9FC SWAP3 SWAP2 SWAP1 PUSH2 0x17F2 JUMP JUMPDEST POP PUSH2 0xA05 PUSH2 0xDA9 JUMP JUMPDEST POP POP POP POP JUMP JUMPDEST PUSH1 0x0 DUP1 SWAP1 SLOAD SWAP1 PUSH2 0x100 EXP SWAP1 DIV PUSH20 0xFFFFFFFFFFFFFFFFFFFFFFFFFFFFFFFFFFFFFFFF AND PUSH20 0xFFFFFFFFFFFFFFFFFFFFFFFFFFFFFFFFFFFFFFFF AND CALLER PUSH20 0xFFFFFFFFFFFFFFFFFFFFFFFFFFFFFFFFFFFFFFFF AND EQ ISZERO ISZERO PUSH2 0xACF JUMPI PUSH1 0x40 MLOAD PUSH32 0x8C379A000000000000000000000000000000000000000000000000000000000 DUP2 MSTORE PUSH1 0x4 ADD DUP1 DUP1 PUSH1 0x20 ADD DUP3 DUP2 SUB DUP3 MSTORE PUSH1 0x15 DUP2 MSTORE PUSH1 0x20 ADD DUP1 PUSH32 0x43616C6C6564206F6E6C792062792061646D696E2E0000000000000000000000 DUP2 MSTORE POP PUSH1 0x20 ADD SWAP2 POP POP PUSH1 0x40 MLOAD DUP1 SWAP2 SUB SWAP1 REVERT JUMPDEST PUSH1 0x1 PUSH1 0x5 DUP2 GT ISZERO PUSH2 0xADC JUMPI INVALID JUMPDEST PUSH1 0x0 PUSH1 0x14 SWAP1 SLOAD SWAP1 PUSH2 0x100 EXP SWAP1 DIV PUSH1 0xFF AND PUSH1 0x5 DUP2 GT ISZERO PUSH2 0xAF7 JUMPI INVALID JUMPDEST EQ ISZERO ISZERO PUSH2 0xB92 JUMPI PUSH1 0x40 MLOAD PUSH32 0x8C379A000000000000000000000000000000000000000000000000000000000 DUP2 MSTORE PUSH1 0x4 ADD DUP1 DUP1 PUSH1 0x20 ADD DUP3 DUP2 SUB DUP3 MSTORE PUSH1 0x25 DUP2 MSTORE PUSH1 0x20 ADD DUP1 PUSH32 0x43616C6C206F6E6C7920647572696E672070726F706F73616C207375626D6973 DUP2 MSTORE PUSH1 0x20 ADD PUSH32 0x73696F6E2E000000000000000000000000000000000000000000000000000000 DUP2 MSTORE POP PUSH1 0x40 ADD SWAP2 POP POP PUSH1 0x40 MLOAD DUP1 SWAP2 SUB SWAP1 REVERT JUMPDEST PUSH1 0x2 PUSH1 0x0 PUSH1 0x14 PUSH2 0x100 EXP DUP2 SLOAD DUP2 PUSH1 0xFF MUL NOT AND SWAP1 DUP4 PUSH1 0x5 DUP2 GT ISZERO PUSH2 0xBB1 JUMPI INVALID JUMPDEST MUL OR SWAP1 SSTORE POP JUMP JUMPDEST PUSH1 0x0 DUP1 SWAP1 SLOAD SWAP1 PUSH2 0x100 EXP SWAP1 DIV PUSH20 0xFFFFFFFFFFFFFFFFFFFFFFFFFFFFFFFFFFFFFFFF AND PUSH20 0xFFFFFFFFFFFFFFFFFFFFFFFFFFFFFFFFFFFFFFFF AND CALLER PUSH20 0xFFFFFFFFFFFFFFFFFFFFFFFFFFFFFFFFFFFFFFFF AND EQ ISZERO ISZERO PUSH2 0xC7C JUMPI PUSH1 0x40 MLOAD PUSH32 0x8C379A000000000000000000000000000000000000000000000000000000000 DUP2 MSTORE PUSH1 0x4 ADD DUP1 DUP1 PUSH1 0x20 ADD DUP3 DUP2 SUB DUP3 MSTORE PUSH1 0x15 DUP2 MSTORE PUSH1 0x20 ADD DUP1 PUSH32 0x43616C6C6564206F6E6C792062792061646D696E2E0000000000000000000000 DUP2 MSTORE POP PUSH1 0x20 ADD SWAP2 POP POP PUSH1 0x40 MLOAD DUP1 SWAP2 SUB SWAP1 REVERT JUMPDEST PUSH1 0x3 PUSH1 0x5 DUP2 GT ISZERO PUSH2 0xC89 JUMPI INVALID JUMPDEST PUSH1 0x0 PUSH1 0x14 SWAP1 SLOAD SWAP1 PUSH2 0x100 EXP SWAP1 DIV PUSH1 0xFF AND PUSH1 0x5 DUP2 GT ISZERO PUSH2 0xCA4 JUMPI INVALID JUMPDEST EQ ISZERO ISZERO PUSH2 0xD3F JUMPI PUSH1 0x40 MLOAD PUSH32 0x8C379A000000000000000000000000000000000000000000000000000000000 DUP2 MSTORE PUSH1 0x4 ADD DUP1 DUP1 PUSH1 0x20 ADD DUP3 DUP2 SUB DUP3 MSTORE PUSH1 0x21 DUP2 MSTORE PUSH1 0x20 ADD DUP1 PUSH32 0x43616C6C206F6E6C7920647572696E6720766F7465207375626D697373696F6E DUP2 MSTORE PUSH1 0x20 ADD PUSH32 0x2E00000000000000000000000000000000000000000000000000000000000000 DUP2 MSTORE POP PUSH1 0x40 ADD SWAP2 POP POP PUSH1 0x40 MLOAD DUP1 SWAP2 SUB SWAP1 REVERT JUMPDEST PUSH1 0x4 PUSH1 0x0 PUSH1 0x14 PUSH2 0x100 EXP DUP2 SLOAD DUP2 PUSH1 0xFF MUL NOT AND SWAP1 DUP4 PUSH1 0x5 DUP2 GT ISZERO PUSH2 0xD5E JUMPI INVALID JUMPDEST MUL OR SWAP1 SSTORE POP JUMP JUMPDEST PUSH1 0x1 PUSH1 0x20 MSTORE DUP1 PUSH1 0x0 MSTORE PUSH1 0x40 PUSH1 0x0 KECCAK256 PUSH1 0x0 SWAP2 POP SWAP1 POP DUP1 PUSH1 0x0 ADD PUSH1 0x0 SWAP1 SLOAD SWAP1 PUSH2 0x100 EXP SWAP1 DIV PUSH1 0xFF AND SWAP1 DUP1 PUSH1 0x0 ADD PUSH1 0x1 SWAP1 SLOAD SWAP1 PUSH2 0x100 EXP SWAP1 DIV PUSH1 0xFF AND SWAP1 DUP1 PUSH1 0x1 ADD SLOAD SWAP1 POP DUP4 JUMP JUMPDEST PUSH1 0x0 DUP1 SWAP1 SLOAD SWAP1 PUSH2 0x100 EXP SWAP1 DIV PUSH20 0xFFFFFFFFFFFFFFFFFFFFFFFFFFFFFFFFFFFFFFFF AND PUSH20 0xFFFFFFFFFFFFFFFFFFFFFFFFFFFFFFFFFFFFFFFF AND CALLER PUSH20 0xFFFFFFFFFFFFFFFFFFFFFFFFFFFFFFFFFFFFFFFF AND EQ ISZERO ISZERO PUSH2 0xE6D JUMPI PUSH1 0x40 MLOAD PUSH32 0x8C379A000000000000000000000000000000000000000000000000000000000 DUP2 MSTORE PUSH1 0x4 ADD DUP1 DUP1 PUSH1 0x20 ADD DUP3 DUP2 SUB DUP3 MSTORE PUSH1 0x15 DUP2 MSTORE PUSH1 0x20 ADD DUP1 PUSH32 0x43616C6C6564206F6E6C792062792061646D696E2E0000000000000000000000 DUP2 MSTORE POP PUSH1 0x20 ADD SWAP2 POP POP PUSH1 0x40 MLOAD DUP1 SWAP2 SUB SWAP1 REVERT JUMPDEST PUSH1 0x4 PUSH1 0x5 DUP2 GT ISZERO PUSH2 0xE7A JUMPI INVALID JUMPDEST PUSH1 0x0 PUSH1 0x14 SWAP1 SLOAD SWAP1 PUSH2 0x100 EXP SWAP1 DIV PUSH1 0xFF AND PUSH1 0x5 DUP2 GT ISZERO PUSH2 0xE95 JUMPI INVALID JUMPDEST EQ ISZERO ISZERO PUSH2 0xF0A JUMPI PUSH1 0x40 MLOAD PUSH32 0x8C379A000000000000000000000000000000000000000000000000000000000 DUP2 MSTORE PUSH1 0x4 ADD DUP1 DUP1 PUSH1 0x20 ADD DUP3 DUP2 SUB DUP3 MSTORE PUSH1 0x20 DUP2 MSTORE PUSH1 0x20 ADD DUP1 PUSH32 0x43616C6C206F6E6C7920616674657220766F7465207375626D697373696F6E2E DUP2 MSTORE POP PUSH1 0x20 ADD SWAP2 POP POP PUSH1 0x40 MLOAD DUP1 SWAP2 SUB SWAP1 REVERT JUMPDEST PUSH1 0x5 PUSH1 0x0 PUSH1 0x14 PUSH2 0x100 EXP DUP2 SLOAD DUP2 PUSH1 0xFF MUL NOT AND SWAP1 DUP4 PUSH1 0x5 DUP2 GT ISZERO PUSH2 0xF29 JUMPI INVALID JUMPDEST MUL OR SWAP1 SSTORE POP JUMP JUMPDEST PUSH1 0x0 DUP1 SWAP1 SLOAD SWAP1 PUSH2 0x100 EXP SWAP1 DIV PUSH20 0xFFFFFFFFFFFFFFFFFFFFFFFFFFFFFFFFFFFFFFFF AND PUSH20 0xFFFFFFFFFFFFFFFFFFFFFFFFFFFFFFFFFFFFFFFF AND CALLER PUSH20 0xFFFFFFFFFFFFFFFFFFFFFFFFFFFFFFFFFFFFFFFF AND EQ ISZERO ISZERO PUSH2 0xFF4 JUMPI PUSH1 0x40 MLOAD PUSH32 0x8C379A000000000000000000000000000000000000000000000000000000000 DUP2 MSTORE PUSH1 0x4 ADD DUP1 DUP1 PUSH1 0x20 ADD DUP3 DUP2 SUB DUP3 MSTORE PUSH1 0x15 DUP2 MSTORE PUSH1 0x20 ADD DUP1 PUSH32 0x43616C6C6564206F6E6C792062792061646D696E2E0000000000000000000000 DUP2 MSTORE POP PUSH1 0x20 ADD SWAP2 POP POP PUSH1 0x40 MLOAD DUP1 SWAP2 SUB SWAP1 REVERT JUMPDEST PUSH1 0x0 PUSH1 0x5 DUP2 GT ISZERO PUSH2 0x1001 JUMPI INVALID JUMPDEST PUSH1 0x0 PUSH1 0x14 SWAP1 SLOAD SWAP1 PUSH2 0x100 EXP SWAP1 DIV PUSH1 0xFF AND PUSH1 0x5 DUP2 GT ISZERO PUSH2 0x101C JUMPI INVALID JUMPDEST EQ ISZERO ISZERO PUSH2 0x10B7 JUMPI PUSH1 0x40 MLOAD PUSH32 0x8C379A000000000000000000000000000000000000000000000000000000000 DUP2 MSTORE PUSH1 0x4 ADD DUP1 DUP1 PUSH1 0x20 ADD DUP3 DUP2 SUB DUP3 MSTORE PUSH1 0x24 DUP2 MSTORE PUSH1 0x20 ADD DUP1 PUSH32 0x43616C6C206F6E6C7920647572696E6720766F74657220726567697374726174 DUP2 MSTORE PUSH1 0x20 ADD PUSH32 0x696F6E2E00000000000000000000000000000000000000000000000000000000 DUP2 MSTORE POP PUSH1 0x40 ADD SWAP2 POP POP PUSH1 0x40 MLOAD DUP1 SWAP2 SUB SWAP1 REVERT JUMPDEST PUSH1 0x1 PUSH1 0x0 PUSH1 0x14 PUSH2 0x100 EXP DUP2 SLOAD DUP2 PUSH1 0xFF MUL NOT AND SWAP1 DUP4 PUSH1 0x5 DUP2 GT ISZERO PUSH2 0x10D6 JUMPI INVALID JUMPDEST MUL OR SWAP1 SSTORE POP JUMP JUMPDEST PUSH1 0x0 DUP1 SWAP1 SLOAD SWAP1 PUSH2 0x100 EXP SWAP1 DIV PUSH20 0xFFFFFFFFFFFFFFFFFFFFFFFFFFFFFFFFFFFFFFFF AND PUSH20 0xFFFFFFFFFFFFFFFFFFFFFFFFFFFFFFFFFFFFFFFF AND CALLER PUSH20 0xFFFFFFFFFFFFFFFFFFFFFFFFFFFFFFFFFFFFFFFF AND EQ ISZERO ISZERO PUSH2 0x11A1 JUMPI PUSH1 0x40 MLOAD PUSH32 0x8C379A000000000000000000000000000000000000000000000000000000000 DUP2 MSTORE PUSH1 0x4 ADD DUP1 DUP1 PUSH1 0x20 ADD DUP3 DUP2 SUB DUP3 MSTORE PUSH1 0x15 DUP2 MSTORE PUSH1 0x20 ADD DUP1 PUSH32 0x43616C6C6564206F6E6C792062792061646D696E2E0000000000000000000000 DUP2 MSTORE POP PUSH1 0x20 ADD SWAP2 POP POP PUSH1 0x40 MLOAD DUP1 SWAP2 SUB SWAP1 REVERT JUMPDEST PUSH1 0x2 PUSH1 0x5 DUP2 GT ISZERO PUSH2 0x11AE JUMPI INVALID JUMPDEST PUSH1 0x0 PUSH1 0x14 SWAP1 SLOAD SWAP1 PUSH2 0x100 EXP SWAP1 DIV PUSH1 0xFF AND PUSH1 0x5 DUP2 GT ISZERO PUSH2 0x11C9 JUMPI INVALID JUMPDEST EQ ISZERO ISZERO PUSH2 0x1264 JUMPI PUSH1 0x40 MLOAD PUSH32 0x8C379A000000000000000000000000000000000000000000000000000000000 DUP2 MSTORE PUSH1 0x4 ADD DUP1 DUP1 PUSH1 0x20 ADD DUP3 DUP2 SUB DUP3 MSTORE PUSH1 0x24 DUP2 MSTORE PUSH1 0x20 ADD DUP1 PUSH32 0x43616C6C206F6E6C792061667465722070726F706F73616C207375626D697373 DUP2 MSTORE PUSH1 0x20 ADD PUSH32 0x696F6E2E00000000000000000000000000000000000000000000000000000000 DUP2 MSTORE POP PUSH1 0x40 ADD SWAP2 POP POP PUSH1 0x40 MLOAD DUP1 SWAP2 SUB SWAP1 REVERT JUMPDEST PUSH1 0x3 PUSH1 0x0 PUSH1 0x14 PUSH2 0x100 EXP DUP2 SLOAD DUP2 PUSH1 0xFF MUL NOT AND SWAP1 DUP4 PUSH1 0x5 DUP2 GT ISZERO PUSH2 0x1283 JUMPI INVALID JUMPDEST MUL OR SWAP1 SSTORE POP JUMP JUMPDEST PUSH1 0x1 PUSH1 0x0 CALLER PUSH20 0xFFFFFFFFFFFFFFFFFFFFFFFFFFFFFFFFFFFFFFFF AND PUSH20 0xFFFFFFFFFFFFFFFFFFFFFFFFFFFFFFFFFFFFFFFF AND DUP2 MSTORE PUSH1 0x20 ADD SWAP1 DUP2 MSTORE PUSH1 0x20 ADD PUSH1 0x0 KECCAK256 PUSH1 0x0 ADD PUSH1 0x0 SWAP1 SLOAD SWAP1 PUSH2 0x100 EXP SWAP1 DIV PUSH1 0xFF AND ISZERO ISZERO PUSH2 0x134E JUMPI PUSH1 0x40 MLOAD PUSH32 0x8C379A000000000000000000000000000000000000000000000000000000000 DUP2 MSTORE PUSH1 0x4 ADD DUP1 DUP1 PUSH1 0x20 ADD DUP3 DUP2 SUB DUP3 MSTORE PUSH1 0x20 DUP2 MSTORE PUSH1 0x20 ADD DUP1 PUSH32 0x43616C6C6564206F6E6C79206279207265676973746572656420766F74657273 DUP2 MSTORE POP PUSH1 0x20 ADD SWAP2 POP POP PUSH1 0x40 MLOAD DUP1 SWAP2 SUB SWAP1 REVERT JUMPDEST PUSH1 0x1 PUSH1 0x5 DUP2 GT ISZERO PUSH2 0x135B JUMPI INVALID JUMPDEST PUSH1 0x0 PUSH1 0x14 SWAP1 SLOAD SWAP1 PUSH2 0x100 EXP SWAP1 DIV PUSH1 0xFF AND PUSH1 0x5 DUP2 GT ISZERO PUSH2 0x1376 JUMPI INVALID JUMPDEST EQ ISZERO ISZERO PUSH2 0x1411 JUMPI PUSH1 0x40 MLOAD PUSH32 0x8C379A000000000000000000000000000000000000000000000000000000000 DUP2 MSTORE PUSH1 0x4 ADD DUP1 DUP1 PUSH1 0x20 ADD DUP3 DUP2 SUB DUP3 MSTORE PUSH1 0x25 DUP2 MSTORE PUSH1 0x20 ADD DUP1 PUSH32 0x43616C6C206F6E6C7920647572696E672070726F706F73616C207375626D6973 DUP2 MSTORE PUSH1 0x20 ADD PUSH32 0x73696F6E2E000000000000000000000000000000000000000000000000000000 DUP2 MSTORE POP PUSH1 0x40 ADD SWAP2 POP POP PUSH1 0x40 MLOAD DUP1 SWAP2 SUB SWAP1 REVERT JUMPDEST PUSH1 0x2 PUSH1 0x40 DUP1 MLOAD SWAP1 DUP2 ADD PUSH1 0x40 MSTORE DUP1 DUP4 DUP2 MSTORE PUSH1 0x20 ADD PUSH1 0x0 DUP2 MSTORE POP SWAP1 DUP1 PUSH1 0x1 DUP2 SLOAD ADD DUP1 DUP3 SSTORE DUP1 SWAP2 POP POP SWAP1 PUSH1 0x1 DUP3 SUB SWAP1 PUSH1 0x0 MSTORE PUSH1 0x20 PUSH1 0x0 KECCAK256 SWAP1 PUSH1 0x2 MUL ADD PUSH1 0x0 SWAP1 SWAP2 SWAP3 SWAP1 SWAP2 SWAP1 SWAP2 POP PUSH1 0x0 DUP3 ADD MLOAD DUP2 PUSH1 0x0 ADD SWAP1 DUP1 MLOAD SWAP1 PUSH1 0x20 ADD SWAP1 PUSH2 0x1470 SWAP3 SWAP2 SWAP1 PUSH2 0x1879 JUMP JUMPDEST POP PUSH1 0x20 DUP3 ADD MLOAD DUP2 PUSH1 0x1 ADD SSTORE POP POP POP POP JUMP JUMPDEST PUSH1 0x0 DUP1 SWAP1 SLOAD SWAP1 PUSH2 0x100 EXP SWAP1 DIV PUSH20 0xFFFFFFFFFFFFFFFFFFFFFFFFFFFFFFFFFFFFFFFF AND PUSH20 0xFFFFFFFFFFFFFFFFFFFFFFFFFFFFFFFFFFFFFFFF AND CALLER PUSH20 0xFFFFFFFFFFFFFFFFFFFFFFFFFFFFFFFFFFFFFFFF AND EQ ISZERO ISZERO PUSH2 0x1545 JUMPI PUSH1 0x40 MLOAD PUSH32 0x8C379A000000000000000000000000000000000000000000000000000000000 DUP2 MSTORE PUSH1 0x4 ADD DUP1 DUP1 PUSH1 0x20 ADD DUP3 DUP2 SUB DUP3 MSTORE PUSH1 0x15 DUP2 MSTORE PUSH1 0x20 ADD DUP1 PUSH32 0x43616C6C6564206F6E6C792062792061646D696E2E0000000000000000000000 DUP2 MSTORE POP PUSH1 0x20 ADD SWAP2 POP POP PUSH1 0x40 MLOAD DUP1 SWAP2 SUB SWAP1 REVERT JUMPDEST PUSH1 0x0 PUSH1 0x5 DUP2 GT ISZERO PUSH2 0x1552 JUMPI INVALID JUMPDEST PUSH1 0x0 PUSH1 0x14 SWAP1 SLOAD SWAP1 PUSH2 0x100 EXP SWAP1 DIV PUSH1 0xFF AND PUSH1 0x5 DUP2 GT ISZERO PUSH2 0x156D JUMPI INVALID JUMPDEST EQ ISZERO ISZERO PUSH2 0x1608 JUMPI PUSH1 0x40 MLOAD PUSH32 0x8C379A000000000000000000000000000000000000000000000000000000000 DUP2 MSTORE PUSH1 0x4 ADD DUP1 DUP1 PUSH1 0x20 ADD DUP3 DUP2 SUB DUP3 MSTORE PUSH1 0x24 DUP2 MSTORE PUSH1 0x20 ADD DUP1 PUSH32 0x43616C6C206F6E6C7920647572696E6720766F74657220726567697374726174 DUP2 MSTORE PUSH1 0x20 ADD PUSH32 0x696F6E2E00000000000000000000000000000000000000000000000000000000 DUP2 MSTORE POP PUSH1 0x40 ADD SWAP2 POP POP PUSH1 0x40 MLOAD DUP1 SWAP2 SUB SWAP1 REVERT JUMPDEST PUSH1 0x1 PUSH1 0x0 DUP3 PUSH20 0xFFFFFFFFFFFFFFFFFFFFFFFFFFFFFFFFFFFFFFFF AND PUSH20 0xFFFFFFFFFFFFFFFFFFFFFFFFFFFFFFFFFFFFFFFF AND DUP2 MSTORE PUSH1 0x20 ADD SWAP1 DUP2 MSTORE PUSH1 0x20 ADD PUSH1 0x0 KECCAK256 PUSH1 0x0 ADD PUSH1 0x0 SWAP1 SLOAD SWAP1 PUSH2 0x100 EXP SWAP1 DIV PUSH1 0xFF AND ISZERO ISZERO ISZERO PUSH2 0x16CD JUMPI PUSH1 0x40 MLOAD PUSH32 0x8C379A000000000000000000000000000000000000000000000000000000000 DUP2 MSTORE PUSH1 0x4 ADD DUP1 DUP1 PUSH1 0x20 ADD DUP3 DUP2 SUB DUP3 MSTORE PUSH1 0x20 DUP2 MSTORE PUSH1 0x20 ADD DUP1 PUSH32 0x54686520766F74657220697320616C726561647920726567697374657265642E DUP2 MSTORE POP PUSH1 0x20 ADD SWAP2 POP POP PUSH1 0x40 MLOAD DUP1 SWAP2 SUB SWAP1 REVERT JUMPDEST PUSH1 0x1 DUP1 PUSH1 0x0 DUP4 PUSH20 0xFFFFFFFFFFFFFFFFFFFFFFFFFFFFFFFFFFFFFFFF AND PUSH20 0xFFFFFFFFFFFFFFFFFFFFFFFFFFFFFFFFFFFFFFFF AND DUP2 MSTORE PUSH1 0x20 ADD SWAP1 DUP2 MSTORE PUSH1 0x20 ADD PUSH1 0x0 KECCAK256 PUSH1 0x0 ADD PUSH1 0x0 PUSH2 0x100 EXP DUP2 SLOAD DUP2 PUSH1 0xFF MUL NOT AND SWAP1 DUP4 ISZERO ISZERO MUL OR SWAP1 SSTORE POP PUSH1 0x0 PUSH1 0x1 PUSH1 0x0 DUP4 PUSH20 0xFFFFFFFFFFFFFFFFFFFFFFFFFFFFFFFFFFFFFFFF AND PUSH20 0xFFFFFFFFFFFFFFFFFFFFFFFFFFFFFFFFFFFFFFFF AND DUP2 MSTORE PUSH1 0x20 ADD SWAP1 DUP2 MSTORE PUSH1 0x20 ADD PUSH1 0x0 KECCAK256 PUSH1 0x0 ADD PUSH1 0x1 PUSH2 0x100 EXP DUP2 SLOAD DUP2 PUSH1 0xFF MUL NOT AND SWAP1 DUP4 ISZERO ISZERO MUL OR SWAP1 SSTORE POP PUSH1 0x0 PUSH1 0x1 PUSH1 0x0 DUP4 PUSH20 0xFFFFFFFFFFFFFFFFFFFFFFFFFFFFFFFFFFFFFFFF AND PUSH20 0xFFFFFFFFFFFFFFFFFFFFFFFFFFFFFFFFFFFFFFFF AND DUP2 MSTORE PUSH1 0x20 ADD SWAP1 DUP2 MSTORE PUSH1 0x20 ADD PUSH1 0x0 KECCAK256 PUSH1 0x1 ADD DUP2 SWAP1 SSTORE POP POP JUMP JUMPDEST PUSH1 0x0 DUP1 SWAP1 SLOAD SWAP1 PUSH2 0x100 EXP SWAP1 DIV PUSH20 0xFFFFFFFFFFFFFFFFFFFFFFFFFFFFFFFFFFFFFFFF AND DUP2 JUMP JUMPDEST DUP3 DUP1 SLOAD PUSH1 0x1 DUP2 PUSH1 0x1 AND ISZERO PUSH2 0x100 MUL SUB AND PUSH1 0x2 SWAP1 DIV SWAP1 PUSH1 0x0 MSTORE PUSH1 0x20 PUSH1 0x0 KECCAK256 SWAP1 PUSH1 0x1F ADD PUSH1 0x20 SWAP1 DIV DUP2 ADD SWAP3 DUP3 PUSH1 0x1F LT PUSH2 0x182B JUMPI DUP1 SLOAD DUP6 SSTORE PUSH2 0x1868 JUMP JUMPDEST DUP3 DUP1 ADD PUSH1 0x1 ADD DUP6 SSTORE DUP3 ISZERO PUSH2 0x1868 JUMPI PUSH1 0x0 MSTORE PUSH1 0x20 PUSH1 0x0 KECCAK256 SWAP2 PUSH1 0x1F ADD PUSH1 0x20 SWAP1 DIV DUP3 ADD JUMPDEST DUP3 DUP2 GT ISZERO PUSH2 0x1867 JUMPI DUP3 SLOAD DUP3 SSTORE SWAP2 PUSH1 0x1 ADD SWAP2 SWAP1 PUSH1 0x1 ADD SWAP1 PUSH2 0x184C JUMP JUMPDEST JUMPDEST POP SWAP1 POP PUSH2 0x1875 SWAP2 SWAP1 PUSH2 0x18F9 JUMP JUMPDEST POP SWAP1 JUMP JUMPDEST DUP3 DUP1 SLOAD PUSH1 0x1 DUP2 PUSH1 0x1 AND ISZERO PUSH2 0x100 MUL SUB AND PUSH1 0x2 SWAP1 DIV SWAP1 PUSH1 0x0 MSTORE PUSH1 0x20 PUSH1 0x0 KECCAK256 SWAP1 PUSH1 0x1F ADD PUSH1 0x20 SWAP1 DIV DUP2 ADD SWAP3 DUP3 PUSH1 0x1F LT PUSH2 0x18BA JUMPI DUP1 MLOAD PUSH1 0xFF NOT AND DUP4 DUP1 ADD OR DUP6 SSTORE PUSH2 0x18E8 JUMP JUMPDEST DUP3 DUP1 ADD PUSH1 0x1 ADD DUP6 SSTORE DUP3 ISZERO PUSH2 0x18E8 JUMPI SWAP2 DUP3 ADD JUMPDEST DUP3 DUP2 GT ISZERO PUSH2 0x18E7 JUMPI DUP3 MLOAD DUP3 SSTORE SWAP2 PUSH1 0x20 ADD SWAP2 SWAP1 PUSH1 0x1 ADD SWAP1 PUSH2 0x18CC JUMP JUMPDEST JUMPDEST POP SWAP1 POP PUSH2 0x18F5 SWAP2 SWAP1 PUSH2 0x18F9 JUMP JUMPDEST POP SWAP1 JUMP JUMPDEST PUSH2 0x191B SWAP2 SWAP1 JUMPDEST DUP1 DUP3 GT ISZERO PUSH2 0x1917 JUMPI PUSH1 0x0 DUP2 PUSH1 0x0 SWAP1 SSTORE POP PUSH1 0x1 ADD PUSH2 0x18FF JUMP JUMPDEST POP SWAP1 JUMP JUMPDEST SWAP1 JUMP STOP LOG1 PUSH6 0x627A7A723058 KECCAK256 DUP16 0xa9 0xab PUSH31 0x118D67DC12A87A9351AB82B3267304130DA9F662BDB7075694EA6E6D002900 "
				},
				"gasEstimates": {
					"creation": {
						"codeDepositCost": "1294800",
						"executionCost": "41952",
						"totalCost": "1336752"
					},
					"external": {
						"admin()": "706",
						"countVote()": "infinite",
						"currentState()": "556",
						"endProposalSubmission()": "21201",
						"endVote()": "21267",
						"endVoteSubmission()": "21223",
						"proposals(uint256)": "infinite",
						"registerProposals(string)": "infinite",
						"registerVoters(address)": "47326",
						"startProposalSubmission()": "21289",
						"startVoteSubmission()": "21311",
						"vote(uint256)": "62376",
						"voters(address)": "1288"
					}
				},
				"methodIdentifiers": {
					"admin()": "f851a440",
					"countVote()": "1a6cd2fd",
					"currentState()": "0c3f6acf",
					"endProposalSubmission()": "280d0e73",
					"endVote()": "b9223946",
					"endVoteSubmission()": "6ca4f20f",
					"proposals(uint256)": "013cf08b",
					"registerProposals(string)": "e2dd58c6",
					"registerVoters(address)": "ed8a1608",
					"startProposalSubmission()": "c0828a8e",
					"startVoteSubmission()": "e25cd83f",
					"vote(uint256)": "0121b93f",
					"voters(address)": "a3ec138d"
				}
			},
			"userdoc": {
				"methods": {}
			}
		}
	}
}