{
	"project_lottery/simplelottery.sol": {
		"SimpleLottery": {
			"abi": [
				{
					"constant": false,
					"inputs": [],
					"name": "withdraw",
					"outputs": [],
					"payable": false,
					"stateMutability": "nonpayable",
					"type": "function"
				},
				{
					"constant": true,
					"inputs": [
						{
							"name": "",
							"type": "uint256"
						}
					],
					"name": "tickets",
					"outputs": [
						{
							"name": "",
							"type": "address"
						}
					],
					"payable": false,
					"stateMutability": "view",
					"type": "function"
				},
				{
					"constant": false,
					"inputs": [],
					"name": "buy",
					"outputs": [],
					"payable": true,
					"stateMutability": "payable",
					"type": "function"
				},
				{
					"constant": false,
					"inputs": [],
					"name": "drawWinner",
					"outputs": [],
					"payable": false,
					"stateMutability": "nonpayable",
					"type": "function"
				},
				{
					"constant": true,
					"inputs": [],
					"name": "winner",
					"outputs": [
						{
							"name": "",
							"type": "address"
						}
					],
					"payable": false,
					"stateMutability": "view",
					"type": "function"
				},
				{
					"inputs": [
						{
							"name": "duration",
							"type": "uint256"
						}
					],
					"payable": false,
					"stateMutability": "nonpayable",
					"type": "constructor"
				},
				{
					"payable": true,
					"stateMutability": "payable",
					"type": "fallback"
				}
			],
			"devdoc": {
				"methods": {}
			},
			"evm": {
				"assembly": "    /* \"project_lottery/simplelottery.sol\":33:1442  contract SimpleLottery {... */\n  mstore(0x40, 0x80)\n    /* \"project_lottery/simplelottery.sol\":224:409  constructor(uint duration) public {... */\n  callvalue\n    /* \"--CODEGEN--\":8:17   */\n  dup1\n    /* \"--CODEGEN--\":5:7   */\n  iszero\n  tag_1\n  jumpi\n    /* \"--CODEGEN--\":30:31   */\n  0x0\n    /* \"--CODEGEN--\":27:28   */\n  dup1\n    /* \"--CODEGEN--\":20:32   */\n  revert\n    /* \"--CODEGEN--\":5:7   */\ntag_1:\n    /* \"project_lottery/simplelottery.sol\":224:409  constructor(uint duration) public {... */\n  pop\n  mload(0x40)\n  0x20\n  dup1\n  bytecodeSize\n  dup4\n  codecopy\n  dup2\n  add\n  dup1\n  0x40\n  mstore\n  dup2\n  add\n  swap1\n  dup1\n  dup1\n  mload\n  swap1\n  0x20\n  add\n  swap1\n  swap3\n  swap2\n  swap1\n  pop\n  pop\n  pop\n    /* \"project_lottery/simplelottery.sol\":396:402  1 days */\n  0x15180\n    /* \"project_lottery/simplelottery.sol\":385:393  duration */\n  dup2\n    /* \"project_lottery/simplelottery.sol\":385:402  duration * 1 days */\n  mul\n    /* \"project_lottery/simplelottery.sol\":379:382  now */\n  timestamp\n    /* \"project_lottery/simplelottery.sol\":379:402  now + duration * 1 days */\n  add\n    /* \"project_lottery/simplelottery.sol\":355:376  ticketingPeriodCloses */\n  0x0\n    /* \"project_lottery/simplelottery.sol\":355:402  ticketingPeriodCloses = now + duration * 1 days */\n  dup2\n  swap1\n  sstore\n  pop\n    /* \"project_lottery/simplelottery.sol\":224:409  constructor(uint duration) public {... */\n  pop\n    /* \"project_lottery/simplelottery.sol\":33:1442  contract SimpleLottery {... */\n  dataSize(sub_0)\n  dup1\n  dataOffset(sub_0)\n  0x0\n  codecopy\n  0x0\n  return\nstop\n\nsub_0: assembly {\n        /* \"project_lottery/simplelottery.sol\":33:1442  contract SimpleLottery {... */\n      mstore(0x40, 0x80)\n      jumpi(tag_1, lt(calldatasize, 0x4))\n      calldataload(0x0)\n      0x100000000000000000000000000000000000000000000000000000000\n      swap1\n      div\n      0xffffffff\n      and\n      dup1\n      0x3ccfd60b\n      eq\n      tag_2\n      jumpi\n      dup1\n      0x50b44712\n      eq\n      tag_3\n      jumpi\n      dup1\n      0xa6f2ae3a\n      eq\n      tag_4\n      jumpi\n      dup1\n      0xb2185bb1\n      eq\n      tag_5\n      jumpi\n      dup1\n      0xdfbf53ae\n      eq\n      tag_6\n      jumpi\n    tag_1:\n        /* \"project_lottery/simplelottery.sol\":620:625  buy() */\n      tag_9\n        /* \"project_lottery/simplelottery.sol\":620:623  buy */\n      tag_10\n        /* \"project_lottery/simplelottery.sol\":620:625  buy() */\n      jump\t// in\n    tag_9:\n        /* \"project_lottery/simplelottery.sol\":33:1442  contract SimpleLottery {... */\n      stop\n        /* \"project_lottery/simplelottery.sol\":1315:1440  function withdraw() public {... */\n    tag_2:\n      callvalue\n        /* \"--CODEGEN--\":8:17   */\n      dup1\n        /* \"--CODEGEN--\":5:7   */\n      iszero\n      tag_11\n      jumpi\n        /* \"--CODEGEN--\":30:31   */\n      0x0\n        /* \"--CODEGEN--\":27:28   */\n      dup1\n        /* \"--CODEGEN--\":20:32   */\n      revert\n        /* \"--CODEGEN--\":5:7   */\n    tag_11:\n        /* \"project_lottery/simplelottery.sol\":1315:1440  function withdraw() public {... */\n      pop\n      tag_12\n      jump(tag_13)\n    tag_12:\n      stop\n        /* \"project_lottery/simplelottery.sol\":166:190  address[] public tickets */\n    tag_3:\n      callvalue\n        /* \"--CODEGEN--\":8:17   */\n      dup1\n        /* \"--CODEGEN--\":5:7   */\n      iszero\n      tag_14\n      jumpi\n        /* \"--CODEGEN--\":30:31   */\n      0x0\n        /* \"--CODEGEN--\":27:28   */\n      dup1\n        /* \"--CODEGEN--\":20:32   */\n      revert\n        /* \"--CODEGEN--\":5:7   */\n    tag_14:\n        /* \"project_lottery/simplelottery.sol\":166:190  address[] public tickets */\n      pop\n      tag_15\n      0x4\n      dup1\n      calldatasize\n      sub\n      dup2\n      add\n      swap1\n      dup1\n      dup1\n      calldataload\n      swap1\n      0x20\n      add\n      swap1\n      swap3\n      swap2\n      swap1\n      pop\n      pop\n      pop\n      jump(tag_16)\n    tag_15:\n      mload(0x40)\n      dup1\n      dup3\n      0xffffffffffffffffffffffffffffffffffffffff\n      and\n      0xffffffffffffffffffffffffffffffffffffffff\n      and\n      dup2\n      mstore\n      0x20\n      add\n      swap2\n      pop\n      pop\n      mload(0x40)\n      dup1\n      swap2\n      sub\n      swap1\n      return\n        /* \"project_lottery/simplelottery.sol\":415:575  function buy() public payable {... */\n    tag_4:\n      tag_17\n      jump(tag_10)\n    tag_17:\n      stop\n        /* \"project_lottery/simplelottery.sol\":638:1309  function drawWinner() public {... */\n    tag_5:\n      callvalue\n        /* \"--CODEGEN--\":8:17   */\n      dup1\n        /* \"--CODEGEN--\":5:7   */\n      iszero\n      tag_18\n      jumpi\n        /* \"--CODEGEN--\":30:31   */\n      0x0\n        /* \"--CODEGEN--\":27:28   */\n      dup1\n        /* \"--CODEGEN--\":20:32   */\n      revert\n        /* \"--CODEGEN--\":5:7   */\n    tag_18:\n        /* \"project_lottery/simplelottery.sol\":638:1309  function drawWinner() public {... */\n      pop\n      tag_19\n      jump(tag_20)\n    tag_19:\n      stop\n        /* \"project_lottery/simplelottery.sol\":196:217  address public winner */\n    tag_6:\n      callvalue\n        /* \"--CODEGEN--\":8:17   */\n      dup1\n        /* \"--CODEGEN--\":5:7   */\n      iszero\n      tag_21\n      jumpi\n        /* \"--CODEGEN--\":30:31   */\n      0x0\n        /* \"--CODEGEN--\":27:28   */\n      dup1\n        /* \"--CODEGEN--\":20:32   */\n      revert\n        /* \"--CODEGEN--\":5:7   */\n    tag_21:\n        /* \"project_lottery/simplelottery.sol\":196:217  address public winner */\n      pop\n      tag_22\n      jump(tag_23)\n    tag_22:\n      mload(0x40)\n      dup1\n      dup3\n      0xffffffffffffffffffffffffffffffffffffffff\n      and\n      0xffffffffffffffffffffffffffffffffffffffff\n      and\n      dup2\n      mstore\n      0x20\n      add\n      swap2\n      pop\n      pop\n      mload(0x40)\n      dup1\n      swap2\n      sub\n      swap1\n      return\n        /* \"project_lottery/simplelottery.sol\":415:575  function buy() public payable {... */\n    tag_10:\n        /* \"project_lottery/simplelottery.sol\":476:487  0.001 ether */\n      0x38d7ea4c68000\n        /* \"project_lottery/simplelottery.sol\":463:472  msg.value */\n      callvalue\n        /* \"project_lottery/simplelottery.sol\":463:487  msg.value >= 0.001 ether */\n      lt\n      iszero\n        /* \"project_lottery/simplelottery.sol\":455:488  require(msg.value >= 0.001 ether) */\n      iszero\n      iszero\n      tag_25\n      jumpi\n      0x0\n      dup1\n      revert\n    tag_25:\n        /* \"project_lottery/simplelottery.sol\":512:533  ticketingPeriodCloses */\n      sload(0x0)\n        /* \"project_lottery/simplelottery.sol\":506:509  now */\n      timestamp\n        /* \"project_lottery/simplelottery.sol\":506:533  now < ticketingPeriodCloses */\n      lt\n        /* \"project_lottery/simplelottery.sol\":498:534  require(now < ticketingPeriodCloses) */\n      iszero\n      iszero\n      tag_26\n      jumpi\n      0x0\n      dup1\n      revert\n    tag_26:\n        /* \"project_lottery/simplelottery.sol\":544:551  tickets */\n      0x1\n        /* \"project_lottery/simplelottery.sol\":557:567  msg.sender */\n      caller\n        /* \"project_lottery/simplelottery.sol\":544:568  tickets.push(msg.sender) */\n      swap1\n      dup1\n        /* \"--CODEGEN--\":39:40   */\n      0x1\n        /* \"--CODEGEN--\":33:36   */\n      dup2\n        /* \"--CODEGEN--\":27:37   */\n      sload\n        /* \"--CODEGEN--\":23:41   */\n      add\n        /* \"--CODEGEN--\":57:67   */\n      dup1\n        /* \"--CODEGEN--\":52:55   */\n      dup3\n        /* \"--CODEGEN--\":45:68   */\n      sstore\n        /* \"--CODEGEN--\":79:89   */\n      dup1\n        /* \"--CODEGEN--\":72:89   */\n      swap2\n      pop\n        /* \"--CODEGEN--\":0:93   */\n      pop\n        /* \"project_lottery/simplelottery.sol\":544:568  tickets.push(msg.sender) */\n      swap1\n      0x1\n      dup3\n      sub\n      swap1\n      0x0\n      mstore\n      keccak256(0x0, 0x20)\n      add\n      0x0\n      swap1\n      swap2\n      swap3\n      swap1\n      swap2\n      swap1\n      swap2\n      0x100\n      exp\n      dup2\n      sload\n      dup2\n      0xffffffffffffffffffffffffffffffffffffffff\n      mul\n      not\n      and\n      swap1\n      dup4\n      0xffffffffffffffffffffffffffffffffffffffff\n      and\n      mul\n      or\n      swap1\n      sstore\n      pop\n      pop\n        /* \"project_lottery/simplelottery.sol\":415:575  function buy() public payable {... */\n      jump\t// out\n        /* \"project_lottery/simplelottery.sol\":1315:1440  function withdraw() public {... */\n    tag_13:\n        /* \"project_lottery/simplelottery.sol\":1374:1380  winner */\n      0x2\n      0x0\n      swap1\n      sload\n      swap1\n      0x100\n      exp\n      swap1\n      div\n      0xffffffffffffffffffffffffffffffffffffffff\n      and\n        /* \"project_lottery/simplelottery.sol\":1360:1380  msg.sender == winner */\n      0xffffffffffffffffffffffffffffffffffffffff\n      and\n        /* \"project_lottery/simplelottery.sol\":1360:1370  msg.sender */\n      caller\n        /* \"project_lottery/simplelottery.sol\":1360:1380  msg.sender == winner */\n      0xffffffffffffffffffffffffffffffffffffffff\n      and\n      eq\n        /* \"project_lottery/simplelottery.sol\":1352:1381  require(msg.sender == winner) */\n      iszero\n      iszero\n      tag_29\n      jumpi\n      0x0\n      dup1\n      revert\n    tag_29:\n        /* \"project_lottery/simplelottery.sol\":1391:1401  msg.sender */\n      caller\n        /* \"project_lottery/simplelottery.sol\":1391:1410  msg.sender.transfer */\n      0xffffffffffffffffffffffffffffffffffffffff\n      and\n        /* \"project_lottery/simplelottery.sol\":1391:1433  msg.sender.transfer(address(this).balance) */\n      0x8fc\n        /* \"project_lottery/simplelottery.sol\":1419:1423  this */\n      address\n        /* \"project_lottery/simplelottery.sol\":1411:1432  address(this).balance */\n      0xffffffffffffffffffffffffffffffffffffffff\n      and\n      balance\n        /* \"project_lottery/simplelottery.sol\":1391:1433  msg.sender.transfer(address(this).balance) */\n      swap1\n      dup2\n      iszero\n      mul\n      swap1\n      mload(0x40)\n      0x0\n      mload(0x40)\n      dup1\n      dup4\n      sub\n      dup2\n      dup6\n      dup9\n      dup9\n      call\n      swap4\n      pop\n      pop\n      pop\n      pop\n      iszero\n        /* \"--CODEGEN--\":8:17   */\n      dup1\n        /* \"--CODEGEN--\":5:7   */\n      iszero\n      tag_30\n      jumpi\n        /* \"--CODEGEN--\":45:61   */\n      returndatasize\n        /* \"--CODEGEN--\":42:43   */\n      0x0\n        /* \"--CODEGEN--\":39:40   */\n      dup1\n        /* \"--CODEGEN--\":24:62   */\n      returndatacopy\n        /* \"--CODEGEN--\":77:93   */\n      returndatasize\n        /* \"--CODEGEN--\":74:75   */\n      0x0\n        /* \"--CODEGEN--\":67:94   */\n      revert\n        /* \"--CODEGEN--\":5:7   */\n    tag_30:\n        /* \"project_lottery/simplelottery.sol\":1391:1433  msg.sender.transfer(address(this).balance) */\n      pop\n        /* \"project_lottery/simplelottery.sol\":1315:1440  function withdraw() public {... */\n      jump\t// out\n        /* \"project_lottery/simplelottery.sol\":166:190  address[] public tickets */\n    tag_16:\n      0x1\n      dup2\n      dup2\n      sload\n      dup2\n      lt\n      iszero\n      iszero\n      tag_31\n      jumpi\n      invalid\n    tag_31:\n      swap1\n      0x0\n      mstore\n      keccak256(0x0, 0x20)\n      add\n      0x0\n      swap2\n      pop\n      sload\n      swap1\n      0x100\n      exp\n      swap1\n      div\n      0xffffffffffffffffffffffffffffffffffffffff\n      and\n      dup2\n      jump\t// out\n        /* \"project_lottery/simplelottery.sol\":638:1309  function drawWinner() public {... */\n    tag_20:\n        /* \"project_lottery/simplelottery.sol\":1152:1164  bytes32 hash */\n      0x0\n        /* \"project_lottery/simplelottery.sol\":1204:1216  bytes32 rand */\n      dup1\n        /* \"project_lottery/simplelottery.sol\":845:854  5 minutes */\n      0x12c\n        /* \"project_lottery/simplelottery.sol\":821:842  ticketingPeriodCloses */\n      sload(0x0)\n        /* \"project_lottery/simplelottery.sol\":821:854  ticketingPeriodCloses + 5 minutes */\n      add\n        /* \"project_lottery/simplelottery.sol\":815:818  now */\n      timestamp\n        /* \"project_lottery/simplelottery.sol\":815:854  now > ticketingPeriodCloses + 5 minutes */\n      gt\n        /* \"project_lottery/simplelottery.sol\":807:855  require(now > ticketingPeriodCloses + 5 minutes) */\n      iszero\n      iszero\n      tag_34\n      jumpi\n      0x0\n      dup1\n      revert\n    tag_34:\n        /* \"project_lottery/simplelottery.sol\":918:919  0 */\n      0x0\n        /* \"project_lottery/simplelottery.sol\":900:920  winner == address(0) */\n      0xffffffffffffffffffffffffffffffffffffffff\n      and\n        /* \"project_lottery/simplelottery.sol\":900:906  winner */\n      0x2\n      0x0\n      swap1\n      sload\n      swap1\n      0x100\n      exp\n      swap1\n      div\n      0xffffffffffffffffffffffffffffffffffffffff\n      and\n        /* \"project_lottery/simplelottery.sol\":900:920  winner == address(0) */\n      0xffffffffffffffffffffffffffffffffffffffff\n      and\n      eq\n        /* \"project_lottery/simplelottery.sol\":892:921  require(winner == address(0)) */\n      iszero\n      iszero\n      tag_35\n      jumpi\n      0x0\n      dup1\n      revert\n    tag_35:\n        /* \"project_lottery/simplelottery.sol\":1192:1193  1 */\n      0x1\n        /* \"project_lottery/simplelottery.sol\":1177:1189  block.number */\n      number\n        /* \"project_lottery/simplelottery.sol\":1177:1193  block.number - 1 */\n      sub\n        /* \"project_lottery/simplelottery.sol\":1167:1194  blockhash(block.number - 1) */\n      blockhash\n        /* \"project_lottery/simplelottery.sol\":1152:1194  bytes32 hash = blockhash(block.number - 1) */\n      swap2\n      pop\n        /* \"project_lottery/simplelottery.sol\":1240:1244  hash */\n      dup2\n        /* \"project_lottery/simplelottery.sol\":1229:1245  abi.encode(hash) */\n      add(0x20, mload(0x40))\n      dup1\n      dup3\n      not(0x0)\n      and\n      not(0x0)\n      and\n      dup2\n      mstore\n      0x20\n      add\n      swap2\n      pop\n      pop\n      mload(0x40)\n        /* \"--CODEGEN--\":49:53   */\n      0x20\n        /* \"--CODEGEN--\":39:46   */\n      dup2\n        /* \"--CODEGEN--\":30:37   */\n      dup4\n        /* \"--CODEGEN--\":26:47   */\n      sub\n        /* \"--CODEGEN--\":22:54   */\n      sub\n        /* \"--CODEGEN--\":13:20   */\n      dup2\n        /* \"--CODEGEN--\":6:55   */\n      mstore\n        /* \"project_lottery/simplelottery.sol\":1229:1245  abi.encode(hash) */\n      swap1\n      0x40\n      mstore\n        /* \"project_lottery/simplelottery.sol\":1219:1246  keccak256(abi.encode(hash)) */\n      mload(0x40)\n      dup1\n      dup3\n      dup1\n      mload\n      swap1\n      0x20\n      add\n      swap1\n      dup1\n      dup4\n      dup4\n        /* \"--CODEGEN--\":36:189   */\n    tag_36:\n        /* \"--CODEGEN--\":66:68   */\n      0x20\n        /* \"--CODEGEN--\":61:64   */\n      dup4\n        /* \"--CODEGEN--\":58:69   */\n      lt\n        /* \"--CODEGEN--\":51:70   */\n      iszero\n        /* \"--CODEGEN--\":36:189   */\n      iszero\n      tag_37\n      jumpi\n        /* \"--CODEGEN--\":182:185   */\n      dup1\n        /* \"--CODEGEN--\":176:186   */\n      mload\n        /* \"--CODEGEN--\":171:174   */\n      dup3\n        /* \"--CODEGEN--\":164:187   */\n      mstore\n        /* \"--CODEGEN--\":98:100   */\n      0x20\n        /* \"--CODEGEN--\":93:96   */\n      dup3\n        /* \"--CODEGEN--\":89:101   */\n      add\n        /* \"--CODEGEN--\":82:101   */\n      swap2\n      pop\n        /* \"--CODEGEN--\":123:125   */\n      0x20\n        /* \"--CODEGEN--\":118:121   */\n      dup2\n        /* \"--CODEGEN--\":114:126   */\n      add\n        /* \"--CODEGEN--\":107:126   */\n      swap1\n      pop\n        /* \"--CODEGEN--\":148:150   */\n      0x20\n        /* \"--CODEGEN--\":143:146   */\n      dup4\n        /* \"--CODEGEN--\":139:151   */\n      sub\n        /* \"--CODEGEN--\":132:151   */\n      swap3\n      pop\n        /* \"--CODEGEN--\":36:189   */\n      jump(tag_36)\n    tag_37:\n        /* \"--CODEGEN--\":274:275   */\n      0x1\n        /* \"--CODEGEN--\":267:270   */\n      dup4\n        /* \"--CODEGEN--\":263:265   */\n      0x20\n        /* \"--CODEGEN--\":259:271   */\n      sub\n        /* \"--CODEGEN--\":254:257   */\n      0x100\n        /* \"--CODEGEN--\":250:272   */\n      exp\n        /* \"--CODEGEN--\":246:276   */\n      sub\n        /* \"--CODEGEN--\":315:319   */\n      dup1\n        /* \"--CODEGEN--\":311:320   */\n      not\n        /* \"--CODEGEN--\":305:308   */\n      dup3\n        /* \"--CODEGEN--\":299:309   */\n      mload\n        /* \"--CODEGEN--\":295:321   */\n      and\n        /* \"--CODEGEN--\":356:360   */\n      dup2\n        /* \"--CODEGEN--\":350:353   */\n      dup5\n        /* \"--CODEGEN--\":344:354   */\n      mload\n        /* \"--CODEGEN--\":340:361   */\n      and\n        /* \"--CODEGEN--\":389:396   */\n      dup1\n        /* \"--CODEGEN--\":380:387   */\n      dup3\n        /* \"--CODEGEN--\":377:397   */\n      or\n        /* \"--CODEGEN--\":372:375   */\n      dup6\n        /* \"--CODEGEN--\":365:398   */\n      mstore\n        /* \"--CODEGEN--\":3:402   */\n      pop\n      pop\n      pop\n        /* \"project_lottery/simplelottery.sol\":1219:1246  keccak256(abi.encode(hash)) */\n      pop\n      pop\n      pop\n      swap1\n      pop\n      add\n      swap2\n      pop\n      pop\n      mload(0x40)\n      dup1\n      swap2\n      sub\n      swap1\n      keccak256\n        /* \"project_lottery/simplelottery.sol\":1204:1246  bytes32 rand = keccak256(abi.encode(hash)) */\n      swap1\n      pop\n        /* \"project_lottery/simplelottery.sol\":1266:1273  tickets */\n      0x1\n        /* \"project_lottery/simplelottery.sol\":1287:1294  tickets */\n      dup1\n        /* \"project_lottery/simplelottery.sol\":1287:1301  tickets.length */\n      dup1\n      sload\n      swap1\n      pop\n        /* \"project_lottery/simplelottery.sol\":1279:1283  rand */\n      dup3\n        /* \"project_lottery/simplelottery.sol\":1274:1284  uint(rand) */\n      0x1\n      swap1\n      div\n        /* \"project_lottery/simplelottery.sol\":1274:1301  uint(rand) % tickets.length */\n      dup2\n      iszero\n      iszero\n      tag_39\n      jumpi\n      invalid\n    tag_39:\n      mod\n        /* \"project_lottery/simplelottery.sol\":1266:1302  tickets[uint(rand) % tickets.length] */\n      dup2\n      sload\n      dup2\n      lt\n      iszero\n      iszero\n      tag_40\n      jumpi\n      invalid\n    tag_40:\n      swap1\n      0x0\n      mstore\n      keccak256(0x0, 0x20)\n      add\n      0x0\n      swap1\n      sload\n      swap1\n      0x100\n      exp\n      swap1\n      div\n      0xffffffffffffffffffffffffffffffffffffffff\n      and\n        /* \"project_lottery/simplelottery.sol\":1257:1263  winner */\n      0x2\n      0x0\n        /* \"project_lottery/simplelottery.sol\":1257:1302  winner = tickets[uint(rand) % tickets.length] */\n      0x100\n      exp\n      dup2\n      sload\n      dup2\n      0xffffffffffffffffffffffffffffffffffffffff\n      mul\n      not\n      and\n      swap1\n      dup4\n      0xffffffffffffffffffffffffffffffffffffffff\n      and\n      mul\n      or\n      swap1\n      sstore\n      pop\n        /* \"project_lottery/simplelottery.sol\":638:1309  function drawWinner() public {... */\n      pop\n      pop\n      jump\t// out\n        /* \"project_lottery/simplelottery.sol\":196:217  address public winner */\n    tag_23:\n      0x2\n      0x0\n      swap1\n      sload\n      swap1\n      0x100\n      exp\n      swap1\n      div\n      0xffffffffffffffffffffffffffffffffffffffff\n      and\n      dup2\n      jump\t// out\n\n    auxdata: 0xa165627a7a72305820356a29b5877266d45dcd28f272ebed2c4abc0fcdbc271a60b509e340269ce0d20029\n}\n",
				"bytecode": {
					"linkReferences": {},
					"object": "608060405234801561001057600080fd5b50604051602080610536833981018060405281019080805190602001909291905050506201518081024201600081905550506104e5806100516000396000f30060806040526004361061006d576000357c0100000000000000000000000000000000000000000000000000000000900463ffffffff1680633ccfd60b1461007757806350b447121461008e578063a6f2ae3a146100fb578063b2185bb114610105578063dfbf53ae1461011c575b610075610173565b005b34801561008357600080fd5b5061008c610201565b005b34801561009a57600080fd5b506100b9600480360381019080803590602001909291905050506102bd565b604051808273ffffffffffffffffffffffffffffffffffffffff1673ffffffffffffffffffffffffffffffffffffffff16815260200191505060405180910390f35b610103610173565b005b34801561011157600080fd5b5061011a6102fb565b005b34801561012857600080fd5b50610131610493565b604051808273ffffffffffffffffffffffffffffffffffffffff1673ffffffffffffffffffffffffffffffffffffffff16815260200191505060405180910390f35b66038d7ea4c68000341015151561018957600080fd5b6000544210151561019957600080fd5b60013390806001815401808255809150509060018203906000526020600020016000909192909190916101000a81548173ffffffffffffffffffffffffffffffffffffffff021916908373ffffffffffffffffffffffffffffffffffffffff16021790555050565b600260009054906101000a900473ffffffffffffffffffffffffffffffffffffffff1673ffffffffffffffffffffffffffffffffffffffff163373ffffffffffffffffffffffffffffffffffffffff1614151561025d57600080fd5b3373ffffffffffffffffffffffffffffffffffffffff166108fc3073ffffffffffffffffffffffffffffffffffffffff16319081150290604051600060405180830381858888f193505050501580156102ba573d6000803e3d6000fd5b50565b6001818154811015156102cc57fe5b906000526020600020016000915054906101000a900473ffffffffffffffffffffffffffffffffffffffff1681565b60008061012c600054014211151561031257600080fd5b600073ffffffffffffffffffffffffffffffffffffffff16600260009054906101000a900473ffffffffffffffffffffffffffffffffffffffff1673ffffffffffffffffffffffffffffffffffffffff1614151561036f57600080fd5b60014303409150816040516020018082600019166000191681526020019150506040516020818303038152906040526040518082805190602001908083835b6020831015156103d357805182526020820191506020810190506020830392506103ae565b6001836020036101000a0380198251168184511680821785525050505050509050019150506040518091039020905060018080549050826001900481151561041757fe5b0681548110151561042457fe5b9060005260206000200160009054906101000a900473ffffffffffffffffffffffffffffffffffffffff16600260006101000a81548173ffffffffffffffffffffffffffffffffffffffff021916908373ffffffffffffffffffffffffffffffffffffffff1602179055505050565b600260009054906101000a900473ffffffffffffffffffffffffffffffffffffffff16815600a165627a7a72305820356a29b5877266d45dcd28f272ebed2c4abc0fcdbc271a60b509e340269ce0d20029",
					"opcodes": "PUSH1 0x80 PUSH1 0x40 MSTORE CALLVALUE DUP1 ISZERO PUSH2 0x10 JUMPI PUSH1 0x0 DUP1 REVERT JUMPDEST POP PUSH1 0x40 MLOAD PUSH1 0x20 DUP1 PUSH2 0x536 DUP4 CODECOPY DUP2 ADD DUP1 PUSH1 0x40 MSTORE DUP2 ADD SWAP1 DUP1 DUP1 MLOAD SWAP1 PUSH1 0x20 ADD SWAP1 SWAP3 SWAP2 SWAP1 POP POP POP PUSH3 0x15180 DUP2 MUL TIMESTAMP ADD PUSH1 0x0 DUP2 SWAP1 SSTORE POP POP PUSH2 0x4E5 DUP1 PUSH2 0x51 PUSH1 0x0 CODECOPY PUSH1 0x0 RETURN STOP PUSH1 0x80 PUSH1 0x40 MSTORE PUSH1 0x4 CALLDATASIZE LT PUSH2 0x6D JUMPI PUSH1 0x0 CALLDATALOAD PUSH29 0x100000000000000000000000000000000000000000000000000000000 SWAP1 DIV PUSH4 0xFFFFFFFF AND DUP1 PUSH4 0x3CCFD60B EQ PUSH2 0x77 JUMPI DUP1 PUSH4 0x50B44712 EQ PUSH2 0x8E JUMPI DUP1 PUSH4 0xA6F2AE3A EQ PUSH2 0xFB JUMPI DUP1 PUSH4 0xB2185BB1 EQ PUSH2 0x105 JUMPI DUP1 PUSH4 0xDFBF53AE EQ PUSH2 0x11C JUMPI JUMPDEST PUSH2 0x75 PUSH2 0x173 JUMP JUMPDEST STOP JUMPDEST CALLVALUE DUP1 ISZERO PUSH2 0x83 JUMPI PUSH1 0x0 DUP1 REVERT JUMPDEST POP PUSH2 0x8C PUSH2 0x201 JUMP JUMPDEST STOP JUMPDEST CALLVALUE DUP1 ISZERO PUSH2 0x9A JUMPI PUSH1 0x0 DUP1 REVERT JUMPDEST POP PUSH2 0xB9 PUSH1 0x4 DUP1 CALLDATASIZE SUB DUP2 ADD SWAP1 DUP1 DUP1 CALLDATALOAD SWAP1 PUSH1 0x20 ADD SWAP1 SWAP3 SWAP2 SWAP1 POP POP POP PUSH2 0x2BD JUMP JUMPDEST PUSH1 0x40 MLOAD DUP1 DUP3 PUSH20 0xFFFFFFFFFFFFFFFFFFFFFFFFFFFFFFFFFFFFFFFF AND PUSH20 0xFFFFFFFFFFFFFFFFFFFFFFFFFFFFFFFFFFFFFFFF AND DUP2 MSTORE PUSH1 0x20 ADD SWAP2 POP POP PUSH1 0x40 MLOAD DUP1 SWAP2 SUB SWAP1 RETURN JUMPDEST PUSH2 0x103 PUSH2 0x173 JUMP JUMPDEST STOP JUMPDEST CALLVALUE DUP1 ISZERO PUSH2 0x111 JUMPI PUSH1 0x0 DUP1 REVERT JUMPDEST POP PUSH2 0x11A PUSH2 0x2FB JUMP JUMPDEST STOP JUMPDEST CALLVALUE DUP1 ISZERO PUSH2 0x128 JUMPI PUSH1 0x0 DUP1 REVERT JUMPDEST POP PUSH2 0x131 PUSH2 0x493 JUMP JUMPDEST PUSH1 0x40 MLOAD DUP1 DUP3 PUSH20 0xFFFFFFFFFFFFFFFFFFFFFFFFFFFFFFFFFFFFFFFF AND PUSH20 0xFFFFFFFFFFFFFFFFFFFFFFFFFFFFFFFFFFFFFFFF AND DUP2 MSTORE PUSH1 0x20 ADD SWAP2 POP POP PUSH1 0x40 MLOAD DUP1 SWAP2 SUB SWAP1 RETURN JUMPDEST PUSH7 0x38D7EA4C68000 CALLVALUE LT ISZERO ISZERO ISZERO PUSH2 0x189 JUMPI PUSH1 0x0 DUP1 REVERT JUMPDEST PUSH1 0x0 SLOAD TIMESTAMP LT ISZERO ISZERO PUSH2 0x199 JUMPI PUSH1 0x0 DUP1 REVERT JUMPDEST PUSH1 0x1 CALLER SWAP1 DUP1 PUSH1 0x1 DUP2 SLOAD ADD DUP1 DUP3 SSTORE DUP1 SWAP2 POP POP SWAP1 PUSH1 0x1 DUP3 SUB SWAP1 PUSH1 0x0 MSTORE PUSH1 0x20 PUSH1 0x0 KECCAK256 ADD PUSH1 0x0 SWAP1 SWAP2 SWAP3 SWAP1 SWAP2 SWAP1 SWAP2 PUSH2 0x100 EXP DUP2 SLOAD DUP2 PUSH20 0xFFFFFFFFFFFFFFFFFFFFFFFFFFFFFFFFFFFFFFFF MUL NOT AND SWAP1 DUP4 PUSH20 0xFFFFFFFFFFFFFFFFFFFFFFFFFFFFFFFFFFFFFFFF AND MUL OR SWAP1 SSTORE POP POP JUMP JUMPDEST PUSH1 0x2 PUSH1 0x0 SWAP1 SLOAD SWAP1 PUSH2 0x100 EXP SWAP1 DIV PUSH20 0xFFFFFFFFFFFFFFFFFFFFFFFFFFFFFFFFFFFFFFFF AND PUSH20 0xFFFFFFFFFFFFFFFFFFFFFFFFFFFFFFFFFFFFFFFF AND CALLER PUSH20 0xFFFFFFFFFFFFFFFFFFFFFFFFFFFFFFFFFFFFFFFF AND EQ ISZERO ISZERO PUSH2 0x25D JUMPI PUSH1 0x0 DUP1 REVERT JUMPDEST CALLER PUSH20 0xFFFFFFFFFFFFFFFFFFFFFFFFFFFFFFFFFFFFFFFF AND PUSH2 0x8FC ADDRESS PUSH20 0xFFFFFFFFFFFFFFFFFFFFFFFFFFFFFFFFFFFFFFFF AND BALANCE SWAP1 DUP2 ISZERO MUL SWAP1 PUSH1 0x40 MLOAD PUSH1 0x0 PUSH1 0x40 MLOAD DUP1 DUP4 SUB DUP2 DUP6 DUP9 DUP9 CALL SWAP4 POP POP POP POP ISZERO DUP1 ISZERO PUSH2 0x2BA JUMPI RETURNDATASIZE PUSH1 0x0 DUP1 RETURNDATACOPY RETURNDATASIZE PUSH1 0x0 REVERT JUMPDEST POP JUMP JUMPDEST PUSH1 0x1 DUP2 DUP2 SLOAD DUP2 LT ISZERO ISZERO PUSH2 0x2CC JUMPI INVALID JUMPDEST SWAP1 PUSH1 0x0 MSTORE PUSH1 0x20 PUSH1 0x0 KECCAK256 ADD PUSH1 0x0 SWAP2 POP SLOAD SWAP1 PUSH2 0x100 EXP SWAP1 DIV PUSH20 0xFFFFFFFFFFFFFFFFFFFFFFFFFFFFFFFFFFFFFFFF AND DUP2 JUMP JUMPDEST PUSH1 0x0 DUP1 PUSH2 0x12C PUSH1 0x0 SLOAD ADD TIMESTAMP GT ISZERO ISZERO PUSH2 0x312 JUMPI PUSH1 0x0 DUP1 REVERT JUMPDEST PUSH1 0x0 PUSH20 0xFFFFFFFFFFFFFFFFFFFFFFFFFFFFFFFFFFFFFFFF AND PUSH1 0x2 PUSH1 0x0 SWAP1 SLOAD SWAP1 PUSH2 0x100 EXP SWAP1 DIV PUSH20 0xFFFFFFFFFFFFFFFFFFFFFFFFFFFFFFFFFFFFFFFF AND PUSH20 0xFFFFFFFFFFFFFFFFFFFFFFFFFFFFFFFFFFFFFFFF AND EQ ISZERO ISZERO PUSH2 0x36F JUMPI PUSH1 0x0 DUP1 REVERT JUMPDEST PUSH1 0x1 NUMBER SUB BLOCKHASH SWAP2 POP DUP2 PUSH1 0x40 MLOAD PUSH1 0x20 ADD DUP1 DUP3 PUSH1 0x0 NOT AND PUSH1 0x0 NOT AND DUP2 MSTORE PUSH1 0x20 ADD SWAP2 POP POP PUSH1 0x40 MLOAD PUSH1 0x20 DUP2 DUP4 SUB SUB DUP2 MSTORE SWAP1 PUSH1 0x40 MSTORE PUSH1 0x40 MLOAD DUP1 DUP3 DUP1 MLOAD SWAP1 PUSH1 0x20 ADD SWAP1 DUP1 DUP4 DUP4 JUMPDEST PUSH1 0x20 DUP4 LT ISZERO ISZERO PUSH2 0x3D3 JUMPI DUP1 MLOAD DUP3 MSTORE PUSH1 0x20 DUP3 ADD SWAP2 POP PUSH1 0x20 DUP2 ADD SWAP1 POP PUSH1 0x20 DUP4 SUB SWAP3 POP PUSH2 0x3AE JUMP JUMPDEST PUSH1 0x1 DUP4 PUSH1 0x20 SUB PUSH2 0x100 EXP SUB DUP1 NOT DUP3 MLOAD AND DUP2 DUP5 MLOAD AND DUP1 DUP3 OR DUP6 MSTORE POP POP POP POP POP POP SWAP1 POP ADD SWAP2 POP POP PUSH1 0x40 MLOAD DUP1 SWAP2 SUB SWAP1 KECCAK256 SWAP1 POP PUSH1 0x1 DUP1 DUP1 SLOAD SWAP1 POP DUP3 PUSH1 0x1 SWAP1 DIV DUP2 ISZERO ISZERO PUSH2 0x417 JUMPI INVALID JUMPDEST MOD DUP2 SLOAD DUP2 LT ISZERO ISZERO PUSH2 0x424 JUMPI INVALID JUMPDEST SWAP1 PUSH1 0x0 MSTORE PUSH1 0x20 PUSH1 0x0 KECCAK256 ADD PUSH1 0x0 SWAP1 SLOAD SWAP1 PUSH2 0x100 EXP SWAP1 DIV PUSH20 0xFFFFFFFFFFFFFFFFFFFFFFFFFFFFFFFFFFFFFFFF AND PUSH1 0x2 PUSH1 0x0 PUSH2 0x100 EXP DUP2 SLOAD DUP2 PUSH20 0xFFFFFFFFFFFFFFFFFFFFFFFFFFFFFFFFFFFFFFFF MUL NOT AND SWAP1 DUP4 PUSH20 0xFFFFFFFFFFFFFFFFFFFFFFFFFFFFFFFFFFFFFFFF AND MUL OR SWAP1 SSTORE POP POP POP JUMP JUMPDEST PUSH1 0x2 PUSH1 0x0 SWAP1 SLOAD SWAP1 PUSH2 0x100 EXP SWAP1 DIV PUSH20 0xFFFFFFFFFFFFFFFFFFFFFFFFFFFFFFFFFFFFFFFF AND DUP2 JUMP STOP LOG1 PUSH6 0x627A7A723058 KECCAK256 CALLDATALOAD PUSH11 0x29B5877266D45DCD28F272 0xeb 0xed 0x2c 0x4a 0xbc 0xf 0xcd 0xbc 0x27 BYTE PUSH1 0xB5 MULMOD 0xe3 BLOCKHASH 0x26 SWAP13 0xe0 0xd2 STOP 0x29 "
				},
				"gasEstimates": {
					"creation": {
						"codeDepositCost": "250600",
						"executionCost": "20407",
						"totalCost": "271007"
					},
					"external": {
						"": "41042",
						"buy()": "40998",
						"drawWinner()": "infinite",
						"tickets(uint256)": "808",
						"winner()": "530",
						"withdraw()": "infinite"
					}
				},
				"methodIdentifiers": {
					"buy()": "a6f2ae3a",
					"drawWinner()": "b2185bb1",
					"tickets(uint256)": "50b44712",
					"winner()": "dfbf53ae",
					"withdraw()": "3ccfd60b"
				}
			},
			"userdoc": {
				"methods": {}
			}
		}
	}
}